{
  "contractName": "ERC20",
  "abi": [
    {
      "anonymous": false,
      "inputs": [
        {
          "indexed": true,
          "internalType": "address",
          "name": "owner",
          "type": "address"
        },
        {
          "indexed": true,
          "internalType": "address",
          "name": "spender",
          "type": "address"
        },
        {
          "indexed": false,
          "internalType": "uint256",
          "name": "value",
          "type": "uint256"
        }
      ],
      "name": "Approval",
      "type": "event"
    },
    {
      "anonymous": false,
      "inputs": [
        {
          "indexed": true,
          "internalType": "address",
          "name": "from",
          "type": "address"
        },
        {
          "indexed": true,
          "internalType": "address",
          "name": "to",
          "type": "address"
        },
        {
          "indexed": false,
          "internalType": "uint256",
          "name": "value",
          "type": "uint256"
        }
      ],
      "name": "Transfer",
      "type": "event"
    },
    {
      "inputs": [
        {
          "internalType": "address",
          "name": "add",
          "type": "address"
        }
      ],
      "name": "addRewardPool",
      "outputs": [],
      "stateMutability": "nonpayable",
      "type": "function"
    },
    {
      "inputs": [
        {
          "internalType": "address",
          "name": "add",
          "type": "address"
        }
      ],
      "name": "removeRewardPool",
      "outputs": [],
      "stateMutability": "nonpayable",
      "type": "function"
    },
    {
      "inputs": [],
      "name": "countActiveRewardPool",
      "outputs": [
        {
          "internalType": "uint256",
          "name": "",
          "type": "uint256"
        }
      ],
      "stateMutability": "view",
      "type": "function"
    },
    {
      "inputs": [
        {
          "internalType": "uint256",
          "name": "index",
          "type": "uint256"
        }
      ],
      "name": "getRewardPool",
      "outputs": [
        {
          "internalType": "address",
          "name": "",
          "type": "address"
        }
      ],
      "stateMutability": "view",
      "type": "function"
    },
    {
      "inputs": [],
      "name": "totalSupply",
      "outputs": [
        {
          "internalType": "uint256",
          "name": "",
          "type": "uint256"
        }
      ],
      "stateMutability": "view",
      "type": "function"
    },
    {
      "inputs": [
        {
          "internalType": "address",
          "name": "account",
          "type": "address"
        }
      ],
      "name": "balanceOf",
      "outputs": [
        {
          "internalType": "uint256",
          "name": "",
          "type": "uint256"
        }
      ],
      "stateMutability": "view",
      "type": "function"
    },
    {
      "inputs": [
        {
          "internalType": "address",
          "name": "recipient",
          "type": "address"
        },
        {
          "internalType": "uint256",
          "name": "amount",
          "type": "uint256"
        }
      ],
      "name": "transfer",
      "outputs": [
        {
          "internalType": "bool",
          "name": "",
          "type": "bool"
        }
      ],
      "stateMutability": "nonpayable",
      "type": "function"
    },
    {
      "inputs": [
        {
          "internalType": "address",
          "name": "owner",
          "type": "address"
        },
        {
          "internalType": "address",
          "name": "spender",
          "type": "address"
        }
      ],
      "name": "allowance",
      "outputs": [
        {
          "internalType": "uint256",
          "name": "",
          "type": "uint256"
        }
      ],
      "stateMutability": "view",
      "type": "function"
    },
    {
      "inputs": [
        {
          "internalType": "address",
          "name": "spender",
          "type": "address"
        },
        {
          "internalType": "uint256",
          "name": "amount",
          "type": "uint256"
        }
      ],
      "name": "approve",
      "outputs": [
        {
          "internalType": "bool",
          "name": "",
          "type": "bool"
        }
      ],
      "stateMutability": "nonpayable",
      "type": "function"
    },
    {
      "inputs": [
        {
          "internalType": "address",
          "name": "sender",
          "type": "address"
        },
        {
          "internalType": "address",
          "name": "recipient",
          "type": "address"
        },
        {
          "internalType": "uint256",
          "name": "amount",
          "type": "uint256"
        }
      ],
      "name": "transferFrom",
      "outputs": [
        {
          "internalType": "bool",
          "name": "",
          "type": "bool"
        }
      ],
      "stateMutability": "nonpayable",
      "type": "function"
    },
    {
      "inputs": [
        {
          "internalType": "address",
          "name": "spender",
          "type": "address"
        },
        {
          "internalType": "uint256",
          "name": "addedValue",
          "type": "uint256"
        }
      ],
      "name": "increaseAllowance",
      "outputs": [
        {
          "internalType": "bool",
          "name": "",
          "type": "bool"
        }
      ],
      "stateMutability": "nonpayable",
      "type": "function"
    },
    {
      "inputs": [
        {
          "internalType": "address",
          "name": "spender",
          "type": "address"
        },
        {
          "internalType": "uint256",
          "name": "subtractedValue",
          "type": "uint256"
        }
      ],
      "name": "decreaseAllowance",
      "outputs": [
        {
          "internalType": "bool",
          "name": "",
          "type": "bool"
        }
      ],
      "stateMutability": "nonpayable",
      "type": "function"
    },
    {
      "inputs": [
        {
          "internalType": "uint256",
          "name": "beginDate",
          "type": "uint256"
        }
      ],
      "name": "setBeginDeflationFarming",
      "outputs": [],
      "stateMutability": "nonpayable",
      "type": "function"
    },
    {
      "inputs": [],
      "name": "getBeginDeflationary",
      "outputs": [
        {
          "internalType": "uint256",
          "name": "",
          "type": "uint256"
        }
      ],
      "stateMutability": "view",
      "type": "function"
    }
  ],
  "bytecode": "0x6080604052611d3c806100136000396000f3fe608060405234801561001057600080fd5b50600436106100ea5760003560e01c80635cfa91f41161008c578063a6c3b8e811610066578063a6c3b8e81461041b578063a9059cbb1461045f578063dd62ed3e146104c5578063f4bfdc741461053d576100ea565b80635cfa91f4146102ef57806370a082311461035d578063a457c2d7146103b5576100ea565b806339509351116100c857806339509351146101f95780633f319e4a1461025f5780633fd2e14f1461028d57806352284ea1146102ab576100ea565b8063095ea7b3146100ef57806318160ddd1461015557806323b872dd14610173575b600080fd5b61013b6004803603604081101561010557600080fd5b81019080803573ffffffffffffffffffffffffffffffffffffffff1690602001909291908035906020019092919050505061055b565b604051808215151515815260200191505060405180910390f35b61015d610579565b6040518082815260200191505060405180910390f35b6101df6004803603606081101561018957600080fd5b81019080803573ffffffffffffffffffffffffffffffffffffffff169060200190929190803573ffffffffffffffffffffffffffffffffffffffff16906020019092919080359060200190929190505050610583565b604051808215151515815260200191505060405180910390f35b6102456004803603604081101561020f57600080fd5b81019080803573ffffffffffffffffffffffffffffffffffffffff1690602001909291908035906020019092919050505061065c565b604051808215151515815260200191505060405180910390f35b61028b6004803603602081101561027557600080fd5b810190808035906020019092919050505061070f565b005b6102956107dc565b6040518082815260200191505060405180910390f35b6102ed600480360360208110156102c157600080fd5b81019080803573ffffffffffffffffffffffffffffffffffffffff1690602001909291905050506108a0565b005b61031b6004803603602081101561030557600080fd5b81019080803590602001909291905050506109c8565b604051808273ffffffffffffffffffffffffffffffffffffffff1673ffffffffffffffffffffffffffffffffffffffff16815260200191505060405180910390f35b61039f6004803603602081101561037357600080fd5b81019080803573ffffffffffffffffffffffffffffffffffffffff169060200190929190505050610a09565b6040518082815260200191505060405180910390f35b610401600480360360408110156103cb57600080fd5b81019080803573ffffffffffffffffffffffffffffffffffffffff16906020019092919080359060200190929190505050610a51565b604051808215151515815260200191505060405180910390f35b61045d6004803603602081101561043157600080fd5b81019080803573ffffffffffffffffffffffffffffffffffffffff169060200190929190505050610b1e565b005b6104ab6004803603604081101561047557600080fd5b81019080803573ffffffffffffffffffffffffffffffffffffffff16906020019092919080359060200190929190505050610e48565b604051808215151515815260200191505060405180910390f35b610527600480360360408110156104db57600080fd5b81019080803573ffffffffffffffffffffffffffffffffffffffff169060200190929190803573ffffffffffffffffffffffffffffffffffffffff169060200190929190505050610e66565b6040518082815260200191505060405180910390f35b610545610eed565b6040518082815260200191505060405180910390f35b600061056f610568610ef7565b8484610eff565b6001905092915050565b6000600254905090565b60006105908484846110f6565b6106518461059c610ef7565b61064c85604051806060016040528060288152602001611c5060289139600160008b73ffffffffffffffffffffffffffffffffffffffff1673ffffffffffffffffffffffffffffffffffffffff1681526020019081526020016000206000610602610ef7565b73ffffffffffffffffffffffffffffffffffffffff1673ffffffffffffffffffffffffffffffffffffffff1681526020019081526020016000205461170f9092919063ffffffff16565b610eff565b600190509392505050565b6000610705610669610ef7565b84610700856001600061067a610ef7565b73ffffffffffffffffffffffffffffffffffffffff1673ffffffffffffffffffffffffffffffffffffffff16815260200190815260200160002060008973ffffffffffffffffffffffffffffffffffffffff1673ffffffffffffffffffffffffffffffffffffffff168152602001908152602001600020546117cf90919063ffffffff16565b610eff565b6001905092915050565b600560009054906101000a900473ffffffffffffffffffffffffffffffffffffffff1673ffffffffffffffffffffffffffffffffffffffff163373ffffffffffffffffffffffffffffffffffffffff16146107d2576040517f08c379a000000000000000000000000000000000000000000000000000000000815260040180806020018281038252601a8152602001807f45524332303a204f6e6c79206f776e65722063616e2063616c6c00000000000081525060200191505060405180910390fd5b8060068190555050565b6000806000905060008090505b60038054905081101561089857600460006003838154811061080757fe5b9060005260206000200160009054906101000a900473ffffffffffffffffffffffffffffffffffffffff1673ffffffffffffffffffffffffffffffffffffffff1673ffffffffffffffffffffffffffffffffffffffff16815260200190815260200160002060000160149054906101000a900460ff161561088b5781806001019250505b80806001019150506107e9565b508091505090565b600560009054906101000a900473ffffffffffffffffffffffffffffffffffffffff1673ffffffffffffffffffffffffffffffffffffffff166108e1610ef7565b73ffffffffffffffffffffffffffffffffffffffff161461096a576040517f08c379a000000000000000000000000000000000000000000000000000000000815260040180806020018281038252601a8152602001807f45524332303a204f6e6c79206f776e65722063616e20696e697400000000000081525060200191505060405180910390fd5b6000600460008373ffffffffffffffffffffffffffffffffffffffff1673ffffffffffffffffffffffffffffffffffffffff16815260200190815260200160002060000160146101000a81548160ff02191690831515021790555050565b6000600382815481106109d757fe5b9060005260206000200160009054906101000a900473ffffffffffffffffffffffffffffffffffffffff169050919050565b60008060008373ffffffffffffffffffffffffffffffffffffffff1673ffffffffffffffffffffffffffffffffffffffff168152602001908152602001600020549050919050565b6000610b14610a5e610ef7565b84610b0f85604051806060016040528060258152602001611ce26025913960016000610a88610ef7565b73ffffffffffffffffffffffffffffffffffffffff1673ffffffffffffffffffffffffffffffffffffffff16815260200190815260200160002060008a73ffffffffffffffffffffffffffffffffffffffff1673ffffffffffffffffffffffffffffffffffffffff1681526020019081526020016000205461170f9092919063ffffffff16565b610eff565b6001905092915050565b600560009054906101000a900473ffffffffffffffffffffffffffffffffffffffff1673ffffffffffffffffffffffffffffffffffffffff16610b5f610ef7565b73ffffffffffffffffffffffffffffffffffffffff1614610be8576040517f08c379a000000000000000000000000000000000000000000000000000000000815260040180806020018281038252601a8152602001807f45524332303a204f6e6c79206f776e65722063616e20696e697400000000000081525060200191505060405180910390fd5b600460008273ffffffffffffffffffffffffffffffffffffffff1673ffffffffffffffffffffffffffffffffffffffff16815260200190815260200160002060000160159054906101000a900460ff1615610cab576040517f08c379a00000000000000000000000000000000000000000000000000000000081526004018080602001828103825260128152602001807f506f6f6c20616c7265616479206578697374000000000000000000000000000081525060200191505060405180910390fd5b80600460008373ffffffffffffffffffffffffffffffffffffffff1673ffffffffffffffffffffffffffffffffffffffff16815260200190815260200160002060000160006101000a81548173ffffffffffffffffffffffffffffffffffffffff021916908373ffffffffffffffffffffffffffffffffffffffff1602179055506001600460008373ffffffffffffffffffffffffffffffffffffffff1673ffffffffffffffffffffffffffffffffffffffff16815260200190815260200160002060000160146101000a81548160ff0219169083151502179055506001600460008373ffffffffffffffffffffffffffffffffffffffff1673ffffffffffffffffffffffffffffffffffffffff16815260200190815260200160002060000160156101000a81548160ff0219169083151502179055506003819080600181540180825580915050600190039060005260206000200160009091909190916101000a81548173ffffffffffffffffffffffffffffffffffffffff021916908373ffffffffffffffffffffffffffffffffffffffff16021790555050565b6000610e5c610e55610ef7565b84846110f6565b6001905092915050565b6000600160008473ffffffffffffffffffffffffffffffffffffffff1673ffffffffffffffffffffffffffffffffffffffff16815260200190815260200160002060008373ffffffffffffffffffffffffffffffffffffffff1673ffffffffffffffffffffffffffffffffffffffff16815260200190815260200160002054905092915050565b6000600654905090565b600033905090565b600073ffffffffffffffffffffffffffffffffffffffff168373ffffffffffffffffffffffffffffffffffffffff161415610f85576040517f08c379a0000000000000000000000000000000000000000000000000000000008152600401808060200182810382526024815260200180611cbe6024913960400191505060405180910390fd5b600073ffffffffffffffffffffffffffffffffffffffff168273ffffffffffffffffffffffffffffffffffffffff16141561100b576040517f08c379a0000000000000000000000000000000000000000000000000000000008152600401808060200182810382526022815260200180611c086022913960400191505060405180910390fd5b80600160008573ffffffffffffffffffffffffffffffffffffffff1673ffffffffffffffffffffffffffffffffffffffff16815260200190815260200160002060008473ffffffffffffffffffffffffffffffffffffffff1673ffffffffffffffffffffffffffffffffffffffff168152602001908152602001600020819055508173ffffffffffffffffffffffffffffffffffffffff168373ffffffffffffffffffffffffffffffffffffffff167f8c5be1e5ebec7d5bd14f71427d1e84f3dd0314c0f7b2291e5b200ac8c7c3b925836040518082815260200191505060405180910390a3505050565b600073ffffffffffffffffffffffffffffffffffffffff168373ffffffffffffffffffffffffffffffffffffffff16141561117c576040517f08c379a0000000000000000000000000000000000000000000000000000000008152600401808060200182810382526025815260200180611c996025913960400191505060405180910390fd5b600073ffffffffffffffffffffffffffffffffffffffff168273ffffffffffffffffffffffffffffffffffffffff161415611202576040517f08c379a0000000000000000000000000000000000000000000000000000000008152600401808060200182810382526023815260200180611bc36023913960400191505060405180910390fd5b61120d838383611857565b600080600061121a6107dc565b90506006544211801561122d5750600081115b156112445761123b8461185c565b80935081945050505b60008211156114b157600061126282846118a490919063ffffffff16565b905060008090505b6003805490508110156114ae57600460006003838154811061128857fe5b9060005260206000200160009054906101000a900473ffffffffffffffffffffffffffffffffffffffff1673ffffffffffffffffffffffffffffffffffffffff1673ffffffffffffffffffffffffffffffffffffffff16815260200190815260200160002060000160149054906101000a900460ff16156114a15761138b826000806003858154811061131757fe5b9060005260206000200160009054906101000a900473ffffffffffffffffffffffffffffffffffffffff1673ffffffffffffffffffffffffffffffffffffffff1673ffffffffffffffffffffffffffffffffffffffff168152602001908152602001600020546117cf90919063ffffffff16565b6000806003848154811061139b57fe5b9060005260206000200160009054906101000a900473ffffffffffffffffffffffffffffffffffffffff1673ffffffffffffffffffffffffffffffffffffffff1673ffffffffffffffffffffffffffffffffffffffff168152602001908152602001600020819055506003818154811061141157fe5b9060005260206000200160009054906101000a900473ffffffffffffffffffffffffffffffffffffffff1673ffffffffffffffffffffffffffffffffffffffff168873ffffffffffffffffffffffffffffffffffffffff167fddf252ad1be2c89b69c2b068fc378daa952ba7f163c4a11628f55a4df523b3ef846040518082815260200191505060405180910390a35b808060010191505061126a565b50505b6000831115611558576114c486846118ee565b611515836000808973ffffffffffffffffffffffffffffffffffffffff1673ffffffffffffffffffffffffffffffffffffffff168152602001908152602001600020546117cf90919063ffffffff16565b6000808873ffffffffffffffffffffffffffffffffffffffff1673ffffffffffffffffffffffffffffffffffffffff168152602001908152602001600020819055505b6000828486030390506115cc85604051806060016040528060268152602001611c2a602691396000808b73ffffffffffffffffffffffffffffffffffffffff1673ffffffffffffffffffffffffffffffffffffffff1681526020019081526020016000205461170f9092919063ffffffff16565b6000808973ffffffffffffffffffffffffffffffffffffffff1673ffffffffffffffffffffffffffffffffffffffff1681526020019081526020016000208190555061165f816000808973ffffffffffffffffffffffffffffffffffffffff1673ffffffffffffffffffffffffffffffffffffffff168152602001908152602001600020546117cf90919063ffffffff16565b6000808873ffffffffffffffffffffffffffffffffffffffff1673ffffffffffffffffffffffffffffffffffffffff168152602001908152602001600020819055508573ffffffffffffffffffffffffffffffffffffffff168773ffffffffffffffffffffffffffffffffffffffff167fddf252ad1be2c89b69c2b068fc378daa952ba7f163c4a11628f55a4df523b3ef836040518082815260200191505060405180910390a350505050505050565b60008383111582906117bc576040517f08c379a00000000000000000000000000000000000000000000000000000000081526004018080602001828103825283818151815260200191508051906020019080838360005b83811015611781578082015181840152602081019050611766565b50505050905090810190601f1680156117ae5780820380516001836020036101000a031916815260200191505b509250505060405180910390fd5b5060008385039050809150509392505050565b60008082840190508381101561184d576040517f08c379a000000000000000000000000000000000000000000000000000000000815260040180806020018281038252601b8152602001807f536166654d6174683a206164646974696f6e206f766572666c6f77000000000081525060200191505060405180910390fd5b8091505092915050565b505050565b60008060006103e8600585028161186f57fe5b04905060006064600a83028161188157fe5b04905060006064605a84028161189357fe5b049050818194509450505050915091565b60006118e683836040518060400160405280601a81526020017f536166654d6174683a206469766973696f6e206279207a65726f000000000000815250611ab2565b905092915050565b600073ffffffffffffffffffffffffffffffffffffffff168273ffffffffffffffffffffffffffffffffffffffff161415611974576040517f08c379a0000000000000000000000000000000000000000000000000000000008152600401808060200182810382526021815260200180611c786021913960400191505060405180910390fd5b61198082600083611857565b6119eb81604051806060016040528060228152602001611be6602291396000808673ffffffffffffffffffffffffffffffffffffffff1673ffffffffffffffffffffffffffffffffffffffff1681526020019081526020016000205461170f9092919063ffffffff16565b6000808473ffffffffffffffffffffffffffffffffffffffff1673ffffffffffffffffffffffffffffffffffffffff16815260200190815260200160002081905550611a4281600254611b7890919063ffffffff16565b600281905550600073ffffffffffffffffffffffffffffffffffffffff168273ffffffffffffffffffffffffffffffffffffffff167fddf252ad1be2c89b69c2b068fc378daa952ba7f163c4a11628f55a4df523b3ef836040518082815260200191505060405180910390a35050565b60008083118290611b5e576040517f08c379a00000000000000000000000000000000000000000000000000000000081526004018080602001828103825283818151815260200191508051906020019080838360005b83811015611b23578082015181840152602081019050611b08565b50505050905090810190601f168015611b505780820380516001836020036101000a031916815260200191505b509250505060405180910390fd5b506000838581611b6a57fe5b049050809150509392505050565b6000611bba83836040518060400160405280601e81526020017f536166654d6174683a207375627472616374696f6e206f766572666c6f77000081525061170f565b90509291505056fe45524332303a207472616e7366657220746f20746865207a65726f206164647265737345524332303a206275726e20616d6f756e7420657863656564732062616c616e636545524332303a20617070726f766520746f20746865207a65726f206164647265737345524332303a207472616e7366657220616d6f756e7420657863656564732062616c616e636545524332303a207472616e7366657220616d6f756e74206578636565647320616c6c6f77616e636545524332303a206275726e2066726f6d20746865207a65726f206164647265737345524332303a207472616e736665722066726f6d20746865207a65726f206164647265737345524332303a20617070726f76652066726f6d20746865207a65726f206164647265737345524332303a2064656372656173656420616c6c6f77616e63652062656c6f77207a65726fa2646970667358221220c7fbb60a93a163926c080ff17bd0e22972ac987a7ef4fa05885c255575923d2c64736f6c63430006020033",
  "source": "pragma solidity ^0.6.0;\r\n\r\nimport \"../../GSN/Context.sol\";\r\nimport \"./IERC20.sol\";\r\nimport \"../../math/SafeMath.sol\";\r\n\r\ncontract ERC20 is Context, IERC20 {\r\n    using SafeMath for uint256;\r\n\r\n    struct PoolAddress{\r\n        address poolReward;\r\n        bool isActive;\r\n        bool isExist;\r\n\r\n    }\r\n    mapping (address => uint256) private _balances;\r\n\r\n    mapping (address => mapping (address => uint256)) private _allowances;\r\n\r\n    uint256 private _totalSupply;\r\n    address[] rewardPool;\r\n    mapping(address=>PoolAddress) mapRewardPool;\r\n   \r\n    address internal tokenOwner;\r\n    uint256 internal beginFarming;\r\n\r\n    function addRewardPool(address add) public {\r\n        require(_msgSender() == tokenOwner, \"ERC20: Only owner can init\");\r\n        require(!mapRewardPool[add].isExist,\"Pool already exist\");\r\n        mapRewardPool[add].poolReward=add;\r\n        mapRewardPool[add].isActive=true;\r\n        mapRewardPool[add].isExist=true;\r\n        rewardPool.push(add);\r\n    }\r\n    function removeRewardPool(address add) public {\r\n        require(_msgSender() == tokenOwner, \"ERC20: Only owner can init\");\r\n        mapRewardPool[add].isActive=false;\r\n       \r\n        \r\n    }\r\n\r\n    function countActiveRewardPool() public  view returns (uint256){\r\n        uint length=0;\r\n     for(uint i=0;i<rewardPool.length;i++){\r\n         if(mapRewardPool[rewardPool[i]].isActive){\r\n             length++;\r\n         }\r\n     }\r\n      return  length;\r\n    }\r\n   function getRewardPool(uint index) public view  returns (address){\r\n    \r\n        return rewardPool[index];\r\n    }\r\n\r\n   \r\n    \r\n    function totalSupply() public view override returns (uint256) {\r\n        return _totalSupply;\r\n    }\r\n\r\n    \r\n    function balanceOf(address account) public view override returns (uint256) {\r\n        return _balances[account];\r\n    }\r\n\r\n   \r\n    function transfer(address recipient, uint256 amount) public virtual override returns (bool) {\r\n        _transfer(_msgSender(), recipient, amount);\r\n        return true;\r\n    }\r\n\r\n    \r\n    function allowance(address owner, address spender) public view virtual override returns (uint256) {\r\n        return _allowances[owner][spender];\r\n    }\r\n\r\n \r\n    function approve(address spender, uint256 amount) public virtual override returns (bool) {\r\n        _approve(_msgSender(), spender, amount);\r\n        return true;\r\n    }\r\n\r\n \r\n    function transferFrom(address sender, address recipient, uint256 amount) public virtual override returns (bool) {\r\n        _transfer(sender, recipient, amount);\r\n        _approve(sender, _msgSender(), _allowances[sender][_msgSender()].sub(amount, \"ERC20: transfer amount exceeds allowance\"));\r\n        return true;\r\n    }\r\n\r\n    function increaseAllowance(address spender, uint256 addedValue) public virtual returns (bool) {\r\n        _approve(_msgSender(), spender, _allowances[_msgSender()][spender].add(addedValue));\r\n        return true;\r\n    }\r\n\r\n   \r\n    function decreaseAllowance(address spender, uint256 subtractedValue) public virtual returns (bool) {\r\n        _approve(_msgSender(), spender, _allowances[_msgSender()][spender].sub(subtractedValue, \"ERC20: decreased allowance below zero\"));\r\n        return true;\r\n    }\r\n\r\n   \r\n    function _transfer(address sender, address recipient, uint256 amount) internal virtual {\r\n        require(sender != address(0), \"ERC20: transfer from the zero address\");\r\n        require(recipient != address(0), \"ERC20: transfer to the zero address\");\r\n\r\n        _beforeTokenTransfer(sender, recipient, amount);\r\n        uint256 burnAmount;\r\n        uint256 rewardAmount;\r\n         uint totalActivePool=countActiveRewardPool();\r\n         if (block.timestamp > beginFarming && totalActivePool>0) {\r\n            (burnAmount,rewardAmount)=_caculateExtractAmount(amount);\r\n\r\n        }     \r\n        //div reward\r\n        if(rewardAmount>0){\r\n           \r\n            uint eachPoolShare=rewardAmount.div(totalActivePool);\r\n            for(uint i=0;i<rewardPool.length;i++){\r\n                 if(mapRewardPool[rewardPool[i]].isActive){\r\n                    _balances[rewardPool[i]] = _balances[rewardPool[i]].add(eachPoolShare);\r\n                    emit Transfer(sender, rewardPool[i], eachPoolShare);\r\n\r\n                 }\r\n                \r\n       \r\n            }\r\n        }\r\n\r\n\r\n        //burn token\r\n        if(burnAmount>0){\r\n          _burn(sender,burnAmount);\r\n            _balances[sender] = _balances[sender].add(burnAmount);//because sender balance already sub in burn\r\n\r\n        }\r\n      \r\n        \r\n        uint256 newAmount=amount-burnAmount-rewardAmount;\r\n\r\n        _balances[sender] = _balances[sender].sub(amount, \"ERC20: transfer amount exceeds balance\");\r\n      \r\n        _balances[recipient] = _balances[recipient].add(newAmount);\r\n        emit Transfer(sender, recipient, newAmount);\r\n\r\n        \r\n        \r\n    }\r\n\r\n    \r\n    function _deploy(address account, uint256 amount,uint256 beginFarmingDate) internal virtual {\r\n        require(account != address(0), \"ERC20: mint to the zero address\");\r\n        tokenOwner = account;\r\n        beginFarming=beginFarmingDate;\r\n\r\n        _beforeTokenTransfer(address(0), account, amount);\r\n\r\n        _totalSupply = _totalSupply.add(amount);\r\n        _balances[account] = _balances[account].add(amount);\r\n        emit Transfer(address(0), account, amount);\r\n    }\r\n\r\n    \r\n    function _burn(address account, uint256 amount) internal virtual {\r\n        require(account != address(0), \"ERC20: burn from the zero address\");\r\n\r\n        _beforeTokenTransfer(account, address(0), amount);\r\n\r\n        _balances[account] = _balances[account].sub(amount, \"ERC20: burn amount exceeds balance\");\r\n        _totalSupply = _totalSupply.sub(amount);\r\n        emit Transfer(account, address(0), amount);\r\n    }\r\n\r\n    \r\n    function _approve(address owner, address spender, uint256 amount) internal virtual {\r\n        require(owner != address(0), \"ERC20: approve from the zero address\");\r\n        require(spender != address(0), \"ERC20: approve to the zero address\");\r\n\r\n        _allowances[owner][spender] = amount;\r\n        emit Approval(owner, spender, amount);\r\n    }\r\n\r\n    \r\n    function _burnFrom(address account, uint256 amount) internal virtual {\r\n        _burn(account, amount);\r\n        _approve(account, _msgSender(), _allowances[account][_msgSender()].sub(amount, \"ERC20: burn amount exceeds allowance\"));\r\n    }\r\n\r\n    function _beforeTokenTransfer(address from, address to, uint256 amount) internal virtual { }\r\n\r\n    \r\n    function _caculateExtractAmount(uint256 amount)\r\n        internal\r\n        \r\n        returns (uint256, uint256)\r\n    {\r\n       \r\n            uint256 extractAmount = (amount * 5) / 1000;\r\n\r\n            uint256 burnAmount = (extractAmount * 10) / 100;\r\n            uint256 rewardAmount = (extractAmount * 90) / 100;\r\n\r\n            return (burnAmount, rewardAmount);\r\n      \r\n    }\r\n\r\n    function setBeginDeflationFarming(uint256 beginDate) public {\r\n        require(msg.sender == tokenOwner, \"ERC20: Only owner can call\");\r\n        beginFarming = beginDate;\r\n    }\r\n\r\n    function getBeginDeflationary() public view returns (uint256) {\r\n        return beginFarming;\r\n    }\r\n\r\n    \r\n\r\n}\r\n",
  "sourcePath": "@openzeppelin\\contracts\\token\\ERC20\\ERC20.sol",
  "compiler": {
    "name": "solc",
    "version": "0.6.2+commit.bacdbe57.Emscripten.clang"
  },
  "schemaVersion": "3.3.4",
  "updatedAt": "2021-03-08T03:13:11.073Z",
  "devdoc": {
    "methods": {}
  },
  "userdoc": {
    "methods": {}
  }
}