{
  "contractName": "MasterFarm",
  "abi": [
    {
      "inputs": [],
      "stateMutability": "nonpayable",
      "type": "constructor"
    },
    {
      "inputs": [],
      "name": "name",
      "outputs": [
        {
          "internalType": "string",
          "name": "",
          "type": "string"
        }
      ],
      "stateMutability": "view",
      "type": "function"
    },
    {
      "inputs": [],
      "name": "uniswapRouter",
      "outputs": [
        {
          "internalType": "contract IUniswapV2Router02",
          "name": "",
          "type": "address"
        }
      ],
      "stateMutability": "view",
      "type": "function"
    },
    {
      "stateMutability": "payable",
      "type": "receive"
    },
    {
      "inputs": [
        {
          "internalType": "uint256",
          "name": "lpAmount",
          "type": "uint256"
        }
      ],
      "name": "getEstimatedLPETH_PBRforPBR",
      "outputs": [
        {
          "internalType": "uint256[]",
          "name": "",
          "type": "uint256[]"
        }
      ],
      "stateMutability": "view",
      "type": "function"
    }
  ],
  "bytecode": "0x60806040526040518060600160405280602181526020016107a06021913960009080519060200190610032929190610185565b50730d6ae2a429df13e44a07cd2969e085e4833f64a0600360006101000a81548173ffffffffffffffffffffffffffffffffffffffff021916908373ffffffffffffffffffffffffffffffffffffffff16021790555073e45bcdd0331b8fe947e44ae9db7828d8e160e2be600460006101000a81548173ffffffffffffffffffffffffffffffffffffffff021916908373ffffffffffffffffffffffffffffffffffffffff1602179055503480156100e957600080fd5b5033600160006101000a81548173ffffffffffffffffffffffffffffffffffffffff021916908373ffffffffffffffffffffffffffffffffffffffff160217905550737a250d5630b4cf539739df2c5dacb4c659f2488d600260006101000a81548173ffffffffffffffffffffffffffffffffffffffff021916908373ffffffffffffffffffffffffffffffffffffffff16021790555061022a565b828054600181600116156101000203166002900490600052602060002090601f016020900481019282601f106101c657805160ff19168380011785556101f4565b828001600101855582156101f4579182015b828111156101f35782518255916020019190600101906101d8565b5b5090506102019190610205565b5090565b61022791905b8082111561022357600081600090555060010161020b565b5090565b90565b610567806102396000396000f3fe6080604052600436106100385760003560e01c806306fdde0314610044578063735de9f7146100d4578063cd4c6cc21461012b5761003f565b3661003f57005b600080fd5b34801561005057600080fd5b506100596101bb565b6040518080602001828103825283818151815260200191508051906020019080838360005b8381101561009957808201518184015260208101905061007e565b50505050905090810190601f1680156100c65780820380516001836020036101000a031916815260200191505b509250505060405180910390f35b3480156100e057600080fd5b506100e9610259565b604051808273ffffffffffffffffffffffffffffffffffffffff1673ffffffffffffffffffffffffffffffffffffffff16815260200191505060405180910390f35b34801561013757600080fd5b506101646004803603602081101561014e57600080fd5b810190808035906020019092919050505061027f565b6040518080602001828103825283818151815260200191508051906020019060200280838360005b838110156101a757808201518184015260208101905061018c565b505050509050019250505060405180910390f35b60008054600181600116156101000203166002900480601f0160208091040260200160405190810160405280929190818152602001828054600181600116156101000203166002900480156102515780601f1061022657610100808354040283529160200191610251565b820191906000526020600020905b81548152906001019060200180831161023457829003601f168201915b505050505081565b600260009054906101000a900473ffffffffffffffffffffffffffffffffffffffff1681565b6060600260009054906101000a900473ffffffffffffffffffffffffffffffffffffffff1673ffffffffffffffffffffffffffffffffffffffff16631f00ca74836102c8610420565b6040518363ffffffff1660e01b81526004018083815260200180602001828103825283818151815260200191508051906020019060200280838360005b83811015610320578082015181840152602081019050610305565b50505050905001935050505060006040518083038186803b15801561034457600080fd5b505afa158015610358573d6000803e3d6000fd5b505050506040513d6000823e3d601f19601f82011682018060405250602081101561038257600080fd5b81019080805160405193929190846401000000008211156103a257600080fd5b838201915060208201858111156103b857600080fd5b82518660208202830111640100000000821117156103d557600080fd5b8083526020830192505050908051906020019060200280838360005b8381101561040c5780820151818401526020810190506103f1565b505050509050016040525050509050919050565b60608060026040519080825280602002602001820160405280156104535781602001602082028038833980820191505090505b509050600460009054906101000a900473ffffffffffffffffffffffffffffffffffffffff168160008151811061048657fe5b602002602001019073ffffffffffffffffffffffffffffffffffffffff16908173ffffffffffffffffffffffffffffffffffffffff1681525050600360009054906101000a900473ffffffffffffffffffffffffffffffffffffffff16816001815181106104f057fe5b602002602001019073ffffffffffffffffffffffffffffffffffffffff16908173ffffffffffffffffffffffffffffffffffffffff1681525050809150509056fea2646970667358221220c4a2ea4040aec0670f4ab51e1463b17d19716c49d19d6cfa7c1131d379b7222464736f6c63430006020033506f6c6b614272696467653a204465666c6174696f6e617279204661726d696e67",
  "source": "pragma solidity >=0.6.0;\r\n\r\nimport \"@openzeppelin/contracts/math/SafeMath.sol\";\r\n// import \"@chainlink/contracts/src/v0.6/interfaces/AggregatorV3Interface.sol\";\r\nimport \"@openzeppelin/contracts/token/ERC20/ERC20.sol\";\r\nimport \"@uniswap/v2-periphery/contracts/interfaces/IUniswapV2Router02.sol\";\r\n\r\ncontract MasterFarm {\r\n    using SafeMath for uint256;\r\n    using SafeMath for uint16;\r\n\r\n    //using ERC20 for IERC20;\r\n\r\n    string public name = \"PolkaBridge: Deflationary Farming\";\r\n    address payable private owner;\r\n    //AggregatorV3Interface internal priceFeed;\r\n    address internal constant UNISWAP_ROUTER_ADDRESS =\r\n        0x7a250d5630B4cF539739dF2C5dAcb4c659F2488D;\r\n\r\n    IUniswapV2Router02 public uniswapRouter;\r\n    address private PBRKinbery = 0x0D6ae2a429df13e44A07Cd2969E085e4833f64A0;\r\n    address private ETHPBRKinbery = 0xE45BCdd0331B8Fe947e44Ae9db7828D8e160E2Be;\r\n\r\n    uint16 constant TotalBlockPerDay = 7500;\r\n    uint256 constant AvgRewardPerBlock = 500000000000000000; //0.5\r\n    uint256 constant TimeInYear = 31536000;\r\n    mapping(uint16 => uint256) Totalrewardclaimed;\r\n\r\n    struct User {\r\n        uint256 BeginTime;\r\n        uint256 EndTime;\r\n        uint16 BeginBlock;\r\n        uint16 EndBlock;\r\n        uint256 TotalClaimReward;\r\n        uint256 TotalLPDeposit;\r\n        uint256 CurrentTokenFarm;\r\n    }\r\n\r\n    struct Pool {\r\n        uint16 PoolId;\r\n        string PoolName;\r\n        uint256 BeginDate;\r\n        uint256 EndDate;\r\n        address MainToken;\r\n        address BaseToken;\r\n    }\r\n\r\n    constructor() public {\r\n        owner = msg.sender;\r\n        uniswapRouter = IUniswapV2Router02(UNISWAP_ROUTER_ADDRESS);\r\n        // priceFeed = AggregatorV3Interface(\r\n        //     0x8A753747A1Fa494EC906cE90E9f37563A8AF630e\r\n        // ); //eth usd ob Ribiky\r\n    }\r\n\r\n    function getEstimatedLPETH_PBRforPBR(uint256 lpAmount)\r\n        public\r\n        view\r\n        returns (uint256[] memory)\r\n    {\r\n        return uniswapRouter.getAmountsIn(lpAmount, getPathForLPETH_PBRToPBR());\r\n    }\r\n\r\n    function getPathForLPETH_PBRToPBR()\r\n        private\r\n        view\r\n        returns (address[] memory)\r\n    {\r\n        address[] memory path = new address[](2);\r\n        path[0] = ETHPBRKinbery;\r\n        path[1] = PBRKinbery;\r\n\r\n        return path;\r\n    }\r\n\r\n    // function getLatestPrice() public view returns (int256) {\r\n    //     (\r\n    //         uint80 roundID,\r\n    //         int256 price,\r\n    //         uint256 startedAt,\r\n    //         uint256 timeStamp,\r\n    //         uint80 answeredInRound\r\n    //     ) = priceFeed.latestRoundData();\r\n    //     return price;\r\n    // }\r\n\r\n    receive() external payable {}\r\n}\r\n",
  "sourcePath": "C:/Users/thanhphi/Desktop/PolkaBridgeSolution/farming-app/contracts/MasterFarm.sol",
  "compiler": {
    "name": "solc",
    "version": "0.6.2+commit.bacdbe57.Emscripten.clang"
  },
  "schemaVersion": "3.3.3",
  "updatedAt": "2021-02-27T18:19:59.174Z",
  "devdoc": {
    "methods": {}
  },
  "userdoc": {
    "methods": {}
  }
}