{
  "contractName": "PolkaBridgeMasterFarm",
  "abi": [
    {
      "inputs": [
        {
          "internalType": "contract PolkaBridge",
          "name": "_polkaBridge",
          "type": "address"
        },
        {
          "internalType": "uint256",
          "name": "_startBlock",
          "type": "uint256"
        }
      ],
      "stateMutability": "nonpayable",
      "type": "constructor"
    },
    {
      "anonymous": false,
      "inputs": [
        {
          "indexed": true,
          "internalType": "address",
          "name": "previousOwner",
          "type": "address"
        },
        {
          "indexed": true,
          "internalType": "address",
          "name": "newOwner",
          "type": "address"
        }
      ],
      "name": "OwnershipTransferred",
      "type": "event"
    },
    {
      "inputs": [],
      "name": "START_BLOCK",
      "outputs": [
        {
          "internalType": "uint256",
          "name": "",
          "type": "uint256"
        }
      ],
      "stateMutability": "view",
      "type": "function"
    },
    {
      "inputs": [],
      "name": "isOwner",
      "outputs": [
        {
          "internalType": "bool",
          "name": "",
          "type": "bool"
        }
      ],
      "stateMutability": "view",
      "type": "function"
    },
    {
      "inputs": [],
      "name": "name",
      "outputs": [
        {
          "internalType": "string",
          "name": "",
          "type": "string"
        }
      ],
      "stateMutability": "view",
      "type": "function"
    },
    {
      "inputs": [],
      "name": "owner",
      "outputs": [
        {
          "internalType": "address",
          "name": "",
          "type": "address"
        }
      ],
      "stateMutability": "view",
      "type": "function"
    },
    {
      "inputs": [],
      "name": "polkaBridge",
      "outputs": [
        {
          "internalType": "contract PolkaBridge",
          "name": "",
          "type": "address"
        }
      ],
      "stateMutability": "view",
      "type": "function"
    },
    {
      "inputs": [
        {
          "internalType": "address",
          "name": "",
          "type": "address"
        }
      ],
      "name": "poolId1",
      "outputs": [
        {
          "internalType": "uint256",
          "name": "",
          "type": "uint256"
        }
      ],
      "stateMutability": "view",
      "type": "function"
    },
    {
      "inputs": [
        {
          "internalType": "uint256",
          "name": "",
          "type": "uint256"
        }
      ],
      "name": "poolInfo",
      "outputs": [
        {
          "internalType": "contract IERC20",
          "name": "lpToken",
          "type": "address"
        },
        {
          "internalType": "uint256",
          "name": "lastPoolReward",
          "type": "uint256"
        },
        {
          "internalType": "uint256",
          "name": "lastRewardBlock",
          "type": "uint256"
        },
        {
          "internalType": "uint256",
          "name": "lastLPBalance",
          "type": "uint256"
        },
        {
          "internalType": "uint256",
          "name": "accPBRPerShare",
          "type": "uint256"
        },
        {
          "internalType": "uint256",
          "name": "startDate",
          "type": "uint256"
        },
        {
          "internalType": "uint256",
          "name": "stopDate",
          "type": "uint256"
        },
        {
          "internalType": "uint256",
          "name": "totalRewardClaimed",
          "type": "uint256"
        },
        {
          "internalType": "bool",
          "name": "isActived",
          "type": "bool"
        }
      ],
      "stateMutability": "view",
      "type": "function"
    },
    {
      "inputs": [],
      "name": "renounceOwnership",
      "outputs": [],
      "stateMutability": "nonpayable",
      "type": "function"
    },
    {
      "inputs": [
        {
          "internalType": "address",
          "name": "newOwner",
          "type": "address"
        }
      ],
      "name": "transferOwnership",
      "outputs": [],
      "stateMutability": "nonpayable",
      "type": "function"
    },
    {
      "inputs": [
        {
          "internalType": "uint256",
          "name": "",
          "type": "uint256"
        },
        {
          "internalType": "address",
          "name": "",
          "type": "address"
        }
      ],
      "name": "userInfo",
      "outputs": [
        {
          "internalType": "uint256",
          "name": "amountLP",
          "type": "uint256"
        },
        {
          "internalType": "uint256",
          "name": "rewardDebt",
          "type": "uint256"
        },
        {
          "internalType": "uint256",
          "name": "rewardDebtAtBlock",
          "type": "uint256"
        },
        {
          "internalType": "uint256",
          "name": "rewardClaimed",
          "type": "uint256"
        }
      ],
      "stateMutability": "view",
      "type": "function"
    },
    {
      "stateMutability": "payable",
      "type": "receive"
    },
    {
      "inputs": [],
      "name": "poolBalance",
      "outputs": [
        {
          "internalType": "uint256",
          "name": "",
          "type": "uint256"
        }
      ],
      "stateMutability": "view",
      "type": "function"
    },
    {
      "inputs": [
        {
          "internalType": "contract IERC20",
          "name": "_lpToken",
          "type": "address"
        },
        {
          "internalType": "uint256",
          "name": "_startDate",
          "type": "uint256"
        }
      ],
      "name": "add",
      "outputs": [],
      "stateMutability": "nonpayable",
      "type": "function"
    },
    {
      "inputs": [],
      "name": "getChangePoolReward",
      "outputs": [
        {
          "internalType": "uint256",
          "name": "",
          "type": "uint256"
        }
      ],
      "stateMutability": "view",
      "type": "function"
    },
    {
      "inputs": [],
      "name": "massUpdatePools",
      "outputs": [],
      "stateMutability": "nonpayable",
      "type": "function"
    },
    {
      "inputs": [],
      "name": "getTotalLastPoolReward",
      "outputs": [
        {
          "internalType": "uint256",
          "name": "",
          "type": "uint256"
        }
      ],
      "stateMutability": "view",
      "type": "function"
    },
    {
      "inputs": [
        {
          "internalType": "uint256",
          "name": "_pid",
          "type": "uint256"
        },
        {
          "internalType": "address",
          "name": "_user",
          "type": "address"
        }
      ],
      "name": "pendingReward",
      "outputs": [
        {
          "internalType": "uint256",
          "name": "",
          "type": "uint256"
        }
      ],
      "stateMutability": "view",
      "type": "function"
    },
    {
      "inputs": [
        {
          "internalType": "uint256",
          "name": "_pid",
          "type": "uint256"
        }
      ],
      "name": "claimReward",
      "outputs": [],
      "stateMutability": "nonpayable",
      "type": "function"
    },
    {
      "inputs": [
        {
          "internalType": "uint256",
          "name": "_pid",
          "type": "uint256"
        },
        {
          "internalType": "uint256",
          "name": "_amount",
          "type": "uint256"
        }
      ],
      "name": "deposit",
      "outputs": [],
      "stateMutability": "nonpayable",
      "type": "function"
    },
    {
      "inputs": [
        {
          "internalType": "uint256",
          "name": "_pid",
          "type": "uint256"
        },
        {
          "internalType": "uint256",
          "name": "_amount",
          "type": "uint256"
        }
      ],
      "name": "withdraw",
      "outputs": [],
      "stateMutability": "nonpayable",
      "type": "function"
    },
    {
      "inputs": [
        {
          "internalType": "uint256",
          "name": "_pid",
          "type": "uint256"
        }
      ],
      "name": "emergencyWithdraw",
      "outputs": [],
      "stateMutability": "nonpayable",
      "type": "function"
    },
    {
      "inputs": [
        {
          "internalType": "uint256",
          "name": "_pid",
          "type": "uint256"
        }
      ],
      "name": "getPoolInfo",
      "outputs": [
        {
          "internalType": "uint256",
          "name": "",
          "type": "uint256"
        },
        {
          "internalType": "address",
          "name": "",
          "type": "address"
        },
        {
          "internalType": "uint256",
          "name": "",
          "type": "uint256"
        },
        {
          "internalType": "uint256",
          "name": "",
          "type": "uint256"
        },
        {
          "internalType": "uint256",
          "name": "",
          "type": "uint256"
        },
        {
          "internalType": "bool",
          "name": "",
          "type": "bool"
        },
        {
          "internalType": "uint256",
          "name": "",
          "type": "uint256"
        }
      ],
      "stateMutability": "view",
      "type": "function"
    },
    {
      "inputs": [
        {
          "internalType": "uint256",
          "name": "_pid",
          "type": "uint256"
        }
      ],
      "name": "getUserInfo",
      "outputs": [
        {
          "internalType": "uint256",
          "name": "",
          "type": "uint256"
        },
        {
          "internalType": "uint256",
          "name": "",
          "type": "uint256"
        },
        {
          "internalType": "uint256",
          "name": "",
          "type": "uint256"
        }
      ],
      "stateMutability": "view",
      "type": "function"
    },
    {
      "inputs": [
        {
          "internalType": "uint256",
          "name": "pid",
          "type": "uint256"
        }
      ],
      "name": "stopPool",
      "outputs": [],
      "stateMutability": "nonpayable",
      "type": "function"
    },
    {
      "inputs": [],
      "name": "countActivePool",
      "outputs": [
        {
          "internalType": "uint256",
          "name": "",
          "type": "uint256"
        }
      ],
      "stateMutability": "view",
      "type": "function"
    }
  ],
  "bytecode": "0x608060405260405180606001604052806021815260200162002dcb6021913960019080519060200190620000359291906200018c565b503480156200004357600080fd5b5060405162002dec38038062002dec833981810160405260408110156200006957600080fd5b8101908080519060200190929190805190602001909291905050506000620000966200018460201b60201c565b9050806000806101000a81548173ffffffffffffffffffffffffffffffffffffffff021916908373ffffffffffffffffffffffffffffffffffffffff1602179055508073ffffffffffffffffffffffffffffffffffffffff16600073ffffffffffffffffffffffffffffffffffffffff167f8be0079c531659141344cd1fd0a4f28419497f9722a3daafe3b4186f6b6457e060405160405180910390a35081600260006101000a81548173ffffffffffffffffffffffffffffffffffffffff021916908373ffffffffffffffffffffffffffffffffffffffff1602179055508060038190555050506200023b565b600033905090565b828054600181600116156101000203166002900490600052602060002090601f016020900481019282601f10620001cf57805160ff191683800117855562000200565b8280016001018555821562000200579182015b82811115620001ff578251825591602001919060010190620001e2565b5b5090506200020f919062000213565b5090565b6200023891905b80821115620002345760008160009055506001016200021a565b5090565b90565b612b80806200024b6000396000f3fe60806040526004361061014f5760003560e01c80638f32d59b116100b6578063c647e31f1161006f578063c647e31f146106eb578063ce2529c914610716578063d379dadf1461077b578063e2bbb158146107d8578063f2fde38b1461081d578063f5d82b6b1461086e57610156565b80638f32d59b1461053857806393f1a40b1461056757806396365d44146105eb57806398969e8214610616578063a132c2dd14610685578063ae169a50146106b057610156565b80635312ea8e116101085780635312ea8e146103f6578063630b5ba1146104315780636f55b35014610448578063715018a61461049f57806388f4480b146104b65780638da5cb5b146104e157610156565b806306fdde031461015b5780630f4d0357146101eb5780631526fe27146102265780632f380b35146102dd57806339b3e82614610386578063441a3e70146103b157610156565b3661015657005b600080fd5b34801561016757600080fd5b506101706108c9565b6040518080602001828103825283818151815260200191508051906020019080838360005b838110156101b0578082015181840152602081019050610195565b50505050905090810190601f1680156101dd5780820380516001836020036101000a031916815260200191505b509250505060405180910390f35b3480156101f757600080fd5b506102246004803603602081101561020e57600080fd5b8101908080359060200190929190505050610967565b005b34801561023257600080fd5b5061025f6004803603602081101561024957600080fd5b8101908080359060200190929190505050610a2a565b604051808a73ffffffffffffffffffffffffffffffffffffffff1673ffffffffffffffffffffffffffffffffffffffff16815260200189815260200188815260200187815260200186815260200185815260200184815260200183815260200182151515158152602001995050505050505050505060405180910390f35b3480156102e957600080fd5b506103166004803603602081101561030057600080fd5b8101908080359060200190929190505050610ab2565b604051808881526020018773ffffffffffffffffffffffffffffffffffffffff1673ffffffffffffffffffffffffffffffffffffffff1681526020018681526020018581526020018481526020018315151515815260200182815260200197505050505050505060405180910390f35b34801561039257600080fd5b5061039b610cb3565b6040518082815260200191505060405180910390f35b3480156103bd57600080fd5b506103f4600480360360408110156103d457600080fd5b810190808035906020019092919080359060200190929190505050610cb9565b005b34801561040257600080fd5b5061042f6004803603602081101561041957600080fd5b8101908080359060200190929190505050610e85565b005b34801561043d57600080fd5b50610446610f64565b005b34801561045457600080fd5b5061045d610fd8565b604051808273ffffffffffffffffffffffffffffffffffffffff1673ffffffffffffffffffffffffffffffffffffffff16815260200191505060405180910390f35b3480156104ab57600080fd5b506104b4610ffe565b005b3480156104c257600080fd5b506104cb611137565b6040518082815260200191505060405180910390f35b3480156104ed57600080fd5b506104f66111a0565b604051808273ffffffffffffffffffffffffffffffffffffffff1673ffffffffffffffffffffffffffffffffffffffff16815260200191505060405180910390f35b34801561054457600080fd5b5061054d6111c9565b604051808215151515815260200191505060405180910390f35b34801561057357600080fd5b506105c06004803603604081101561058a57600080fd5b8101908080359060200190929190803573ffffffffffffffffffffffffffffffffffffffff169060200190929190505050611227565b6040518085815260200184815260200183815260200182815260200194505050505060405180910390f35b3480156105f757600080fd5b50610600611264565b6040518082815260200191505060405180910390f35b34801561062257600080fd5b5061066f6004803603604081101561063957600080fd5b8101908080359060200190929190803573ffffffffffffffffffffffffffffffffffffffff169060200190929190505050611345565b6040518082815260200191505060405180910390f35b34801561069157600080fd5b5061069a611577565b6040518082815260200191505060405180910390f35b3480156106bc57600080fd5b506106e9600480360360208110156106d357600080fd5b81019080803590602001909291905050506115b7565b005b3480156106f757600080fd5b506107006115fb565b6040518082815260200191505060405180910390f35b34801561072257600080fd5b506107656004803603602081101561073957600080fd5b81019080803573ffffffffffffffffffffffffffffffffffffffff169060200190929190505050611681565b6040518082815260200191505060405180910390f35b34801561078757600080fd5b506107b46004803603602081101561079e57600080fd5b8101908080359060200190929190505050611699565b60405180848152602001838152602001828152602001935050505060405180910390f35b3480156107e457600080fd5b5061081b600480360360408110156107fb57600080fd5b810190808035906020019092919080359060200190929190505050611748565b005b34801561082957600080fd5b5061086c6004803603602081101561084057600080fd5b81019080803573ffffffffffffffffffffffffffffffffffffffff1690602001909291905050506118f0565b005b34801561087a57600080fd5b506108c76004803603604081101561089157600080fd5b81019080803573ffffffffffffffffffffffffffffffffffffffff16906020019092919080359060200190929190505050611976565b005b60018054600181600116156101000203166002900480601f01602080910402602001604051908101604052809291908181526020018280546001816001161561010002031660029004801561095f5780601f106109345761010080835404028352916020019161095f565b820191906000526020600020905b81548152906001019060200180831161094257829003601f168201915b505050505081565b61096f6111c9565b6109e1576040517f08c379a00000000000000000000000000000000000000000000000000000000081526004018080602001828103825260208152602001807f4f776e61626c653a2063616c6c6572206973206e6f7420746865206f776e657281525060200191505060405180910390fd5b6000600482815481106109f057fe5b9060005260206000209060090201905060008160080160006101000a81548160ff0219169083151502179055504281600601819055505050565b60048181548110610a3757fe5b90600052602060002090600902016000915090508060000160009054906101000a900473ffffffffffffffffffffffffffffffffffffffff16908060010154908060020154908060030154908060040154908060050154908060060154908060070154908060080160009054906101000a900460ff16905089565b600080600080600080600060048881548110610aca57fe5b90600052602060002090600902016002015460048981548110610ae957fe5b906000526020600020906009020160000160009054906101000a900473ffffffffffffffffffffffffffffffffffffffff1660048a81548110610b2857fe5b90600052602060002090600902016001015460048b81548110610b4757fe5b90600052602060002090600902016005015460048c81548110610b6657fe5b90600052602060002090600902016004015460048d81548110610b8557fe5b906000526020600020906009020160080160009054906101000a900460ff1660048e81548110610bb157fe5b906000526020600020906009020160000160009054906101000a900473ffffffffffffffffffffffffffffffffffffffff1673ffffffffffffffffffffffffffffffffffffffff166370a08231306040518263ffffffff1660e01b8152600401808273ffffffffffffffffffffffffffffffffffffffff1673ffffffffffffffffffffffffffffffffffffffff16815260200191505060206040518083038186803b158015610c5f57600080fd5b505afa158015610c73573d6000803e3d6000fd5b505050506040513d6020811015610c8957600080fd5b81019080805190602001909291905050509650965096509650965096509650919395979092949650565b60035481565b600060048381548110610cc857fe5b9060005260206000209060090201905060006006600085815260200190815260200160002060003373ffffffffffffffffffffffffffffffffffffffff1673ffffffffffffffffffffffffffffffffffffffff16815260200190815260200160002090508281600001541015610d89576040517f08c379a000000000000000000000000000000000000000000000000000000000815260040180806020018281038252602b815260200180612a3f602b913960400191505060405180910390fd5b6000831115610e7f57610d9a610f64565b6000610da585611c31565b9050610df633858560000160009054906101000a900473ffffffffffffffffffffffffffffffffffffffff1673ffffffffffffffffffffffffffffffffffffffff16611e869092919063ffffffff16565b610e0d848360000154611f3e90919063ffffffff16565b8260000181905550610e4a670de0b6b3a7640000610e3c85600401548560000154611f8890919063ffffffff16565b61200e90919063ffffffff16565b8260010181905550610e7d85827fffffffffffffffffffffffffffffffffffffffffffffffffffffffffffffffff612058565b505b50505050565b600060048281548110610e9457fe5b9060005260206000209060090201905060006006600084815260200190815260200160002060003373ffffffffffffffffffffffffffffffffffffffff1673ffffffffffffffffffffffffffffffffffffffff1681526020019081526020016000209050610f4b3382600001548460000160009054906101000a900473ffffffffffffffffffffffffffffffffffffffff1673ffffffffffffffffffffffffffffffffffffffff16611e869092919063ffffffff16565b6000816000018190555060008160010181905550505050565b600060048054905090506000610f78611577565b905060008090505b82811015610fd35760048181548110610f9557fe5b906000526020600020906009020160080160009054906101000a900460ff1615610fc657610fc581836001612058565b5b8080600101915050610f80565b505050565b600260009054906101000a900473ffffffffffffffffffffffffffffffffffffffff1681565b6110066111c9565b611078576040517f08c379a00000000000000000000000000000000000000000000000000000000081526004018080602001828103825260208152602001807f4f776e61626c653a2063616c6c6572206973206e6f7420746865206f776e657281525060200191505060405180910390fd5b600073ffffffffffffffffffffffffffffffffffffffff166000809054906101000a900473ffffffffffffffffffffffffffffffffffffffff1673ffffffffffffffffffffffffffffffffffffffff167f8be0079c531659141344cd1fd0a4f28419497f9722a3daafe3b4186f6b6457e060405160405180910390a360008060006101000a81548173ffffffffffffffffffffffffffffffffffffffff021916908373ffffffffffffffffffffffffffffffffffffffff160217905550565b6000806000905060008090505b600480549050811015611198576004818154811061115e57fe5b906000526020600020906009020160080160009054906101000a900460ff161561118b5781806001019250505b8080600101915050611144565b508091505090565b60008060009054906101000a900473ffffffffffffffffffffffffffffffffffffffff16905090565b60008060009054906101000a900473ffffffffffffffffffffffffffffffffffffffff1673ffffffffffffffffffffffffffffffffffffffff1661120b612339565b73ffffffffffffffffffffffffffffffffffffffff1614905090565b6006602052816000526040600020602052806000526040600020600091509150508060000154908060010154908060020154908060030154905084565b6000600260009054906101000a900473ffffffffffffffffffffffffffffffffffffffff1673ffffffffffffffffffffffffffffffffffffffff166370a08231306040518263ffffffff1660e01b8152600401808273ffffffffffffffffffffffffffffffffffffffff1673ffffffffffffffffffffffffffffffffffffffff16815260200191505060206040518083038186803b15801561130557600080fd5b505afa158015611319573d6000803e3d6000fd5b505050506040513d602081101561132f57600080fd5b8101908080519060200190929190505050905090565b6000806004848154811061135557fe5b9060005260206000209060090201905060006006600086815260200190815260200160002060008573ffffffffffffffffffffffffffffffffffffffff1673ffffffffffffffffffffffffffffffffffffffff168152602001908152602001600020905060008260040154905060008360000160009054906101000a900473ffffffffffffffffffffffffffffffffffffffff1673ffffffffffffffffffffffffffffffffffffffff166370a08231306040518263ffffffff1660e01b8152600401808273ffffffffffffffffffffffffffffffffffffffff1673ffffffffffffffffffffffffffffffffffffffff16815260200191505060206040518083038186803b15801561146557600080fd5b505afa158015611479573d6000803e3d6000fd5b505050506040513d602081101561148f57600080fd5b8101908080519060200190929190505050905060008460020154431180156114b75750600082115b15611509576115066114f3836114e5670de0b6b3a76400006114d7611577565b611f8890919063ffffffff16565b61200e90919063ffffffff16565b866004015461234190919063ffffffff16565b90505b61156a670de0b6b3a764000061155c611537670de0b6b3a76400008860010154611f8890919063ffffffff16565b61154e858960000154611f8890919063ffffffff16565b611f3e90919063ffffffff16565b61200e90919063ffffffff16565b9550505050505092915050565b600080611582611137565b905060008161158f6115fb565b611597611264565b038161159f57fe5b049050600081116115af57600090505b809250505090565b6115bf610f64565b60006115ca82611c31565b90506115f782827fffffffffffffffffffffffffffffffffffffffffffffffffffffffffffffffff612058565b5050565b6000806000600480549050905060008090505b81811015611678576004818154811061162357fe5b906000526020600020906009020160080160009054906101000a900460ff161561166b576004818154811061165457fe5b906000526020600020906009020160010154830192505b808060010191505061160e565b50819250505090565b60056020528060005260406000206000915090505481565b60008060006116a6612a16565b6006600086815260200190815260200160002060003373ffffffffffffffffffffffffffffffffffffffff1673ffffffffffffffffffffffffffffffffffffffff1681526020019081526020016000206040518060800160405290816000820154815260200160018201548152602001600282015481526020016003820154815250509050806000015181602001518260600151935093509350509193909250565b600081116117a1576040517f08c379a000000000000000000000000000000000000000000000000000000000815260040180806020018281038252603f815260200180612a6a603f913960400191505060405180910390fd5b6000600483815481106117b057fe5b9060005260206000209060090201905060006006600085815260200190815260200160002060003373ffffffffffffffffffffffffffffffffffffffff1673ffffffffffffffffffffffffffffffffffffffff16815260200190815260200160002090506118653330858560000160009054906101000a900473ffffffffffffffffffffffffffffffffffffffff1673ffffffffffffffffffffffffffffffffffffffff166123c9909392919063ffffffff16565b61186d610f64565b61187684611c31565b5060008160000154141561188e574381600201819055505b6118a583826000015461234190919063ffffffff16565b81600001819055506118e2670de0b6b3a76400006118d484600401548460000154611f8890919063ffffffff16565b61200e90919063ffffffff16565b816001018190555050505050565b6118f86111c9565b61196a576040517f08c379a00000000000000000000000000000000000000000000000000000000081526004018080602001828103825260208152602001807f4f776e61626c653a2063616c6c6572206973206e6f7420746865206f776e657281525060200191505060405180910390fd5b611973816124b6565b50565b61197e6111c9565b6119f0576040517f08c379a00000000000000000000000000000000000000000000000000000000081526004018080602001828103825260208152602001807f4f776e61626c653a2063616c6c6572206973206e6f7420746865206f776e657281525060200191505060405180910390fd5b6000600560008473ffffffffffffffffffffffffffffffffffffffff1673ffffffffffffffffffffffffffffffffffffffff1681526020019081526020016000205414611a88576040517f08c379a0000000000000000000000000000000000000000000000000000000008152600401808060200182810382526031815260200180612acf6031913960400191505060405180910390fd5b60006003544311611a9b57600354611a9d565b435b9050600160048054905001600560008573ffffffffffffffffffffffffffffffffffffffff1673ffffffffffffffffffffffffffffffffffffffff1681526020019081526020016000208190555060046040518061012001604052808573ffffffffffffffffffffffffffffffffffffffff168152602001600081526020018381526020016000815260200160008152602001848152602001600081526020016000815260200160011515815250908060018154018082558091505060019003906000526020600020906009020160009091909190915060008201518160000160006101000a81548173ffffffffffffffffffffffffffffffffffffffff021916908373ffffffffffffffffffffffffffffffffffffffff1602179055506020820151816001015560408201518160020155606082015181600301556080820151816004015560a0820151816005015560c0820151816006015560e082015181600701556101008201518160080160006101000a81548160ff0219169083151502179055505050611c2c610f64565b505050565b60008060048381548110611c4157fe5b9060005260206000209060090201905060006006600085815260200190815260200160002060003373ffffffffffffffffffffffffffffffffffffffff1673ffffffffffffffffffffffffffffffffffffffff168152602001908152602001600020905060008082600001541115611e7b57611d18670de0b6b3a7640000611d0a611ce1670de0b6b3a76400008660010154611f8890919063ffffffff16565b611cfc87600401548760000154611f8890919063ffffffff16565b611f3e90919063ffffffff16565b61200e90919063ffffffff16565b90506000611d24611264565b905080821115611d32578091505b6000821115611e2a57600260009054906101000a900473ffffffffffffffffffffffffffffffffffffffff1673ffffffffffffffffffffffffffffffffffffffff1663a9059cbb33846040518363ffffffff1660e01b8152600401808373ffffffffffffffffffffffffffffffffffffffff1673ffffffffffffffffffffffffffffffffffffffff16815260200182815260200192505050602060405180830381600087803b158015611de457600080fd5b505af1158015611df8573d6000803e3d6000fd5b505050506040513d6020811015611e0e57600080fd5b8101908080519060200190929190505050504383600201819055505b611e5f670de0b6b3a7640000611e5186600401548660000154611f8890919063ffffffff16565b61200e90919063ffffffff16565b8360010181905550818360030160008282540192505081905550505b809350505050919050565b611f398363a9059cbb60e01b8484604051602401808373ffffffffffffffffffffffffffffffffffffffff1673ffffffffffffffffffffffffffffffffffffffff16815260200182815260200192505050604051602081830303815290604052907bffffffffffffffffffffffffffffffffffffffffffffffffffffffff19166020820180517bffffffffffffffffffffffffffffffffffffffffffffffffffffffff83818316178352505050506125fa565b505050565b6000611f8083836040518060400160405280601e81526020017f536166654d6174683a207375627472616374696f6e206f766572666c6f770000815250612845565b905092915050565b600080831415611f9b5760009050612008565b6000828402905082848281611fac57fe5b0414612003576040517f08c379a0000000000000000000000000000000000000000000000000000000008152600401808060200182810382526021815260200180612b006021913960400191505060405180910390fd5b809150505b92915050565b600061205083836040518060400160405280601a81526020017f536166654d6174683a206469766973696f6e206279207a65726f000000000000815250612905565b905092915050565b60006004848154811061206757fe5b90600052602060002090600902019050806002015443116120885750612334565b60008160030154905060008114156121c5576121b86121a58360000160009054906101000a900473ffffffffffffffffffffffffffffffffffffffff1673ffffffffffffffffffffffffffffffffffffffff166370a08231306040518263ffffffff1660e01b8152600401808273ffffffffffffffffffffffffffffffffffffffff1673ffffffffffffffffffffffffffffffffffffffff16815260200191505060206040518083038186803b15801561214157600080fd5b505afa158015612155573d6000803e3d6000fd5b505050506040513d602081101561216b57600080fd5b8101908080519060200190929190505050612197670de0b6b3a764000088611f8890919063ffffffff16565b61200e90919063ffffffff16565b836004015461234190919063ffffffff16565b8260040181905550612211565b6122086121f5826121e7670de0b6b3a764000088611f8890919063ffffffff16565b61200e90919063ffffffff16565b836004015461234190919063ffffffff16565b82600401819055505b438260020181905550600183141561223a5783826001016000828254019250508190555061224d565b8382600101600082825403925050819055505b8160000160009054906101000a900473ffffffffffffffffffffffffffffffffffffffff1673ffffffffffffffffffffffffffffffffffffffff166370a08231306040518263ffffffff1660e01b8152600401808273ffffffffffffffffffffffffffffffffffffffff1673ffffffffffffffffffffffffffffffffffffffff16815260200191505060206040518083038186803b1580156122ee57600080fd5b505afa158015612302573d6000803e3d6000fd5b505050506040513d602081101561231857600080fd5b8101908080519060200190929190505050826003018190555050505b505050565b600033905090565b6000808284019050838110156123bf576040517f08c379a000000000000000000000000000000000000000000000000000000000815260040180806020018281038252601b8152602001807f536166654d6174683a206164646974696f6e206f766572666c6f77000000000081525060200191505060405180910390fd5b8091505092915050565b6124b0846323b872dd60e01b858585604051602401808473ffffffffffffffffffffffffffffffffffffffff1673ffffffffffffffffffffffffffffffffffffffff1681526020018373ffffffffffffffffffffffffffffffffffffffff1673ffffffffffffffffffffffffffffffffffffffff1681526020018281526020019350505050604051602081830303815290604052907bffffffffffffffffffffffffffffffffffffffffffffffffffffffff19166020820180517bffffffffffffffffffffffffffffffffffffffffffffffffffffffff83818316178352505050506125fa565b50505050565b600073ffffffffffffffffffffffffffffffffffffffff168173ffffffffffffffffffffffffffffffffffffffff16141561253c576040517f08c379a0000000000000000000000000000000000000000000000000000000008152600401808060200182810382526026815260200180612aa96026913960400191505060405180910390fd5b8073ffffffffffffffffffffffffffffffffffffffff166000809054906101000a900473ffffffffffffffffffffffffffffffffffffffff1673ffffffffffffffffffffffffffffffffffffffff167f8be0079c531659141344cd1fd0a4f28419497f9722a3daafe3b4186f6b6457e060405160405180910390a3806000806101000a81548173ffffffffffffffffffffffffffffffffffffffff021916908373ffffffffffffffffffffffffffffffffffffffff16021790555050565b6126198273ffffffffffffffffffffffffffffffffffffffff166129cb565b61268b576040517f08c379a000000000000000000000000000000000000000000000000000000000815260040180806020018281038252601f8152602001807f5361666545524332303a2063616c6c20746f206e6f6e2d636f6e74726163740081525060200191505060405180910390fd5b600060608373ffffffffffffffffffffffffffffffffffffffff16836040518082805190602001908083835b602083106126da57805182526020820191506020810190506020830392506126b7565b6001836020036101000a0380198251168184511680821785525050505050509050019150506000604051808303816000865af19150503d806000811461273c576040519150601f19603f3d011682016040523d82523d6000602084013e612741565b606091505b5091509150816127b9576040517f08c379a00000000000000000000000000000000000000000000000000000000081526004018080602001828103825260208152602001807f5361666545524332303a206c6f772d6c6576656c2063616c6c206661696c656481525060200191505060405180910390fd5b60008151111561283f578080602001905160208110156127d857600080fd5b810190808051906020019092919050505061283e576040517f08c379a000000000000000000000000000000000000000000000000000000000815260040180806020018281038252602a815260200180612b21602a913960400191505060405180910390fd5b5b50505050565b60008383111582906128f2576040517f08c379a00000000000000000000000000000000000000000000000000000000081526004018080602001828103825283818151815260200191508051906020019080838360005b838110156128b757808201518184015260208101905061289c565b50505050905090810190601f1680156128e45780820380516001836020036101000a031916815260200191505b509250505060405180910390fd5b5060008385039050809150509392505050565b600080831182906129b1576040517f08c379a00000000000000000000000000000000000000000000000000000000081526004018080602001828103825283818151815260200191508051906020019080838360005b8381101561297657808201518184015260208101905061295b565b50505050905090810190601f1680156129a35780820380516001836020036101000a031916815260200191505b509250505060405180910390fd5b5060008385816129bd57fe5b049050809150509392505050565b60008060007fc5d2460186f7233c927e7db2dcc703c0e500b653ca82273b7bfad8045d85a47060001b9050833f9150808214158015612a0d57506000801b8214155b92505050919050565b604051806080016040528060008152602001600081526020016000815260200160008152509056fe506f6c6b614272696467654d61737465724661726d65723a3a77697468647261773a206e6f7420676f6f64506f6c6b614272696467654d61737465724661726d65723a3a6465706f7369743a20616d6f756e74206d7573742062652067726561746572207468616e20304f776e61626c653a206e6577206f776e657220697320746865207a65726f2061646472657373506f6c6b614272696467654d61737465724661726d3a3a6164643a206c7020697320616c726561647920696e20706f6f6c536166654d6174683a206d756c7469706c69636174696f6e206f766572666c6f775361666545524332303a204552433230206f7065726174696f6e20646964206e6f742073756363656564a264697066735822122008d7d482d824ccec458726904abb35143456b026e214a9c4cfbf84c7509d00bb64736f6c63430006020033506f6c6b614272696467653a204465666c6174696f6e617279204661726d696e67",
  "source": "pragma solidity >=0.6.0;\r\n\r\nimport \"@openzeppelin/contracts/token/ERC20/SafeERC20.sol\";\r\nimport \"@openzeppelin/contracts/math/SafeMath.sol\";\r\nimport \"@openzeppelin/contracts/ownership/Ownable.sol\";\r\nimport \"./PolkaBridge.sol\";\r\n\r\n// import \"@chainlink/contracts/src/v0.6/interfaces/AggregatorV3Interface.sol\";\r\n//import \"@openzeppelin/contracts/token/ERC20/ERC20.sol\";\r\n//import \"@uniswap/v2-periphery/contracts/interfaces/IUniswapV2Router02.sol\";\r\n\r\ncontract PolkaBridgeMasterFarm is Ownable {\r\n    string public name = \"PolkaBridge: Deflationary Farming\";\r\n    using SafeMath for uint256;\r\n    using SafeERC20 for IERC20;\r\n\r\n    struct UserInfo {\r\n        uint256 amountLP;\r\n        uint256 rewardDebt;\r\n        uint256 rewardDebtAtBlock;\r\n        uint256 rewardClaimed;\r\n    }\r\n\r\n    struct PoolInfo {\r\n        IERC20 lpToken;\r\n        uint256 lastPoolReward; //history pool reward\r\n        uint256 lastRewardBlock;\r\n        uint256 lastLPBalance;\r\n        uint256 accPBRPerShare;\r\n        uint256 startDate;\r\n        uint256 stopDate;\r\n        uint256 totalRewardClaimed;\r\n        bool isActived;\r\n    }\r\n\r\n    PolkaBridge public polkaBridge;\r\n    uint256 public START_BLOCK;\r\n\r\n    //pool Info\r\n    PoolInfo[] public poolInfo;\r\n    mapping(address => uint256) public poolId1;\r\n    // Info of each user that stakes LP tokens. pid => user address => info\r\n    mapping(uint256 => mapping(address => UserInfo)) public userInfo;\r\n\r\n    constructor(PolkaBridge _polkaBridge, uint256 _startBlock) public {\r\n        polkaBridge = _polkaBridge;\r\n        START_BLOCK = _startBlock;\r\n    }\r\n\r\n    function poolBalance() public view returns (uint256) {\r\n        return polkaBridge.balanceOf(address(this));\r\n    }\r\n\r\n    // Add a new lp to the pool. Can only be called by the owner.\r\n    function add(IERC20 _lpToken, uint256 _startDate) public onlyOwner {\r\n        require(\r\n            poolId1[address(_lpToken)] == 0,\r\n            \"PolkaBridgeMasterFarm::add: lp is already in pool\"\r\n        );\r\n\r\n        uint256 _lastRewardBlock =\r\n            block.number > START_BLOCK ? block.number : START_BLOCK;\r\n\r\n        poolId1[address(_lpToken)] = poolInfo.length + 1;\r\n        poolInfo.push(\r\n            PoolInfo({\r\n                lpToken: _lpToken,\r\n                lastRewardBlock: _lastRewardBlock,\r\n                lastPoolReward: 0,\r\n                lastLPBalance: 0,\r\n                accPBRPerShare: 0,\r\n                startDate: _startDate,\r\n                stopDate: 0,\r\n                totalRewardClaimed: 0,\r\n                isActived: true\r\n            })\r\n        );\r\n\r\n        massUpdatePools();\r\n    }\r\n\r\n    function getChangePoolReward() public view returns (uint256) {\r\n        uint256 numberActivedPool = countActivePool();\r\n        uint256 changePoolReward =\r\n            (poolBalance() - getTotalLastPoolReward()) / numberActivedPool;\r\n        if (changePoolReward <= 0) changePoolReward = 0;\r\n        return changePoolReward;\r\n    }\r\n\r\n    function massUpdatePools() public {\r\n        uint256 length = poolInfo.length;\r\n        uint256 changePoolReward = getChangePoolReward();\r\n        for (uint256 pid = 0; pid < length; pid++) {\r\n            if (poolInfo[pid].isActived) {\r\n                updatePool(pid, changePoolReward,1);\r\n            }\r\n        }\r\n    }\r\n\r\n    function getTotalLastPoolReward() public view returns (uint256) {\r\n        uint256 total;\r\n        uint256 length = poolInfo.length;\r\n        for (uint256 pid = 0; pid < length; pid++) {\r\n            if (poolInfo[pid].isActived) {\r\n                total += poolInfo[pid].lastPoolReward;\r\n            }\r\n        }\r\n        return total;\r\n    }\r\n\r\n    // Update reward variables of the given pool to be up-to-date.\r\n    function updatePool(uint256 _pid, uint256 _changePoolReward,int256 flag) internal {\r\n        PoolInfo storage pool = poolInfo[_pid];\r\n        if (block.number <= pool.lastRewardBlock) {\r\n            return;\r\n        }\r\n        uint256 lpSupply = pool.lastLPBalance;\r\n        if (lpSupply == 0) {\r\n            pool.accPBRPerShare = pool.accPBRPerShare.add(\r\n                (\r\n                    _changePoolReward.mul(1e18).div(\r\n                        pool.lpToken.balanceOf(address(this))\r\n                    )\r\n                )\r\n            );\r\n        } else {\r\n            pool.accPBRPerShare = pool.accPBRPerShare.add(\r\n                (_changePoolReward.mul(1e18).div(lpSupply))\r\n            );\r\n        }\r\n        pool.lastRewardBlock = block.number;\r\n\r\nif(flag==1){\r\npool.lastPoolReward += _changePoolReward;\r\n}\r\nelse{\r\npool.lastPoolReward -= _changePoolReward;\r\n}\r\n        \r\n\r\n\r\n        pool.lastLPBalance = pool.lpToken.balanceOf(address(this));\r\n    }\r\n\r\n    function pendingReward(uint256 _pid, address _user)\r\n        external\r\n        view\r\n        returns (uint256)\r\n    {\r\n        PoolInfo storage pool = poolInfo[_pid];\r\n        UserInfo storage user = userInfo[_pid][_user];\r\n        uint256 accPBRPerShare = pool.accPBRPerShare;\r\n        uint256 lpSupply = pool.lpToken.balanceOf(address(this));\r\n        uint256 temptAccPBRPerShare;\r\n\r\n        if (block.number > pool.lastRewardBlock && lpSupply > 0) {\r\n            temptAccPBRPerShare = pool.accPBRPerShare.add(\r\n                (getChangePoolReward().mul(1e18).div(lpSupply))\r\n            );\r\n        }\r\n\r\n        return\r\n            (\r\n                user.amountLP.mul(temptAccPBRPerShare).sub(\r\n                    user.rewardDebt.mul(1e18)\r\n                )\r\n            )\r\n                .div(1e18);\r\n    }\r\n\r\n    function claimReward(uint256 _pid) public {\r\n        massUpdatePools();\r\n        uint256 claimReward=_harvest(_pid);\r\n\r\n        //update pool\r\n       \r\n        updatePool(_pid, claimReward,-1);\r\n    }\r\n\r\n    function _harvest(uint256 _pid) internal returns(uint256){\r\n        PoolInfo storage pool = poolInfo[_pid];\r\n        UserInfo storage user = userInfo[_pid][msg.sender];\r\n        uint256 pending;\r\n        if (user.amountLP > 0) {\r\n            pending = (\r\n                user.amountLP.mul(pool.accPBRPerShare).sub(\r\n                    user.rewardDebt.mul(1e18)\r\n                )\r\n            )\r\n                .div(1e18);\r\n            uint256 masterBal = poolBalance();\r\n\r\n            if (pending > masterBal) {\r\n                pending = masterBal;\r\n            }\r\n\r\n            if (pending > 0) {\r\n                polkaBridge.transfer(msg.sender, pending);\r\n\r\n                user.rewardDebtAtBlock = block.number;\r\n            }\r\n\r\n            user.rewardDebt = user.amountLP.mul(pool.accPBRPerShare).div(1e18);\r\n            user.rewardClaimed += pending;\r\n        }\r\n        return pending;\r\n    }\r\n\r\n    function deposit(uint256 _pid, uint256 _amount) public {\r\n        require(\r\n            _amount > 0,\r\n            \"PolkaBridgeMasterFarmer::deposit: amount must be greater than 0\"\r\n        );\r\n\r\n        PoolInfo storage pool = poolInfo[_pid];\r\n        UserInfo storage user = userInfo[_pid][msg.sender];\r\n\r\n        pool.lpToken.safeTransferFrom(\r\n            address(msg.sender),\r\n            address(this),\r\n            _amount\r\n        );\r\n\r\n        massUpdatePools();\r\n        _harvest(_pid);\r\n\r\n        if (user.amountLP == 0) {\r\n            user.rewardDebtAtBlock = block.number;\r\n        }\r\n\r\n        user.amountLP = user.amountLP.add(_amount);\r\n        user.rewardDebt = user.amountLP.mul(pool.accPBRPerShare).div(1e18);\r\n    }\r\n\r\n    function withdraw(uint256 _pid, uint256 _amount) public {\r\n        PoolInfo storage pool = poolInfo[_pid];\r\n        UserInfo storage user = userInfo[_pid][msg.sender];\r\n        require(\r\n            user.amountLP >= _amount,\r\n            \"PolkaBridgeMasterFarmer::withdraw: not good\"\r\n        );\r\n\r\n\r\n        if (_amount > 0) {\r\n           \r\n        massUpdatePools();\r\n        uint256 rewardClaimed=_harvest(_pid);\r\n          pool.lpToken.safeTransfer(address(msg.sender), _amount);\r\n               user.amountLP = user.amountLP.sub(_amount);\r\n\r\n        user.rewardDebt = user.amountLP.mul(pool.accPBRPerShare).div(1e18);\r\n\r\n        //update pool\r\n        \r\n        updatePool(_pid, rewardClaimed,-1);\r\n        }\r\n    }\r\n\r\n    function emergencyWithdraw(uint256 _pid) public {\r\n        PoolInfo storage pool = poolInfo[_pid];\r\n        UserInfo storage user = userInfo[_pid][msg.sender];\r\n        pool.lpToken.safeTransfer(address(msg.sender), user.amountLP);\r\n\r\n        user.amountLP = 0;\r\n        user.rewardDebt = 0;\r\n    }\r\n\r\n    function getPoolInfo(uint256 _pid)\r\n        public\r\n        view\r\n        returns (\r\n            uint256,\r\n            address,\r\n            uint256,\r\n            uint256,\r\n            uint256,\r\n            bool,\r\n            uint256\r\n            //uint256\r\n        )\r\n    {\r\n        return (\r\n            poolInfo[_pid].lastRewardBlock,\r\n            address(poolInfo[_pid].lpToken),\r\n            poolInfo[_pid].lastPoolReward,\r\n            poolInfo[_pid].startDate,\r\n            poolInfo[_pid].accPBRPerShare,\r\n            poolInfo[_pid].isActived,\r\n            poolInfo[_pid].lpToken.balanceOf(address(this))\r\n            //poolInfo[_pid].lastLPBalance\r\n        );\r\n    }\r\n\r\n    function getUserInfo(uint256 _pid)\r\n        public\r\n        view\r\n        returns (\r\n            uint256,\r\n            uint256,\r\n            uint256\r\n        )\r\n    {\r\n        UserInfo memory user = userInfo[_pid][msg.sender];\r\n        return (user.amountLP, user.rewardDebt, user.rewardClaimed);\r\n    }\r\n\r\n    function stopPool(uint256 pid) public onlyOwner {\r\n        PoolInfo storage pool = poolInfo[pid];\r\n        pool.isActived = false;\r\n        pool.stopDate = block.timestamp;\r\n    }\r\n\r\n    function countActivePool() public view returns (uint256) {\r\n        uint256 length = 0;\r\n        for (uint256 i = 0; i < poolInfo.length; i++) {\r\n            if (poolInfo[i].isActived) length++;\r\n        }\r\n        return length;\r\n    }\r\n\r\n    receive() external payable {}\r\n}\r\n",
  "sourcePath": "C:/Users/thanhphi/Desktop/PolkaBridgeSolution/farming-app/contracts/PolkaBridgeMasterFarm.sol",
  "compiler": {
    "name": "solc",
    "version": "0.6.2+commit.bacdbe57.Emscripten.clang"
  },
  "schemaVersion": "3.3.3",
  "updatedAt": "2021-03-05T13:26:43.112Z",
  "devdoc": {
    "methods": {
      "isOwner()": {
        "details": "Returns true if the caller is the current owner."
      },
      "owner()": {
        "details": "Returns the address of the current owner."
      },
      "renounceOwnership()": {
        "details": "Leaves the contract without owner. It will not be possible to call `onlyOwner` functions anymore. Can only be called by the current owner.     * NOTE: Renouncing ownership will leave the contract without an owner, thereby removing any functionality that is only available to the owner."
      },
      "transferOwnership(address)": {
        "details": "Transfers ownership of the contract to a new account (`newOwner`). Can only be called by the current owner."
      }
    }
  },
  "userdoc": {
    "methods": {}
  }
}