{
  "contractName": "PolkaBridgeMasterFarm",
  "abi": [
    {
      "inputs": [
        {
          "internalType": "contract PolkaBridge",
          "name": "_polkaBridge",
          "type": "address"
        },
        {
          "internalType": "uint256",
          "name": "_startBlock",
          "type": "uint256"
        }
      ],
      "stateMutability": "nonpayable",
      "type": "constructor"
    },
    {
      "anonymous": false,
      "inputs": [
        {
          "indexed": true,
          "internalType": "address",
          "name": "previousOwner",
          "type": "address"
        },
        {
          "indexed": true,
          "internalType": "address",
          "name": "newOwner",
          "type": "address"
        }
      ],
      "name": "OwnershipTransferred",
      "type": "event"
    },
    {
      "inputs": [],
      "name": "START_BLOCK",
      "outputs": [
        {
          "internalType": "uint256",
          "name": "",
          "type": "uint256"
        }
      ],
      "stateMutability": "view",
      "type": "function",
      "constant": true
    },
    {
      "inputs": [],
      "name": "isOwner",
      "outputs": [
        {
          "internalType": "bool",
          "name": "",
          "type": "bool"
        }
      ],
      "stateMutability": "view",
      "type": "function",
      "constant": true
    },
    {
      "inputs": [],
      "name": "name",
      "outputs": [
        {
          "internalType": "string",
          "name": "",
          "type": "string"
        }
      ],
      "stateMutability": "view",
      "type": "function",
      "constant": true
    },
    {
      "inputs": [],
      "name": "owner",
      "outputs": [
        {
          "internalType": "address",
          "name": "",
          "type": "address"
        }
      ],
      "stateMutability": "view",
      "type": "function",
      "constant": true
    },
    {
      "inputs": [],
      "name": "polkaBridge",
      "outputs": [
        {
          "internalType": "contract PolkaBridge",
          "name": "",
          "type": "address"
        }
      ],
      "stateMutability": "view",
      "type": "function",
      "constant": true
    },
    {
      "inputs": [
        {
          "internalType": "address",
          "name": "",
          "type": "address"
        }
      ],
      "name": "poolId1",
      "outputs": [
        {
          "internalType": "uint256",
          "name": "",
          "type": "uint256"
        }
      ],
      "stateMutability": "view",
      "type": "function",
      "constant": true
    },
    {
      "inputs": [
        {
          "internalType": "uint256",
          "name": "",
          "type": "uint256"
        }
      ],
      "name": "poolInfo",
      "outputs": [
        {
          "internalType": "contract IERC20",
          "name": "lpToken",
          "type": "address"
        },
        {
          "internalType": "uint256",
          "name": "multiplier",
          "type": "uint256"
        },
        {
          "internalType": "uint256",
          "name": "lastPoolReward",
          "type": "uint256"
        },
        {
          "internalType": "uint256",
          "name": "lastRewardBlock",
          "type": "uint256"
        },
        {
          "internalType": "uint256",
          "name": "lastLPBalance",
          "type": "uint256"
        },
        {
          "internalType": "uint256",
          "name": "accPBRPerShare",
          "type": "uint256"
        },
        {
          "internalType": "uint256",
          "name": "startBlock",
          "type": "uint256"
        },
        {
          "internalType": "uint256",
          "name": "stopBlock",
          "type": "uint256"
        },
        {
          "internalType": "uint256",
          "name": "totalRewardClaimed",
          "type": "uint256"
        },
        {
          "internalType": "bool",
          "name": "isActived",
          "type": "bool"
        }
      ],
      "stateMutability": "view",
      "type": "function",
      "constant": true
    },
    {
      "inputs": [],
      "name": "renounceOwnership",
      "outputs": [],
      "stateMutability": "nonpayable",
      "type": "function"
    },
    {
      "inputs": [
        {
          "internalType": "address",
          "name": "newOwner",
          "type": "address"
        }
      ],
      "name": "transferOwnership",
      "outputs": [],
      "stateMutability": "nonpayable",
      "type": "function"
    },
    {
      "inputs": [
        {
          "internalType": "uint256",
          "name": "",
          "type": "uint256"
        },
        {
          "internalType": "address",
          "name": "",
          "type": "address"
        }
      ],
      "name": "userInfo",
      "outputs": [
        {
          "internalType": "uint256",
          "name": "amountLP",
          "type": "uint256"
        },
        {
          "internalType": "uint256",
          "name": "rewardDebt",
          "type": "uint256"
        },
        {
          "internalType": "uint256",
          "name": "rewardDebtAtBlock",
          "type": "uint256"
        },
        {
          "internalType": "uint256",
          "name": "rewardClaimed",
          "type": "uint256"
        }
      ],
      "stateMutability": "view",
      "type": "function",
      "constant": true
    },
    {
      "stateMutability": "payable",
      "type": "receive",
      "payable": true
    },
    {
      "inputs": [],
      "name": "poolBalance",
      "outputs": [
        {
          "internalType": "uint256",
          "name": "",
          "type": "uint256"
        }
      ],
      "stateMutability": "view",
      "type": "function",
      "constant": true
    },
    {
      "inputs": [
        {
          "internalType": "contract IERC20",
          "name": "_lpToken",
          "type": "address"
        },
        {
          "internalType": "uint256",
          "name": "_multiplier",
          "type": "uint256"
        },
        {
          "internalType": "uint256",
          "name": "_startBlock",
          "type": "uint256"
        }
      ],
      "name": "add",
      "outputs": [],
      "stateMutability": "nonpayable",
      "type": "function"
    },
    {
      "inputs": [
        {
          "internalType": "uint256",
          "name": "_pid",
          "type": "uint256"
        },
        {
          "internalType": "uint256",
          "name": "_totalMultiplier",
          "type": "uint256"
        }
      ],
      "name": "getChangePoolReward",
      "outputs": [
        {
          "internalType": "uint256",
          "name": "",
          "type": "uint256"
        }
      ],
      "stateMutability": "view",
      "type": "function",
      "constant": true
    },
    {
      "inputs": [],
      "name": "massUpdatePools",
      "outputs": [],
      "stateMutability": "nonpayable",
      "type": "function"
    },
    {
      "inputs": [],
      "name": "getTotalLastPoolReward",
      "outputs": [
        {
          "internalType": "uint256",
          "name": "",
          "type": "uint256"
        }
      ],
      "stateMutability": "view",
      "type": "function",
      "constant": true
    },
    {
      "inputs": [
        {
          "internalType": "uint256",
          "name": "_pid",
          "type": "uint256"
        },
        {
          "internalType": "address",
          "name": "_user",
          "type": "address"
        }
      ],
      "name": "pendingReward",
      "outputs": [
        {
          "internalType": "uint256",
          "name": "",
          "type": "uint256"
        }
      ],
      "stateMutability": "view",
      "type": "function",
      "constant": true
    },
    {
      "inputs": [
        {
          "internalType": "uint256",
          "name": "_pid",
          "type": "uint256"
        }
      ],
      "name": "claimReward",
      "outputs": [],
      "stateMutability": "nonpayable",
      "type": "function"
    },
    {
      "inputs": [
        {
          "internalType": "uint256",
          "name": "_pid",
          "type": "uint256"
        },
        {
          "internalType": "uint256",
          "name": "_amount",
          "type": "uint256"
        }
      ],
      "name": "deposit",
      "outputs": [],
      "stateMutability": "nonpayable",
      "type": "function"
    },
    {
      "inputs": [
        {
          "internalType": "uint256",
          "name": "_pid",
          "type": "uint256"
        },
        {
          "internalType": "uint256",
          "name": "_amount",
          "type": "uint256"
        }
      ],
      "name": "withdraw",
      "outputs": [],
      "stateMutability": "nonpayable",
      "type": "function"
    },
    {
      "inputs": [
        {
          "internalType": "uint256",
          "name": "_pid",
          "type": "uint256"
        }
      ],
      "name": "emergencyWithdraw",
      "outputs": [],
      "stateMutability": "nonpayable",
      "type": "function"
    },
    {
      "inputs": [
        {
          "internalType": "uint256",
          "name": "_pid",
          "type": "uint256"
        }
      ],
      "name": "getPoolInfo",
      "outputs": [
        {
          "internalType": "uint256",
          "name": "",
          "type": "uint256"
        },
        {
          "internalType": "uint256",
          "name": "",
          "type": "uint256"
        },
        {
          "internalType": "address",
          "name": "",
          "type": "address"
        },
        {
          "internalType": "uint256",
          "name": "",
          "type": "uint256"
        },
        {
          "internalType": "uint256",
          "name": "",
          "type": "uint256"
        },
        {
          "internalType": "uint256",
          "name": "",
          "type": "uint256"
        },
        {
          "internalType": "uint256",
          "name": "",
          "type": "uint256"
        }
      ],
      "stateMutability": "view",
      "type": "function",
      "constant": true
    },
    {
      "inputs": [
        {
          "internalType": "uint256",
          "name": "_pid",
          "type": "uint256"
        }
      ],
      "name": "getUserInfo",
      "outputs": [
        {
          "internalType": "uint256",
          "name": "",
          "type": "uint256"
        },
        {
          "internalType": "uint256",
          "name": "",
          "type": "uint256"
        },
        {
          "internalType": "uint256",
          "name": "",
          "type": "uint256"
        }
      ],
      "stateMutability": "view",
      "type": "function",
      "constant": true
    },
    {
      "inputs": [
        {
          "internalType": "uint256",
          "name": "pid",
          "type": "uint256"
        }
      ],
      "name": "stopPool",
      "outputs": [],
      "stateMutability": "nonpayable",
      "type": "function"
    },
    {
      "inputs": [
        {
          "internalType": "uint256",
          "name": "pid",
          "type": "uint256"
        }
      ],
      "name": "activePool",
      "outputs": [],
      "stateMutability": "nonpayable",
      "type": "function"
    },
    {
      "inputs": [
        {
          "internalType": "uint256",
          "name": "pid",
          "type": "uint256"
        },
        {
          "internalType": "uint256",
          "name": "_multiplier",
          "type": "uint256"
        }
      ],
      "name": "changeMultiplier",
      "outputs": [],
      "stateMutability": "nonpayable",
      "type": "function"
    },
    {
      "inputs": [],
      "name": "countActivePool",
      "outputs": [
        {
          "internalType": "uint256",
          "name": "",
          "type": "uint256"
        }
      ],
      "stateMutability": "view",
      "type": "function",
      "constant": true
    },
    {
      "inputs": [],
      "name": "countTotalMultiplier",
      "outputs": [
        {
          "internalType": "uint256",
          "name": "",
          "type": "uint256"
        }
      ],
      "stateMutability": "view",
      "type": "function",
      "constant": true
    },
    {
      "inputs": [
        {
          "internalType": "uint256",
          "name": "_pid",
          "type": "uint256"
        }
      ],
      "name": "totalRewardClaimed",
      "outputs": [
        {
          "internalType": "uint256",
          "name": "",
          "type": "uint256"
        }
      ],
      "stateMutability": "view",
      "type": "function",
      "constant": true
    },
    {
      "inputs": [
        {
          "internalType": "uint256",
          "name": "_pid",
          "type": "uint256"
        }
      ],
      "name": "avgRewardPerBlock",
      "outputs": [
        {
          "internalType": "uint256",
          "name": "",
          "type": "uint256"
        }
      ],
      "stateMutability": "view",
      "type": "function",
      "constant": true
    }
  ],
  "bytecode": "0x6080604052604051806060016040528060218152602001620033876021913960019080519060200190620000359291906200018c565b503480156200004357600080fd5b50604051620033a8380380620033a8833981810160405260408110156200006957600080fd5b8101908080519060200190929190805190602001909291905050506000620000966200018460201b60201c565b9050806000806101000a81548173ffffffffffffffffffffffffffffffffffffffff021916908373ffffffffffffffffffffffffffffffffffffffff1602179055508073ffffffffffffffffffffffffffffffffffffffff16600073ffffffffffffffffffffffffffffffffffffffff167f8be0079c531659141344cd1fd0a4f28419497f9722a3daafe3b4186f6b6457e060405160405180910390a35081600260006101000a81548173ffffffffffffffffffffffffffffffffffffffff021916908373ffffffffffffffffffffffffffffffffffffffff1602179055508060038190555050506200023b565b600033905090565b828054600181600116156101000203166002900490600052602060002090601f016020900481019282601f10620001cf57805160ff191683800117855562000200565b8280016001018555821562000200579182015b82811115620001ff578251825591602001919060010190620001e2565b5b5090506200020f919062000213565b5090565b6200023891905b80821115620002345760008160009055506001016200021a565b5090565b90565b61313c806200024b6000396000f3fe6080604052600436106101c65760003560e01c806388f4480b116100f75780639bb87b9211610095578063ce2529c911610064578063ce2529c91461096c578063d379dadf146109d1578063e2bbb15814610a2e578063f2fde38b14610a73576101cd565b80639bb87b9214610872578063ae169a50146108b7578063c647e31f146108f2578063c9b8eee11461091d576101cd565b8063938cdba5116100d1578063938cdba5146106fb57806393f1a40b1461075457806396365d44146107d857806398969e8214610803576101cd565b806388f4480b1461064a5780638da5cb5b146106755780638f32d59b146106cc576101cd565b806346a2123a116101645780635729bd4c1161013e5780635729bd4c1461058a578063630b5ba1146105c55780636f55b350146105dc578063715018a614610633576101cd565b806346a2123a146104bf5780635101e128146104ea5780635312ea8e1461054f576101cd565b80632f380b35116101a05780632f380b351461035b5780633414ea371461040057806339b3e8261461044f578063441a3e701461047a576101cd565b806306fdde03146101d25780630f4d0357146102625780631526fe271461029d576101cd565b366101cd57005b600080fd5b3480156101de57600080fd5b506101e7610ac4565b6040518080602001828103825283818151815260200191508051906020019080838360005b8381101561022757808201518184015260208101905061020c565b50505050905090810190601f1680156102545780820380516001836020036101000a031916815260200191505b509250505060405180910390f35b34801561026e57600080fd5b5061029b6004803603602081101561028557600080fd5b8101908080359060200190929190505050610b62565b005b3480156102a957600080fd5b506102d6600480360360208110156102c057600080fd5b8101908080359060200190929190505050610c25565b604051808b73ffffffffffffffffffffffffffffffffffffffff1673ffffffffffffffffffffffffffffffffffffffff1681526020018a8152602001898152602001888152602001878152602001868152602001858152602001848152602001838152602001821515151581526020019a505050505050505050505060405180910390f35b34801561036757600080fd5b506103946004803603602081101561037e57600080fd5b8101908080359060200190929190505050610cb3565b604051808881526020018781526020018673ffffffffffffffffffffffffffffffffffffffff1673ffffffffffffffffffffffffffffffffffffffff16815260200185815260200184815260200183815260200182815260200197505050505050505060405180910390f35b34801561040c57600080fd5b506104396004803603602081101561042357600080fd5b8101908080359060200190929190505050610ea7565b6040518082815260200191505060405180910390f35b34801561045b57600080fd5b50610464610fd6565b6040518082815260200191505060405180910390f35b34801561048657600080fd5b506104bd6004803603604081101561049d57600080fd5b810190808035906020019092919080359060200190929190505050610fdc565b005b3480156104cb57600080fd5b506104d461125c565b6040518082815260200191505060405180910390f35b3480156104f657600080fd5b5061054d6004803603606081101561050d57600080fd5b81019080803573ffffffffffffffffffffffffffffffffffffffff16906020019092919080359060200190929190803590602001909291905050506112fa565b005b34801561055b57600080fd5b506105886004803603602081101561057257600080fd5b81019080803590602001909291905050506115d6565b005b34801561059657600080fd5b506105c3600480360360208110156105ad57600080fd5b81019080803590602001909291905050506116b5565b005b3480156105d157600080fd5b506105da611779565b005b3480156105e857600080fd5b506105f16117fc565b604051808273ffffffffffffffffffffffffffffffffffffffff1673ffffffffffffffffffffffffffffffffffffffff16815260200191505060405180910390f35b34801561063f57600080fd5b50610648611822565b005b34801561065657600080fd5b5061065f61195b565b6040518082815260200191505060405180910390f35b34801561068157600080fd5b5061068a6119c4565b604051808273ffffffffffffffffffffffffffffffffffffffff1673ffffffffffffffffffffffffffffffffffffffff16815260200191505060405180910390f35b3480156106d857600080fd5b506106e16119ed565b604051808215151515815260200191505060405180910390f35b34801561070757600080fd5b5061073e6004803603604081101561071e57600080fd5b810190808035906020019092919080359060200190929190505050611a4b565b6040518082815260200191505060405180910390f35b34801561076057600080fd5b506107ad6004803603604081101561077757600080fd5b8101908080359060200190929190803573ffffffffffffffffffffffffffffffffffffffff169060200190929190505050611b03565b6040518085815260200184815260200183815260200182815260200194505050505060405180910390f35b3480156107e457600080fd5b506107ed611b40565b6040518082815260200191505060405180910390f35b34801561080f57600080fd5b5061085c6004803603604081101561082657600080fd5b8101908080359060200190929190803573ffffffffffffffffffffffffffffffffffffffff169060200190929190505050611c21565b6040518082815260200191505060405180910390f35b34801561087e57600080fd5b506108b56004803603604081101561089557600080fd5b810190808035906020019092919080359060200190929190505050611e65565b005b3480156108c357600080fd5b506108f0600480360360208110156108da57600080fd5b8101908080359060200190929190505050611f0c565b005b3480156108fe57600080fd5b50610907611fd2565b6040518082815260200191505060405180910390f35b34801561092957600080fd5b506109566004803603602081101561094057600080fd5b8101908080359060200190929190505050612058565b6040518082815260200191505060405180910390f35b34801561097857600080fd5b506109bb6004803603602081101561098f57600080fd5b81019080803573ffffffffffffffffffffffffffffffffffffffff169060200190929190505050612080565b6040518082815260200191505060405180910390f35b3480156109dd57600080fd5b50610a0a600480360360208110156109f457600080fd5b8101908080359060200190929190505050612098565b60405180848152602001838152602001828152602001935050505060405180910390f35b348015610a3a57600080fd5b50610a7160048036036040811015610a5157600080fd5b810190808035906020019092919080359060200190929190505050612147565b005b348015610a7f57600080fd5b50610ac260048036036020811015610a9657600080fd5b81019080803573ffffffffffffffffffffffffffffffffffffffff1690602001909291905050506122ee565b005b60018054600181600116156101000203166002900480601f016020809104026020016040519081016040528092919081815260200182805460018160011615610100020316600290048015610b5a5780601f10610b2f57610100808354040283529160200191610b5a565b820191906000526020600020905b815481529060010190602001808311610b3d57829003601f168201915b505050505081565b610b6a6119ed565b610bdc576040517f08c379a00000000000000000000000000000000000000000000000000000000081526004018080602001828103825260208152602001807f4f776e61626c653a2063616c6c6572206973206e6f7420746865206f776e657281525060200191505060405180910390fd5b600060048281548110610beb57fe5b90600052602060002090600a0201905060008160090160006101000a81548160ff0219169083151502179055504381600701819055505050565b60048181548110610c3257fe5b90600052602060002090600a02016000915090508060000160009054906101000a900473ffffffffffffffffffffffffffffffffffffffff16908060010154908060020154908060030154908060040154908060050154908060060154908060070154908060080154908060090160009054906101000a900460ff1690508a565b600080600080600080600060048881548110610ccb57fe5b90600052602060002090600a02016003015460048981548110610cea57fe5b90600052602060002090600a02016001015460048a81548110610d0957fe5b90600052602060002090600a020160000160009054906101000a900473ffffffffffffffffffffffffffffffffffffffff1660048b81548110610d4857fe5b90600052602060002090600a02016002015460048c81548110610d6757fe5b90600052602060002090600a02016006015460048d81548110610d8657fe5b90600052602060002090600a02016005015460048e81548110610da557fe5b90600052602060002090600a020160000160009054906101000a900473ffffffffffffffffffffffffffffffffffffffff1673ffffffffffffffffffffffffffffffffffffffff166370a08231306040518263ffffffff1660e01b8152600401808273ffffffffffffffffffffffffffffffffffffffff1673ffffffffffffffffffffffffffffffffffffffff16815260200191505060206040518083038186803b158015610e5357600080fd5b505afa158015610e67573d6000803e3d6000fd5b505050506040513d6020811015610e7d57600080fd5b81019080805190602001909291905050509650965096509650965096509650919395979092949650565b600080610eb261125c565b90506000610ec08483611a4b565b905060008160048681548110610ed257fe5b90600052602060002090600a02016002015460048781548110610ef157fe5b90600052602060002090600a02016008015401019050600060048681548110610f1657fe5b90600052602060002090600a0201600301544311610f8457610f7d60048781548110610f3e57fe5b90600052602060002090600a02016006015460048881548110610f5d57fe5b90600052602060002090600a02016003015461237490919063ffffffff16565b9050610fb8565b610fb560048781548110610f9457fe5b90600052602060002090600a0201600601544361237490919063ffffffff16565b90505b610fcb81836123be90919063ffffffff16565b945050505050919050565b60035481565b600060048381548110610feb57fe5b90600052602060002090600a0201905060006006600085815260200190815260200160002060003373ffffffffffffffffffffffffffffffffffffffff1673ffffffffffffffffffffffffffffffffffffffff168152602001908152602001600020905082816000015410156110ac576040517f08c379a000000000000000000000000000000000000000000000000000000000815260040180806020018281038252602b815260200180612ffb602b913960400191505060405180910390fd5b6000831115611256576110bd611779565b6110c684612408565b61111533848460000160009054906101000a900473ffffffffffffffffffffffffffffffffffffffff1673ffffffffffffffffffffffffffffffffffffffff166125e49092919063ffffffff16565b8160000160009054906101000a900473ffffffffffffffffffffffffffffffffffffffff1673ffffffffffffffffffffffffffffffffffffffff166370a08231306040518263ffffffff1660e01b8152600401808273ffffffffffffffffffffffffffffffffffffffff1673ffffffffffffffffffffffffffffffffffffffff16815260200191505060206040518083038186803b1580156111b657600080fd5b505afa1580156111ca573d6000803e3d6000fd5b505050506040513d60208110156111e057600080fd5b8101908080519060200190929190505050826004018190555061121083826000015461237490919063ffffffff16565b816000018190555061124d670de0b6b3a764000061123f8460050154846000015461269c90919063ffffffff16565b6123be90919063ffffffff16565b81600101819055505b50505050565b6000806000905060008090505b6004805490508110156112d8576004818154811061128357fe5b90600052602060002090600a020160090160009054906101000a900460ff16156112cb57600481815481106112b457fe5b90600052602060002090600a020160010154820191505b8080600101915050611269565b506112f4670de0b6b3a76400008261269c90919063ffffffff16565b91505090565b6113026119ed565b611374576040517f08c379a00000000000000000000000000000000000000000000000000000000081526004018080602001828103825260208152602001807f4f776e61626c653a2063616c6c6572206973206e6f7420746865206f776e657281525060200191505060405180910390fd5b6000600560008573ffffffffffffffffffffffffffffffffffffffff1673ffffffffffffffffffffffffffffffffffffffff168152602001908152602001600020541461140c576040517f08c379a000000000000000000000000000000000000000000000000000000000815260040180806020018281038252603181526020018061308b6031913960400191505060405180910390fd5b6000600354431161141f57600354611421565b435b9050600160048054905001600560008673ffffffffffffffffffffffffffffffffffffffff1673ffffffffffffffffffffffffffffffffffffffff1681526020019081526020016000208190555060046040518061014001604052808673ffffffffffffffffffffffffffffffffffffffff168152602001858152602001600081526020018381526020016000815260200160008152602001600085116114c857436114ca565b845b815260200160008152602001600081526020016001151581525090806001815401808255809150506001900390600052602060002090600a020160009091909190915060008201518160000160006101000a81548173ffffffffffffffffffffffffffffffffffffffff021916908373ffffffffffffffffffffffffffffffffffffffff1602179055506020820151816001015560408201518160020155606082015181600301556080820151816004015560a0820151816005015560c0820151816006015560e0820151816007015561010082015181600801556101208201518160090160006101000a81548160ff02191690831515021790555050506115d0611779565b50505050565b6000600482815481106115e557fe5b90600052602060002090600a0201905060006006600084815260200190815260200160002060003373ffffffffffffffffffffffffffffffffffffffff1673ffffffffffffffffffffffffffffffffffffffff168152602001908152602001600020905061169c3382600001548460000160009054906101000a900473ffffffffffffffffffffffffffffffffffffffff1673ffffffffffffffffffffffffffffffffffffffff166125e49092919063ffffffff16565b6000816000018190555060008160010181905550505050565b6116bd6119ed565b61172f576040517f08c379a00000000000000000000000000000000000000000000000000000000081526004018080602001828103825260208152602001807f4f776e61626c653a2063616c6c6572206973206e6f7420746865206f776e657281525060200191505060405180910390fd5b60006004828154811061173e57fe5b90600052602060002090600a0201905060018160090160006101000a81548160ff021916908315150217905550600081600701819055505050565b60006004805490509050600061178d61125c565b905060008090505b828110156117f757600481815481106117aa57fe5b90600052602060002090600a020160090160009054906101000a900460ff16156117ea5760006117da8284611a4b565b90506117e882826001612722565b505b8080600101915050611795565b505050565b600260009054906101000a900473ffffffffffffffffffffffffffffffffffffffff1681565b61182a6119ed565b61189c576040517f08c379a00000000000000000000000000000000000000000000000000000000081526004018080602001828103825260208152602001807f4f776e61626c653a2063616c6c6572206973206e6f7420746865206f776e657281525060200191505060405180910390fd5b600073ffffffffffffffffffffffffffffffffffffffff166000809054906101000a900473ffffffffffffffffffffffffffffffffffffffff1673ffffffffffffffffffffffffffffffffffffffff167f8be0079c531659141344cd1fd0a4f28419497f9722a3daafe3b4186f6b6457e060405160405180910390a360008060006101000a81548173ffffffffffffffffffffffffffffffffffffffff021916908373ffffffffffffffffffffffffffffffffffffffff160217905550565b6000806000905060008090505b6004805490508110156119bc576004818154811061198257fe5b90600052602060002090600a020160090160009054906101000a900460ff16156119af5781806001019250505b8080600101915050611968565b508091505090565b60008060009054906101000a900473ffffffffffffffffffffffffffffffffffffffff16905090565b60008060009054906101000a900473ffffffffffffffffffffffffffffffffffffffff1673ffffffffffffffffffffffffffffffffffffffff16611a2f6128f5565b73ffffffffffffffffffffffffffffffffffffffff1614905090565b6000806000831415611a605760009050611aec565b6000611a6a611b40565b90506000611a76611fd2565b9050611ae785611ad9670de0b6b3a7640000611acb60048b81548110611a9857fe5b90600052602060002090600a020160010154611abd878961237490919063ffffffff16565b61269c90919063ffffffff16565b61269c90919063ffffffff16565b6123be90919063ffffffff16565b925050505b60008111611af957600090505b8091505092915050565b6006602052816000526040600020602052806000526040600020600091509150508060000154908060010154908060020154908060030154905084565b6000600260009054906101000a900473ffffffffffffffffffffffffffffffffffffffff1673ffffffffffffffffffffffffffffffffffffffff166370a08231306040518263ffffffff1660e01b8152600401808273ffffffffffffffffffffffffffffffffffffffff1673ffffffffffffffffffffffffffffffffffffffff16815260200191505060206040518083038186803b158015611be157600080fd5b505afa158015611bf5573d6000803e3d6000fd5b505050506040513d6020811015611c0b57600080fd5b8101908080519060200190929190505050905090565b60008060048481548110611c3157fe5b90600052602060002090600a0201905060006006600086815260200190815260200160002060008573ffffffffffffffffffffffffffffffffffffffff1673ffffffffffffffffffffffffffffffffffffffff168152602001908152602001600020905060008260000160009054906101000a900473ffffffffffffffffffffffffffffffffffffffff1673ffffffffffffffffffffffffffffffffffffffff166370a08231306040518263ffffffff1660e01b8152600401808273ffffffffffffffffffffffffffffffffffffffff1673ffffffffffffffffffffffffffffffffffffffff16815260200191505060206040518083038186803b158015611d3857600080fd5b505afa158015611d4c573d6000803e3d6000fd5b505050506040513d6020811015611d6257600080fd5b810190808051906020019092919050505090506000836005015490506000611d8861125c565b9050846003015443118015611d9d5750600083115b15611df157611dee611ddb84611dcd670de0b6b3a7640000611dbf8d87611a4b565b61269c90919063ffffffff16565b6123be90919063ffffffff16565b86600501546128fd90919063ffffffff16565b91505b6000611e54670de0b6b3a7640000611e46611e21670de0b6b3a7640000896001015461269c90919063ffffffff16565b611e38878a6000015461269c90919063ffffffff16565b61237490919063ffffffff16565b6123be90919063ffffffff16565b905080965050505050505092915050565b611e6d6119ed565b611edf576040517f08c379a00000000000000000000000000000000000000000000000000000000081526004018080602001828103825260208152602001807f4f776e61626c653a2063616c6c6572206973206e6f7420746865206f776e657281525060200191505060405180910390fd5b600060048381548110611eee57fe5b90600052602060002090600a02019050818160010181905550505050565b600060048281548110611f1b57fe5b90600052602060002090600a0201905060006006600084815260200190815260200160002060003373ffffffffffffffffffffffffffffffffffffffff1673ffffffffffffffffffffffffffffffffffffffff1681526020019081526020016000209050611f87611779565b611f9083612408565b611fc5670de0b6b3a7640000611fb78460050154846000015461269c90919063ffffffff16565b6123be90919063ffffffff16565b8160010181905550505050565b6000806000600480549050905060008090505b8181101561204f5760048181548110611ffa57fe5b90600052602060002090600a020160090160009054906101000a900460ff1615612042576004818154811061202b57fe5b90600052602060002090600a020160020154830192505b8080600101915050611fe5565b50819250505090565b60006004828154811061206757fe5b90600052602060002090600a0201600801549050919050565b60056020528060005260406000206000915090505481565b60008060006120a5612fd2565b6006600086815260200190815260200160002060003373ffffffffffffffffffffffffffffffffffffffff1673ffffffffffffffffffffffffffffffffffffffff1681526020019081526020016000206040518060800160405290816000820154815260200160018201548152602001600282015481526020016003820154815250509050806000015181602001518260600151935093509350509193909250565b600081116121a0576040517f08c379a000000000000000000000000000000000000000000000000000000000815260040180806020018281038252603f815260200180613026603f913960400191505060405180910390fd5b6000600483815481106121af57fe5b90600052602060002090600a0201905060006006600085815260200190815260200160002060003373ffffffffffffffffffffffffffffffffffffffff1673ffffffffffffffffffffffffffffffffffffffff16815260200190815260200160002090506122643330858560000160009054906101000a900473ffffffffffffffffffffffffffffffffffffffff1673ffffffffffffffffffffffffffffffffffffffff16612985909392919063ffffffff16565b61226c611779565b61227584612408565b60008160000154141561228c574381600201819055505b6122a38382600001546128fd90919063ffffffff16565b81600001819055506122e0670de0b6b3a76400006122d28460050154846000015461269c90919063ffffffff16565b6123be90919063ffffffff16565b816001018190555050505050565b6122f66119ed565b612368576040517f08c379a00000000000000000000000000000000000000000000000000000000081526004018080602001828103825260208152602001807f4f776e61626c653a2063616c6c6572206973206e6f7420746865206f776e657281525060200191505060405180910390fd5b61237181612a72565b50565b60006123b683836040518060400160405280601e81526020017f536166654d6174683a207375627472616374696f6e206f766572666c6f770000815250612bb6565b905092915050565b600061240083836040518060400160405280601a81526020017f536166654d6174683a206469766973696f6e206279207a65726f000000000000815250612c76565b905092915050565b60006004828154811061241757fe5b90600052602060002090600a0201905060006006600084815260200190815260200160002060003373ffffffffffffffffffffffffffffffffffffffff1673ffffffffffffffffffffffffffffffffffffffff16815260200190815260200160002090506000816000015411156125df5760006124948433611c21565b905060006124a0611b40565b9050808211156124ae578091505b60008211156125c157600260009054906101000a900473ffffffffffffffffffffffffffffffffffffffff1673ffffffffffffffffffffffffffffffffffffffff1663a9059cbb33846040518363ffffffff1660e01b8152600401808373ffffffffffffffffffffffffffffffffffffffff1673ffffffffffffffffffffffffffffffffffffffff16815260200182815260200192505050602060405180830381600087803b15801561256057600080fd5b505af1158015612574573d6000803e3d6000fd5b505050506040513d602081101561258a57600080fd5b8101908080519060200190929190505050508184600201600082825403925050819055508184600801600082825401925050819055505b43836002018190555081836003016000828254019250508190555050505b505050565b6126978363a9059cbb60e01b8484604051602401808373ffffffffffffffffffffffffffffffffffffffff1673ffffffffffffffffffffffffffffffffffffffff16815260200182815260200192505050604051602081830303815290604052907bffffffffffffffffffffffffffffffffffffffffffffffffffffffff19166020820180517bffffffffffffffffffffffffffffffffffffffffffffffffffffffff8381831617835250505050612d3c565b505050565b6000808314156126af576000905061271c565b60008284029050828482816126c057fe5b0414612717576040517f08c379a00000000000000000000000000000000000000000000000000000000081526004018080602001828103825260218152602001806130bc6021913960400191505060405180910390fd5b809150505b92915050565b60006004848154811061273157fe5b90600052602060002090600a02019050806003015443111580156127555750600182145b1561276057506128f0565b600081600401549050600081141561278157600082600501819055506127cd565b6127c46127b1826127a3670de0b6b3a76400008861269c90919063ffffffff16565b6123be90919063ffffffff16565b83600501546128fd90919063ffffffff16565b82600501819055505b43826003018190555060018314156127f657838260020160008282540192505081905550612809565b8382600201600082825403925050819055505b8160000160009054906101000a900473ffffffffffffffffffffffffffffffffffffffff1673ffffffffffffffffffffffffffffffffffffffff166370a08231306040518263ffffffff1660e01b8152600401808273ffffffffffffffffffffffffffffffffffffffff1673ffffffffffffffffffffffffffffffffffffffff16815260200191505060206040518083038186803b1580156128aa57600080fd5b505afa1580156128be573d6000803e3d6000fd5b505050506040513d60208110156128d457600080fd5b8101908080519060200190929190505050826004018190555050505b505050565b600033905090565b60008082840190508381101561297b576040517f08c379a000000000000000000000000000000000000000000000000000000000815260040180806020018281038252601b8152602001807f536166654d6174683a206164646974696f6e206f766572666c6f77000000000081525060200191505060405180910390fd5b8091505092915050565b612a6c846323b872dd60e01b858585604051602401808473ffffffffffffffffffffffffffffffffffffffff1673ffffffffffffffffffffffffffffffffffffffff1681526020018373ffffffffffffffffffffffffffffffffffffffff1673ffffffffffffffffffffffffffffffffffffffff1681526020018281526020019350505050604051602081830303815290604052907bffffffffffffffffffffffffffffffffffffffffffffffffffffffff19166020820180517bffffffffffffffffffffffffffffffffffffffffffffffffffffffff8381831617835250505050612d3c565b50505050565b600073ffffffffffffffffffffffffffffffffffffffff168173ffffffffffffffffffffffffffffffffffffffff161415612af8576040517f08c379a00000000000000000000000000000000000000000000000000000000081526004018080602001828103825260268152602001806130656026913960400191505060405180910390fd5b8073ffffffffffffffffffffffffffffffffffffffff166000809054906101000a900473ffffffffffffffffffffffffffffffffffffffff1673ffffffffffffffffffffffffffffffffffffffff167f8be0079c531659141344cd1fd0a4f28419497f9722a3daafe3b4186f6b6457e060405160405180910390a3806000806101000a81548173ffffffffffffffffffffffffffffffffffffffff021916908373ffffffffffffffffffffffffffffffffffffffff16021790555050565b6000838311158290612c63576040517f08c379a00000000000000000000000000000000000000000000000000000000081526004018080602001828103825283818151815260200191508051906020019080838360005b83811015612c28578082015181840152602081019050612c0d565b50505050905090810190601f168015612c555780820380516001836020036101000a031916815260200191505b509250505060405180910390fd5b5060008385039050809150509392505050565b60008083118290612d22576040517f08c379a00000000000000000000000000000000000000000000000000000000081526004018080602001828103825283818151815260200191508051906020019080838360005b83811015612ce7578082015181840152602081019050612ccc565b50505050905090810190601f168015612d145780820380516001836020036101000a031916815260200191505b509250505060405180910390fd5b506000838581612d2e57fe5b049050809150509392505050565b612d5b8273ffffffffffffffffffffffffffffffffffffffff16612f87565b612dcd576040517f08c379a000000000000000000000000000000000000000000000000000000000815260040180806020018281038252601f8152602001807f5361666545524332303a2063616c6c20746f206e6f6e2d636f6e74726163740081525060200191505060405180910390fd5b600060608373ffffffffffffffffffffffffffffffffffffffff16836040518082805190602001908083835b60208310612e1c5780518252602082019150602081019050602083039250612df9565b6001836020036101000a0380198251168184511680821785525050505050509050019150506000604051808303816000865af19150503d8060008114612e7e576040519150601f19603f3d011682016040523d82523d6000602084013e612e83565b606091505b509150915081612efb576040517f08c379a00000000000000000000000000000000000000000000000000000000081526004018080602001828103825260208152602001807f5361666545524332303a206c6f772d6c6576656c2063616c6c206661696c656481525060200191505060405180910390fd5b600081511115612f8157808060200190516020811015612f1a57600080fd5b8101908080519060200190929190505050612f80576040517f08c379a000000000000000000000000000000000000000000000000000000000815260040180806020018281038252602a8152602001806130dd602a913960400191505060405180910390fd5b5b50505050565b60008060007fc5d2460186f7233c927e7db2dcc703c0e500b653ca82273b7bfad8045d85a47060001b9050833f9150808214158015612fc957506000801b8214155b92505050919050565b604051806080016040528060008152602001600081526020016000815260200160008152509056fe506f6c6b614272696467654d61737465724661726d65723a3a77697468647261773a206e6f7420676f6f64506f6c6b614272696467654d61737465724661726d65723a3a6465706f7369743a20616d6f756e74206d7573742062652067726561746572207468616e20304f776e61626c653a206e6577206f776e657220697320746865207a65726f2061646472657373506f6c6b614272696467654d61737465724661726d3a3a6164643a206c7020697320616c726561647920696e20706f6f6c536166654d6174683a206d756c7469706c69636174696f6e206f766572666c6f775361666545524332303a204552433230206f7065726174696f6e20646964206e6f742073756363656564a264697066735822122066b8d6f6abb25c5dd5fbef11b9a4f9d9b8cb6e50f26724a1396b35c5d25e930264736f6c63430006020033506f6c6b614272696467653a204465666c6174696f6e617279204661726d696e67",
  "source": "pragma solidity >=0.6.0;\r\n\r\nimport \"@openzeppelin/contracts/token/ERC20/SafeERC20.sol\";\r\nimport \"@openzeppelin/contracts/math/SafeMath.sol\";\r\nimport \"@openzeppelin/contracts/ownership/Ownable.sol\";\r\nimport \"./PolkaBridge.sol\";\r\n\r\n// import \"@chainlink/contracts/src/v0.6/interfaces/AggregatorV3Interface.sol\";\r\n//import \"@openzeppelin/contracts/token/ERC20/ERC20.sol\";\r\n//import \"@uniswap/v2-periphery/contracts/interfaces/IUniswapV2Router02.sol\";\r\n\r\ncontract PolkaBridgeMasterFarm is Ownable {\r\n    string public name = \"PolkaBridge: Deflationary Farming\";\r\n    using SafeMath for uint256;\r\n    using SafeERC20 for IERC20;\r\n\r\n    struct UserInfo {\r\n        uint256 amountLP;\r\n        uint256 rewardDebt;\r\n        uint256 rewardDebtAtBlock;\r\n        uint256 rewardClaimed;\r\n    }\r\n\r\n    struct PoolInfo {\r\n        IERC20 lpToken;\r\n        uint256 multiplier;\r\n        uint256 lastPoolReward; //history pool reward\r\n        uint256 lastRewardBlock;\r\n        uint256 lastLPBalance;\r\n        uint256 accPBRPerShare;\r\n        uint256 startBlock;\r\n        uint256 stopBlock;\r\n        uint256 totalRewardClaimed;\r\n        bool isActived;\r\n    }\r\n\r\n    PolkaBridge public polkaBridge;\r\n    uint256 public START_BLOCK;\r\n\r\n    //pool Info\r\n    PoolInfo[] public poolInfo;\r\n    mapping(address => uint256) public poolId1;\r\n    // Info of each user that stakes LP tokens. pid => user address => info\r\n    mapping(uint256 => mapping(address => UserInfo)) public userInfo;\r\n\r\n    constructor(PolkaBridge _polkaBridge, uint256 _startBlock) public {\r\n        polkaBridge = _polkaBridge;\r\n        START_BLOCK = _startBlock;\r\n    }\r\n\r\n    function poolBalance() public view returns (uint256) {\r\n        return polkaBridge.balanceOf(address(this));\r\n    }\r\n\r\n    // Add a new lp to the pool. Can only be called by the owner.\r\n    function add(IERC20 _lpToken, uint256 _multiplier, uint256 _startBlock) public onlyOwner {\r\n        require(\r\n            poolId1[address(_lpToken)] == 0,\r\n            \"PolkaBridgeMasterFarm::add: lp is already in pool\"\r\n        );\r\n\r\n        uint256 _lastRewardBlock =\r\n            block.number > START_BLOCK ? block.number : START_BLOCK;\r\n\r\n        poolId1[address(_lpToken)] = poolInfo.length + 1;\r\n        poolInfo.push(\r\n            PoolInfo({\r\n                lpToken: _lpToken,\r\n                multiplier: _multiplier,\r\n                lastRewardBlock: _lastRewardBlock,\r\n                lastPoolReward: 0,\r\n                lastLPBalance: 0,\r\n                accPBRPerShare: 0,\r\n                startBlock: _startBlock > 0 ? _startBlock : block.number,\r\n                stopBlock: 0,\r\n                totalRewardClaimed: 0,\r\n                isActived: true\r\n            })\r\n        );\r\n\r\n        massUpdatePools();\r\n    }\r\n\r\n    function getChangePoolReward(uint256 _pid, uint256 _totalMultiplier) public view returns (uint256) {\r\n        uint256 changePoolReward;\r\n        if (_totalMultiplier == 0) {\r\n            changePoolReward = 0;\r\n        }\r\n        else {\r\n            uint256 currentPoolBalance = poolBalance();\r\n            uint256 totalLastPoolReward = getTotalLastPoolReward();\r\n            changePoolReward = ((currentPoolBalance.sub(totalLastPoolReward)).mul(poolInfo[_pid].multiplier).mul(1e18)).div(_totalMultiplier);\r\n        }\r\n\r\n        if (changePoolReward <= 0) {\r\n            changePoolReward = 0;\r\n        }\r\n\r\n        return changePoolReward;\r\n    }\r\n\r\n    function massUpdatePools() public {\r\n        uint256 length = poolInfo.length;\r\n        uint256 totalMultiplier = countTotalMultiplier();\r\n        for (uint256 pid = 0; pid < length; pid++) {\r\n            if (poolInfo[pid].isActived) {\r\n                uint256 changePoolReward = getChangePoolReward(pid, totalMultiplier);\r\n                updatePool(pid, changePoolReward, 1);\r\n            }\r\n        }\r\n    }\r\n\r\n    function getTotalLastPoolReward() public view returns (uint256) {\r\n        uint256 total;\r\n        uint256 length = poolInfo.length;\r\n        for (uint256 pid = 0; pid < length; pid++) {\r\n            if (poolInfo[pid].isActived) {\r\n                total += poolInfo[pid].lastPoolReward;\r\n            }\r\n        }\r\n        return total;\r\n    }\r\n\r\n    // Update reward variables of the given pool to be up-to-date.\r\n    function updatePool(\r\n        uint256 _pid,\r\n        uint256 _changePoolReward,\r\n        uint256 flag\r\n    ) internal {\r\n        PoolInfo storage pool = poolInfo[_pid];\r\n        if (block.number <= pool.lastRewardBlock && flag==1) {\r\n            return;\r\n        }\r\n        uint256 lpSupply = pool.lastLPBalance;\r\n        if (lpSupply == 0) { // first deposit\r\n            pool.accPBRPerShare = 0;\r\n        } else {\r\n            pool.accPBRPerShare = pool.accPBRPerShare.add(\r\n                (_changePoolReward.mul(1e18).div(lpSupply))\r\n            );\r\n        }\r\n        pool.lastRewardBlock = block.number;\r\n\r\n        if (flag == 1) {\r\n            pool.lastPoolReward += _changePoolReward;\r\n        } else {\r\n            pool.lastPoolReward -= _changePoolReward;\r\n        }\r\n\r\n        pool.lastLPBalance = pool.lpToken.balanceOf(address(this));\r\n    }\r\n\r\n    function pendingReward(uint256 _pid, address _user)\r\n        public\r\n        view\r\n        returns (uint256)\r\n    {\r\n        PoolInfo storage pool = poolInfo[_pid];\r\n        UserInfo storage user = userInfo[_pid][_user];\r\n        uint256 lpSupply = pool.lpToken.balanceOf(address(this));\r\n        uint256 temptAccPBRPerShare = pool.accPBRPerShare;\r\n        uint256 totalMultiplier = countTotalMultiplier();\r\n\r\n        if (block.number > pool.lastRewardBlock && lpSupply > 0) {\r\n            temptAccPBRPerShare = pool.accPBRPerShare.add(\r\n                (getChangePoolReward(_pid, totalMultiplier).mul(1e18).div(lpSupply))\r\n            );\r\n        }\r\n\r\n        uint256 pending = (\r\n                user.amountLP.mul(temptAccPBRPerShare).sub(\r\n                    user.rewardDebt.mul(1e18)\r\n                )\r\n            ).div(1e18);\r\n\r\n        return pending;\r\n    }\r\n\r\n    function claimReward(uint256 _pid) public {\r\n        PoolInfo storage pool = poolInfo[_pid];\r\n        UserInfo storage user = userInfo[_pid][msg.sender];\r\n\r\n        massUpdatePools();\r\n        _harvest(_pid);\r\n\r\n        user.rewardDebt = user.amountLP.mul(pool.accPBRPerShare).div(1e18);\r\n    }\r\n\r\n    function _harvest(uint256 _pid) internal {\r\n        PoolInfo storage pool = poolInfo[_pid];\r\n        UserInfo storage user = userInfo[_pid][msg.sender];\r\n\r\n        if (user.amountLP > 0) {\r\n            uint256 pending = pendingReward(_pid, msg.sender);\r\n            uint256 masterBal = poolBalance();\r\n\r\n            if (pending > masterBal) {\r\n                pending = masterBal;\r\n            }\r\n\r\n            if (pending > 0) {\r\n                polkaBridge.transfer(msg.sender, pending);\r\n                pool.lastPoolReward -= pending;\r\n                pool.totalRewardClaimed += pending;\r\n            }\r\n\r\n            user.rewardDebtAtBlock = block.number;\r\n            user.rewardClaimed += pending;\r\n        }\r\n    }\r\n\r\n    function deposit(uint256 _pid, uint256 _amount) public {\r\n        require(\r\n            _amount > 0,\r\n            \"PolkaBridgeMasterFarmer::deposit: amount must be greater than 0\"\r\n        );\r\n\r\n        PoolInfo storage pool = poolInfo[_pid];\r\n        UserInfo storage user = userInfo[_pid][msg.sender];\r\n\r\n        pool.lpToken.safeTransferFrom(\r\n            address(msg.sender),\r\n            address(this),\r\n            _amount\r\n        );\r\n\r\n        massUpdatePools();\r\n        _harvest(_pid);\r\n\r\n        if (user.amountLP == 0) {\r\n            user.rewardDebtAtBlock = block.number;\r\n        }\r\n\r\n        user.amountLP = user.amountLP.add(_amount);\r\n        user.rewardDebt = user.amountLP.mul(pool.accPBRPerShare).div(1e18);\r\n    }\r\n\r\n    function withdraw(uint256 _pid, uint256 _amount) public {\r\n        PoolInfo storage pool = poolInfo[_pid];\r\n        UserInfo storage user = userInfo[_pid][msg.sender];\r\n        require(\r\n            user.amountLP >= _amount,\r\n            \"PolkaBridgeMasterFarmer::withdraw: not good\"\r\n        );\r\n\r\n        if (_amount > 0) {\r\n            massUpdatePools();\r\n            _harvest(_pid);\r\n            pool.lpToken.safeTransfer(address(msg.sender), _amount);\r\n            pool.lastLPBalance = pool.lpToken.balanceOf(address(this));\r\n\r\n            // update pool\r\n            // updatePool(_pid, 0, 1);\r\n            user.amountLP = user.amountLP.sub(_amount);\r\n            user.rewardDebt = user.amountLP.mul(pool.accPBRPerShare).div(1e18);\r\n        }\r\n    }\r\n\r\n    function emergencyWithdraw(uint256 _pid) public {\r\n        PoolInfo storage pool = poolInfo[_pid];\r\n        UserInfo storage user = userInfo[_pid][msg.sender];\r\n        pool.lpToken.safeTransfer(address(msg.sender), user.amountLP);\r\n\r\n        user.amountLP = 0;\r\n        user.rewardDebt = 0;\r\n    }\r\n\r\n    function getPoolInfo(uint256 _pid)\r\n        public\r\n        view\r\n        returns (\r\n            uint256,\r\n            uint256,\r\n            address,\r\n            uint256,\r\n            uint256,\r\n            uint256,\r\n            // bool,\r\n            uint256\r\n        )\r\n    //uint256\r\n    {\r\n        return (\r\n            poolInfo[_pid].lastRewardBlock,\r\n            poolInfo[_pid].multiplier,\r\n            address(poolInfo[_pid].lpToken),\r\n            poolInfo[_pid].lastPoolReward,\r\n            poolInfo[_pid].startBlock,\r\n            poolInfo[_pid].accPBRPerShare,\r\n            // poolInfo[_pid].isActived,\r\n            poolInfo[_pid].lpToken.balanceOf(address(this))\r\n            //poolInfo[_pid].lastLPBalance\r\n        );\r\n    }\r\n\r\n    function getUserInfo(uint256 _pid)\r\n        public\r\n        view\r\n        returns (\r\n            uint256,\r\n            uint256,\r\n            uint256\r\n        )\r\n    {\r\n        UserInfo memory user = userInfo[_pid][msg.sender];\r\n        return (user.amountLP, user.rewardDebt, user.rewardClaimed);\r\n    }\r\n\r\n    function stopPool(uint256 pid) public onlyOwner {\r\n        PoolInfo storage pool = poolInfo[pid];\r\n        pool.isActived = false;\r\n        pool.stopBlock = block.number;\r\n    }\r\n\r\n    function activePool(uint256 pid) public onlyOwner {\r\n        PoolInfo storage pool = poolInfo[pid];\r\n        pool.isActived = true;\r\n        pool.stopBlock = 0;\r\n    }\r\n\r\n    function changeMultiplier(uint256 pid, uint256 _multiplier) public onlyOwner {\r\n        PoolInfo storage pool = poolInfo[pid];\r\n        pool.multiplier = _multiplier;\r\n    }\r\n\r\n    function countActivePool() public view returns (uint256) {\r\n        uint256 length = 0;\r\n        for (uint256 i = 0; i < poolInfo.length; i++) {\r\n            if (poolInfo[i].isActived) length++;\r\n        }\r\n        return length;\r\n    }\r\n\r\n    function countTotalMultiplier() public view returns (uint256) {\r\n        uint256 totalMultiplier = 0;\r\n        for (uint256 i = 0; i < poolInfo.length; i++) {\r\n            if (poolInfo[i].isActived) totalMultiplier += poolInfo[i].multiplier;\r\n        }\r\n        return totalMultiplier.mul(1e18);\r\n    }\r\n\r\n    function totalRewardClaimed(uint256 _pid) public view returns (uint256) {\r\n        return poolInfo[_pid].totalRewardClaimed;\r\n    }\r\n\r\n    function avgRewardPerBlock(uint256 _pid) public view returns (uint256) {\r\n        uint256 totalMultiplier = countTotalMultiplier();\r\n        uint256 changePoolReward = getChangePoolReward(_pid, totalMultiplier);\r\n        uint256 totalReward = poolInfo[_pid].totalRewardClaimed + poolInfo[_pid].lastPoolReward + changePoolReward;\r\n        uint256 changeBlock;\r\n        if (block.number <= poolInfo[_pid].lastRewardBlock){\r\n            changeBlock = poolInfo[_pid].lastRewardBlock.sub(poolInfo[_pid].startBlock);\r\n        }\r\n        else {\r\n            changeBlock = block.number.sub(poolInfo[_pid].startBlock);\r\n        }\r\n\r\n        return totalReward.div(changeBlock);\r\n    }\r\n\r\n    receive() external payable {}\r\n}\r\n",
  "sourcePath": "C:/Users/thanhphi/Desktop/PolkaBridgeSolution/farming-app/contracts/PolkaBridgeMasterFarm.sol",
  "compiler": {
    "name": "solc",
    "version": "0.6.2+commit.bacdbe57.Emscripten.clang"
  },
  "schemaVersion": "3.3.3",
  "updatedAt": "2021-03-08T06:36:51.061Z",
  "networkType": "ethereum",
  "devdoc": {
    "methods": {
      "isOwner()": {
        "details": "Returns true if the caller is the current owner."
      },
      "owner()": {
        "details": "Returns the address of the current owner."
      },
      "renounceOwnership()": {
        "details": "Leaves the contract without owner. It will not be possible to call `onlyOwner` functions anymore. Can only be called by the current owner.     * NOTE: Renouncing ownership will leave the contract without an owner, thereby removing any functionality that is only available to the owner."
      },
      "transferOwnership(address)": {
        "details": "Transfers ownership of the contract to a new account (`newOwner`). Can only be called by the current owner."
      }
    }
  },
  "userdoc": {
    "methods": {}
  }
}