{
  "contractName": "PolkaBridgeMasterFarm",
  "abi": [
    {
      "inputs": [
        {
          "internalType": "contract PolkaBridge",
          "name": "_polkaBridge",
          "type": "address"
        },
        {
          "internalType": "uint256",
          "name": "_startBlock",
          "type": "uint256"
        }
      ],
      "stateMutability": "nonpayable",
      "type": "constructor"
    },
    {
      "anonymous": false,
      "inputs": [
        {
          "indexed": true,
          "internalType": "address",
          "name": "previousOwner",
          "type": "address"
        },
        {
          "indexed": true,
          "internalType": "address",
          "name": "newOwner",
          "type": "address"
        }
      ],
      "name": "OwnershipTransferred",
      "type": "event"
    },
    {
      "inputs": [],
      "name": "START_BLOCK",
      "outputs": [
        {
          "internalType": "uint256",
          "name": "",
          "type": "uint256"
        }
      ],
      "stateMutability": "view",
      "type": "function",
      "constant": true
    },
    {
      "inputs": [],
      "name": "isOwner",
      "outputs": [
        {
          "internalType": "bool",
          "name": "",
          "type": "bool"
        }
      ],
      "stateMutability": "view",
      "type": "function",
      "constant": true
    },
    {
      "inputs": [],
      "name": "name",
      "outputs": [
        {
          "internalType": "string",
          "name": "",
          "type": "string"
        }
      ],
      "stateMutability": "view",
      "type": "function",
      "constant": true
    },
    {
      "inputs": [],
      "name": "owner",
      "outputs": [
        {
          "internalType": "address",
          "name": "",
          "type": "address"
        }
      ],
      "stateMutability": "view",
      "type": "function",
      "constant": true
    },
    {
      "inputs": [],
      "name": "polkaBridge",
      "outputs": [
        {
          "internalType": "contract PolkaBridge",
          "name": "",
          "type": "address"
        }
      ],
      "stateMutability": "view",
      "type": "function",
      "constant": true
    },
    {
      "inputs": [
        {
          "internalType": "address",
          "name": "",
          "type": "address"
        }
      ],
      "name": "poolId1",
      "outputs": [
        {
          "internalType": "uint256",
          "name": "",
          "type": "uint256"
        }
      ],
      "stateMutability": "view",
      "type": "function",
      "constant": true
    },
    {
      "inputs": [
        {
          "internalType": "uint256",
          "name": "",
          "type": "uint256"
        }
      ],
      "name": "poolInfo",
      "outputs": [
        {
          "internalType": "contract IERC20",
          "name": "lpToken",
          "type": "address"
        },
        {
          "internalType": "uint256",
          "name": "multiplier",
          "type": "uint256"
        },
        {
          "internalType": "uint256",
          "name": "lastPoolReward",
          "type": "uint256"
        },
        {
          "internalType": "uint256",
          "name": "lastRewardBlock",
          "type": "uint256"
        },
        {
          "internalType": "uint256",
          "name": "lastLPBalance",
          "type": "uint256"
        },
        {
          "internalType": "uint256",
          "name": "accPBRPerShare",
          "type": "uint256"
        },
        {
          "internalType": "uint256",
          "name": "startDate",
          "type": "uint256"
        },
        {
          "internalType": "uint256",
          "name": "stopDate",
          "type": "uint256"
        },
        {
          "internalType": "uint256",
          "name": "totalRewardClaimed",
          "type": "uint256"
        },
        {
          "internalType": "bool",
          "name": "isActived",
          "type": "bool"
        }
      ],
      "stateMutability": "view",
      "type": "function",
      "constant": true
    },
    {
      "inputs": [],
      "name": "renounceOwnership",
      "outputs": [],
      "stateMutability": "nonpayable",
      "type": "function"
    },
    {
      "inputs": [
        {
          "internalType": "address",
          "name": "newOwner",
          "type": "address"
        }
      ],
      "name": "transferOwnership",
      "outputs": [],
      "stateMutability": "nonpayable",
      "type": "function"
    },
    {
      "inputs": [
        {
          "internalType": "uint256",
          "name": "",
          "type": "uint256"
        },
        {
          "internalType": "address",
          "name": "",
          "type": "address"
        }
      ],
      "name": "userInfo",
      "outputs": [
        {
          "internalType": "uint256",
          "name": "amountLP",
          "type": "uint256"
        },
        {
          "internalType": "uint256",
          "name": "rewardDebt",
          "type": "uint256"
        },
        {
          "internalType": "uint256",
          "name": "rewardDebtAtBlock",
          "type": "uint256"
        },
        {
          "internalType": "uint256",
          "name": "rewardClaimed",
          "type": "uint256"
        }
      ],
      "stateMutability": "view",
      "type": "function",
      "constant": true
    },
    {
      "stateMutability": "payable",
      "type": "receive",
      "payable": true
    },
    {
      "inputs": [],
      "name": "poolBalance",
      "outputs": [
        {
          "internalType": "uint256",
          "name": "",
          "type": "uint256"
        }
      ],
      "stateMutability": "view",
      "type": "function",
      "constant": true
    },
    {
      "inputs": [
        {
          "internalType": "contract IERC20",
          "name": "_lpToken",
          "type": "address"
        },
        {
          "internalType": "uint256",
          "name": "_multiplier",
          "type": "uint256"
        },
        {
          "internalType": "uint256",
          "name": "_startDate",
          "type": "uint256"
        }
      ],
      "name": "add",
      "outputs": [],
      "stateMutability": "nonpayable",
      "type": "function"
    },
    {
      "inputs": [
        {
          "internalType": "uint256",
          "name": "_pid",
          "type": "uint256"
        },
        {
          "internalType": "uint256",
          "name": "_totalMultiplier",
          "type": "uint256"
        }
      ],
      "name": "getChangePoolReward",
      "outputs": [
        {
          "internalType": "uint256",
          "name": "",
          "type": "uint256"
        }
      ],
      "stateMutability": "view",
      "type": "function",
      "constant": true
    },
    {
      "inputs": [],
      "name": "massUpdatePools",
      "outputs": [],
      "stateMutability": "nonpayable",
      "type": "function"
    },
    {
      "inputs": [],
      "name": "getTotalLastPoolReward",
      "outputs": [
        {
          "internalType": "uint256",
          "name": "",
          "type": "uint256"
        }
      ],
      "stateMutability": "view",
      "type": "function",
      "constant": true
    },
    {
      "inputs": [
        {
          "internalType": "uint256",
          "name": "_pid",
          "type": "uint256"
        },
        {
          "internalType": "address",
          "name": "_user",
          "type": "address"
        }
      ],
      "name": "pendingReward",
      "outputs": [
        {
          "internalType": "uint256",
          "name": "",
          "type": "uint256"
        }
      ],
      "stateMutability": "view",
      "type": "function",
      "constant": true
    },
    {
      "inputs": [
        {
          "internalType": "uint256",
          "name": "_pid",
          "type": "uint256"
        }
      ],
      "name": "claimReward",
      "outputs": [],
      "stateMutability": "nonpayable",
      "type": "function"
    },
    {
      "inputs": [
        {
          "internalType": "uint256",
          "name": "_pid",
          "type": "uint256"
        },
        {
          "internalType": "uint256",
          "name": "_amount",
          "type": "uint256"
        }
      ],
      "name": "deposit",
      "outputs": [],
      "stateMutability": "nonpayable",
      "type": "function"
    },
    {
      "inputs": [
        {
          "internalType": "uint256",
          "name": "_pid",
          "type": "uint256"
        },
        {
          "internalType": "uint256",
          "name": "_amount",
          "type": "uint256"
        }
      ],
      "name": "withdraw",
      "outputs": [],
      "stateMutability": "nonpayable",
      "type": "function"
    },
    {
      "inputs": [
        {
          "internalType": "uint256",
          "name": "_pid",
          "type": "uint256"
        }
      ],
      "name": "emergencyWithdraw",
      "outputs": [],
      "stateMutability": "nonpayable",
      "type": "function"
    },
    {
      "inputs": [
        {
          "internalType": "uint256",
          "name": "_pid",
          "type": "uint256"
        }
      ],
      "name": "getPoolInfo",
      "outputs": [
        {
          "internalType": "uint256",
          "name": "",
          "type": "uint256"
        },
        {
          "internalType": "uint256",
          "name": "",
          "type": "uint256"
        },
        {
          "internalType": "address",
          "name": "",
          "type": "address"
        },
        {
          "internalType": "uint256",
          "name": "",
          "type": "uint256"
        },
        {
          "internalType": "uint256",
          "name": "",
          "type": "uint256"
        },
        {
          "internalType": "uint256",
          "name": "",
          "type": "uint256"
        },
        {
          "internalType": "uint256",
          "name": "",
          "type": "uint256"
        }
      ],
      "stateMutability": "view",
      "type": "function",
      "constant": true
    },
    {
      "inputs": [
        {
          "internalType": "uint256",
          "name": "_pid",
          "type": "uint256"
        }
      ],
      "name": "getUserInfo",
      "outputs": [
        {
          "internalType": "uint256",
          "name": "",
          "type": "uint256"
        },
        {
          "internalType": "uint256",
          "name": "",
          "type": "uint256"
        },
        {
          "internalType": "uint256",
          "name": "",
          "type": "uint256"
        }
      ],
      "stateMutability": "view",
      "type": "function",
      "constant": true
    },
    {
      "inputs": [
        {
          "internalType": "uint256",
          "name": "pid",
          "type": "uint256"
        }
      ],
      "name": "stopPool",
      "outputs": [],
      "stateMutability": "nonpayable",
      "type": "function"
    },
    {
      "inputs": [
        {
          "internalType": "uint256",
          "name": "pid",
          "type": "uint256"
        }
      ],
      "name": "activePool",
      "outputs": [],
      "stateMutability": "nonpayable",
      "type": "function"
    },
    {
      "inputs": [
        {
          "internalType": "uint256",
          "name": "pid",
          "type": "uint256"
        },
        {
          "internalType": "uint256",
          "name": "_multiplier",
          "type": "uint256"
        }
      ],
      "name": "changeMultiplier",
      "outputs": [],
      "stateMutability": "nonpayable",
      "type": "function"
    },
    {
      "inputs": [],
      "name": "countActivePool",
      "outputs": [
        {
          "internalType": "uint256",
          "name": "",
          "type": "uint256"
        }
      ],
      "stateMutability": "view",
      "type": "function",
      "constant": true
    },
    {
      "inputs": [],
      "name": "countTotalMultiplier",
      "outputs": [
        {
          "internalType": "uint256",
          "name": "",
          "type": "uint256"
        }
      ],
      "stateMutability": "view",
      "type": "function",
      "constant": true
    }
  ],
  "bytecode": "0x6080604052604051806060016040528060218152602001620032256021913960019080519060200190620000359291906200018c565b503480156200004357600080fd5b506040516200324638038062003246833981810160405260408110156200006957600080fd5b8101908080519060200190929190805190602001909291905050506000620000966200018460201b60201c565b9050806000806101000a81548173ffffffffffffffffffffffffffffffffffffffff021916908373ffffffffffffffffffffffffffffffffffffffff1602179055508073ffffffffffffffffffffffffffffffffffffffff16600073ffffffffffffffffffffffffffffffffffffffff167f8be0079c531659141344cd1fd0a4f28419497f9722a3daafe3b4186f6b6457e060405160405180910390a35081600260006101000a81548173ffffffffffffffffffffffffffffffffffffffff021916908373ffffffffffffffffffffffffffffffffffffffff1602179055508060038190555050506200023b565b600033905090565b828054600181600116156101000203166002900490600052602060002090601f016020900481019282601f10620001cf57805160ff191683800117855562000200565b8280016001018555821562000200579182015b82811115620001ff578251825591602001919060010190620001e2565b5b5090506200020f919062000213565b5090565b6200023891905b80821115620002345760008160009055506001016200021a565b5090565b90565b612fda806200024b6000396000f3fe6080604052600436106101a05760003560e01c806388f4480b116100ec5780639bb87b921161008a578063ce2529c911610064578063ce2529c9146108a8578063d379dadf1461090d578063e2bbb1581461096a578063f2fde38b146109af576101a7565b80639bb87b92146107fd578063ae169a5014610842578063c647e31f1461087d576101a7565b8063938cdba5116100c6578063938cdba51461068657806393f1a40b146106df57806396365d441461076357806398969e821461078e576101a7565b806388f4480b146105d55780638da5cb5b146106005780638f32d59b14610657576101a7565b806346a2123a116101595780635729bd4c116101335780635729bd4c14610515578063630b5ba1146105505780636f55b35014610567578063715018a6146105be576101a7565b806346a2123a1461044a5780635101e128146104755780635312ea8e146104da576101a7565b806306fdde03146101ac5780630f4d03571461023c5780631526fe27146102775780632f380b351461033557806339b3e826146103da578063441a3e7014610405576101a7565b366101a757005b600080fd5b3480156101b857600080fd5b506101c1610a00565b6040518080602001828103825283818151815260200191508051906020019080838360005b838110156102015780820151818401526020810190506101e6565b50505050905090810190601f16801561022e5780820380516001836020036101000a031916815260200191505b509250505060405180910390f35b34801561024857600080fd5b506102756004803603602081101561025f57600080fd5b8101908080359060200190929190505050610a9e565b005b34801561028357600080fd5b506102b06004803603602081101561029a57600080fd5b8101908080359060200190929190505050610b61565b604051808b73ffffffffffffffffffffffffffffffffffffffff1673ffffffffffffffffffffffffffffffffffffffff1681526020018a8152602001898152602001888152602001878152602001868152602001858152602001848152602001838152602001821515151581526020019a505050505050505050505060405180910390f35b34801561034157600080fd5b5061036e6004803603602081101561035857600080fd5b8101908080359060200190929190505050610bef565b604051808881526020018781526020018673ffffffffffffffffffffffffffffffffffffffff1673ffffffffffffffffffffffffffffffffffffffff16815260200185815260200184815260200183815260200182815260200197505050505050505060405180910390f35b3480156103e657600080fd5b506103ef610de3565b6040518082815260200191505060405180910390f35b34801561041157600080fd5b506104486004803603604081101561042857600080fd5b810190808035906020019092919080359060200190929190505050610de9565b005b34801561045657600080fd5b5061045f611069565b6040518082815260200191505060405180910390f35b34801561048157600080fd5b506104d86004803603606081101561049857600080fd5b81019080803573ffffffffffffffffffffffffffffffffffffffff1690602001909291908035906020019092919080359060200190929190505050611107565b005b3480156104e657600080fd5b50610513600480360360208110156104fd57600080fd5b81019080803590602001909291905050506113d4565b005b34801561052157600080fd5b5061054e6004803603602081101561053857600080fd5b81019080803590602001909291905050506114b3565b005b34801561055c57600080fd5b50610565611577565b005b34801561057357600080fd5b5061057c6115fa565b604051808273ffffffffffffffffffffffffffffffffffffffff1673ffffffffffffffffffffffffffffffffffffffff16815260200191505060405180910390f35b3480156105ca57600080fd5b506105d3611620565b005b3480156105e157600080fd5b506105ea611759565b6040518082815260200191505060405180910390f35b34801561060c57600080fd5b506106156117c2565b604051808273ffffffffffffffffffffffffffffffffffffffff1673ffffffffffffffffffffffffffffffffffffffff16815260200191505060405180910390f35b34801561066357600080fd5b5061066c6117eb565b604051808215151515815260200191505060405180910390f35b34801561069257600080fd5b506106c9600480360360408110156106a957600080fd5b810190808035906020019092919080359060200190929190505050611849565b6040518082815260200191505060405180910390f35b3480156106eb57600080fd5b506107386004803603604081101561070257600080fd5b8101908080359060200190929190803573ffffffffffffffffffffffffffffffffffffffff169060200190929190505050611901565b6040518085815260200184815260200183815260200182815260200194505050505060405180910390f35b34801561076f57600080fd5b5061077861193e565b6040518082815260200191505060405180910390f35b34801561079a57600080fd5b506107e7600480360360408110156107b157600080fd5b8101908080359060200190929190803573ffffffffffffffffffffffffffffffffffffffff169060200190929190505050611a1f565b6040518082815260200191505060405180910390f35b34801561080957600080fd5b506108406004803603604081101561082057600080fd5b810190808035906020019092919080359060200190929190505050611c6d565b005b34801561084e57600080fd5b5061087b6004803603602081101561086557600080fd5b8101908080359060200190929190505050611d14565b005b34801561088957600080fd5b50610892611dda565b6040518082815260200191505060405180910390f35b3480156108b457600080fd5b506108f7600480360360208110156108cb57600080fd5b81019080803573ffffffffffffffffffffffffffffffffffffffff169060200190929190505050611e60565b6040518082815260200191505060405180910390f35b34801561091957600080fd5b506109466004803603602081101561093057600080fd5b8101908080359060200190929190505050611e78565b60405180848152602001838152602001828152602001935050505060405180910390f35b34801561097657600080fd5b506109ad6004803603604081101561098d57600080fd5b810190808035906020019092919080359060200190929190505050611f27565b005b3480156109bb57600080fd5b506109fe600480360360208110156109d257600080fd5b81019080803573ffffffffffffffffffffffffffffffffffffffff1690602001909291905050506120ce565b005b60018054600181600116156101000203166002900480601f016020809104026020016040519081016040528092919081815260200182805460018160011615610100020316600290048015610a965780601f10610a6b57610100808354040283529160200191610a96565b820191906000526020600020905b815481529060010190602001808311610a7957829003601f168201915b505050505081565b610aa66117eb565b610b18576040517f08c379a00000000000000000000000000000000000000000000000000000000081526004018080602001828103825260208152602001807f4f776e61626c653a2063616c6c6572206973206e6f7420746865206f776e657281525060200191505060405180910390fd5b600060048281548110610b2757fe5b90600052602060002090600a0201905060008160090160006101000a81548160ff0219169083151502179055504281600701819055505050565b60048181548110610b6e57fe5b90600052602060002090600a02016000915090508060000160009054906101000a900473ffffffffffffffffffffffffffffffffffffffff16908060010154908060020154908060030154908060040154908060050154908060060154908060070154908060080154908060090160009054906101000a900460ff1690508a565b600080600080600080600060048881548110610c0757fe5b90600052602060002090600a02016003015460048981548110610c2657fe5b90600052602060002090600a02016001015460048a81548110610c4557fe5b90600052602060002090600a020160000160009054906101000a900473ffffffffffffffffffffffffffffffffffffffff1660048b81548110610c8457fe5b90600052602060002090600a02016002015460048c81548110610ca357fe5b90600052602060002090600a02016006015460048d81548110610cc257fe5b90600052602060002090600a02016005015460048e81548110610ce157fe5b90600052602060002090600a020160000160009054906101000a900473ffffffffffffffffffffffffffffffffffffffff1673ffffffffffffffffffffffffffffffffffffffff166370a08231306040518263ffffffff1660e01b8152600401808273ffffffffffffffffffffffffffffffffffffffff1673ffffffffffffffffffffffffffffffffffffffff16815260200191505060206040518083038186803b158015610d8f57600080fd5b505afa158015610da3573d6000803e3d6000fd5b505050506040513d6020811015610db957600080fd5b81019080805190602001909291905050509650965096509650965096509650919395979092949650565b60035481565b600060048381548110610df857fe5b90600052602060002090600a0201905060006006600085815260200190815260200160002060003373ffffffffffffffffffffffffffffffffffffffff1673ffffffffffffffffffffffffffffffffffffffff16815260200190815260200160002090508281600001541015610eb9576040517f08c379a000000000000000000000000000000000000000000000000000000000815260040180806020018281038252602b815260200180612e99602b913960400191505060405180910390fd5b600083111561106357610eca611577565b610ed384612154565b610f2233848460000160009054906101000a900473ffffffffffffffffffffffffffffffffffffffff1673ffffffffffffffffffffffffffffffffffffffff166123ee9092919063ffffffff16565b8160000160009054906101000a900473ffffffffffffffffffffffffffffffffffffffff1673ffffffffffffffffffffffffffffffffffffffff166370a08231306040518263ffffffff1660e01b8152600401808273ffffffffffffffffffffffffffffffffffffffff1673ffffffffffffffffffffffffffffffffffffffff16815260200191505060206040518083038186803b158015610fc357600080fd5b505afa158015610fd7573d6000803e3d6000fd5b505050506040513d6020811015610fed57600080fd5b8101908080519060200190929190505050826004018190555061101d8382600001546124a690919063ffffffff16565b816000018190555061105a670de0b6b3a764000061104c846005015484600001546124f090919063ffffffff16565b61257690919063ffffffff16565b81600101819055505b50505050565b6000806000905060008090505b6004805490508110156110e5576004818154811061109057fe5b90600052602060002090600a020160090160009054906101000a900460ff16156110d857600481815481106110c157fe5b90600052602060002090600a020160010154820191505b8080600101915050611076565b50611101670de0b6b3a7640000826124f090919063ffffffff16565b91505090565b61110f6117eb565b611181576040517f08c379a00000000000000000000000000000000000000000000000000000000081526004018080602001828103825260208152602001807f4f776e61626c653a2063616c6c6572206973206e6f7420746865206f776e657281525060200191505060405180910390fd5b6000600560008573ffffffffffffffffffffffffffffffffffffffff1673ffffffffffffffffffffffffffffffffffffffff1681526020019081526020016000205414611219576040517f08c379a0000000000000000000000000000000000000000000000000000000008152600401808060200182810382526031815260200180612f296031913960400191505060405180910390fd5b6000600354431161122c5760035461122e565b435b9050600160048054905001600560008673ffffffffffffffffffffffffffffffffffffffff1673ffffffffffffffffffffffffffffffffffffffff1681526020019081526020016000208190555060046040518061014001604052808673ffffffffffffffffffffffffffffffffffffffff16815260200185815260200160008152602001838152602001600081526020016000815260200184815260200160008152602001600081526020016001151581525090806001815401808255809150506001900390600052602060002090600a020160009091909190915060008201518160000160006101000a81548173ffffffffffffffffffffffffffffffffffffffff021916908373ffffffffffffffffffffffffffffffffffffffff1602179055506020820151816001015560408201518160020155606082015181600301556080820151816004015560a0820151816005015560c0820151816006015560e0820151816007015561010082015181600801556101208201518160090160006101000a81548160ff02191690831515021790555050506113ce611577565b50505050565b6000600482815481106113e357fe5b90600052602060002090600a0201905060006006600084815260200190815260200160002060003373ffffffffffffffffffffffffffffffffffffffff1673ffffffffffffffffffffffffffffffffffffffff168152602001908152602001600020905061149a3382600001548460000160009054906101000a900473ffffffffffffffffffffffffffffffffffffffff1673ffffffffffffffffffffffffffffffffffffffff166123ee9092919063ffffffff16565b6000816000018190555060008160010181905550505050565b6114bb6117eb565b61152d576040517f08c379a00000000000000000000000000000000000000000000000000000000081526004018080602001828103825260208152602001807f4f776e61626c653a2063616c6c6572206973206e6f7420746865206f776e657281525060200191505060405180910390fd5b60006004828154811061153c57fe5b90600052602060002090600a0201905060018160090160006101000a81548160ff021916908315150217905550600081600701819055505050565b60006004805490509050600061158b611069565b905060008090505b828110156115f557600481815481106115a857fe5b90600052602060002090600a020160090160009054906101000a900460ff16156115e85760006115d88284611849565b90506115e6828260016125c0565b505b8080600101915050611593565b505050565b600260009054906101000a900473ffffffffffffffffffffffffffffffffffffffff1681565b6116286117eb565b61169a576040517f08c379a00000000000000000000000000000000000000000000000000000000081526004018080602001828103825260208152602001807f4f776e61626c653a2063616c6c6572206973206e6f7420746865206f776e657281525060200191505060405180910390fd5b600073ffffffffffffffffffffffffffffffffffffffff166000809054906101000a900473ffffffffffffffffffffffffffffffffffffffff1673ffffffffffffffffffffffffffffffffffffffff167f8be0079c531659141344cd1fd0a4f28419497f9722a3daafe3b4186f6b6457e060405160405180910390a360008060006101000a81548173ffffffffffffffffffffffffffffffffffffffff021916908373ffffffffffffffffffffffffffffffffffffffff160217905550565b6000806000905060008090505b6004805490508110156117ba576004818154811061178057fe5b90600052602060002090600a020160090160009054906101000a900460ff16156117ad5781806001019250505b8080600101915050611766565b508091505090565b60008060009054906101000a900473ffffffffffffffffffffffffffffffffffffffff16905090565b60008060009054906101000a900473ffffffffffffffffffffffffffffffffffffffff1673ffffffffffffffffffffffffffffffffffffffff1661182d612793565b73ffffffffffffffffffffffffffffffffffffffff1614905090565b600080600083141561185e57600090506118ea565b600061186861193e565b90506000611874611dda565b90506118e5856118d7670de0b6b3a76400006118c960048b8154811061189657fe5b90600052602060002090600a0201600101546118bb87896124a690919063ffffffff16565b6124f090919063ffffffff16565b6124f090919063ffffffff16565b61257690919063ffffffff16565b925050505b600081116118f757600090505b8091505092915050565b6006602052816000526040600020602052806000526040600020600091509150508060000154908060010154908060020154908060030154905084565b6000600260009054906101000a900473ffffffffffffffffffffffffffffffffffffffff1673ffffffffffffffffffffffffffffffffffffffff166370a08231306040518263ffffffff1660e01b8152600401808273ffffffffffffffffffffffffffffffffffffffff1673ffffffffffffffffffffffffffffffffffffffff16815260200191505060206040518083038186803b1580156119df57600080fd5b505afa1580156119f3573d6000803e3d6000fd5b505050506040513d6020811015611a0957600080fd5b8101908080519060200190929190505050905090565b60008060048481548110611a2f57fe5b90600052602060002090600a0201905060006006600086815260200190815260200160002060008573ffffffffffffffffffffffffffffffffffffffff1673ffffffffffffffffffffffffffffffffffffffff168152602001908152602001600020905060008260050154905060008360000160009054906101000a900473ffffffffffffffffffffffffffffffffffffffff1673ffffffffffffffffffffffffffffffffffffffff166370a08231306040518263ffffffff1660e01b8152600401808273ffffffffffffffffffffffffffffffffffffffff1673ffffffffffffffffffffffffffffffffffffffff16815260200191505060206040518083038186803b158015611b3f57600080fd5b505afa158015611b53573d6000803e3d6000fd5b505050506040513d6020811015611b6957600080fd5b810190808051906020019092919050505090506000846005015490506000611b8f611069565b9050856003015443118015611ba45750600083115b15611bf857611bf5611be284611bd4670de0b6b3a7640000611bc68e87611849565b6124f090919063ffffffff16565b61257690919063ffffffff16565b876005015461279b90919063ffffffff16565b91505b6000611c5b670de0b6b3a7640000611c4d611c28670de0b6b3a76400008a600101546124f090919063ffffffff16565b611c3f878b600001546124f090919063ffffffff16565b6124a690919063ffffffff16565b61257690919063ffffffff16565b90508097505050505050505092915050565b611c756117eb565b611ce7576040517f08c379a00000000000000000000000000000000000000000000000000000000081526004018080602001828103825260208152602001807f4f776e61626c653a2063616c6c6572206973206e6f7420746865206f776e657281525060200191505060405180910390fd5b600060048381548110611cf657fe5b90600052602060002090600a02019050818160010181905550505050565b600060048281548110611d2357fe5b90600052602060002090600a0201905060006006600084815260200190815260200160002060003373ffffffffffffffffffffffffffffffffffffffff1673ffffffffffffffffffffffffffffffffffffffff1681526020019081526020016000209050611d8f611577565b611d9883612154565b611dcd670de0b6b3a7640000611dbf846005015484600001546124f090919063ffffffff16565b61257690919063ffffffff16565b8160010181905550505050565b6000806000600480549050905060008090505b81811015611e575760048181548110611e0257fe5b90600052602060002090600a020160090160009054906101000a900460ff1615611e4a5760048181548110611e3357fe5b90600052602060002090600a020160020154830192505b8080600101915050611ded565b50819250505090565b60056020528060005260406000206000915090505481565b6000806000611e85612e70565b6006600086815260200190815260200160002060003373ffffffffffffffffffffffffffffffffffffffff1673ffffffffffffffffffffffffffffffffffffffff1681526020019081526020016000206040518060800160405290816000820154815260200160018201548152602001600282015481526020016003820154815250509050806000015181602001518260600151935093509350509193909250565b60008111611f80576040517f08c379a000000000000000000000000000000000000000000000000000000000815260040180806020018281038252603f815260200180612ec4603f913960400191505060405180910390fd5b600060048381548110611f8f57fe5b90600052602060002090600a0201905060006006600085815260200190815260200160002060003373ffffffffffffffffffffffffffffffffffffffff1673ffffffffffffffffffffffffffffffffffffffff16815260200190815260200160002090506120443330858560000160009054906101000a900473ffffffffffffffffffffffffffffffffffffffff1673ffffffffffffffffffffffffffffffffffffffff16612823909392919063ffffffff16565b61204c611577565b61205584612154565b60008160000154141561206c574381600201819055505b61208383826000015461279b90919063ffffffff16565b81600001819055506120c0670de0b6b3a76400006120b2846005015484600001546124f090919063ffffffff16565b61257690919063ffffffff16565b816001018190555050505050565b6120d66117eb565b612148576040517f08c379a00000000000000000000000000000000000000000000000000000000081526004018080602001828103825260208152602001807f4f776e61626c653a2063616c6c6572206973206e6f7420746865206f776e657281525060200191505060405180910390fd5b61215181612910565b50565b60006004828154811061216357fe5b90600052602060002090600a0201905060006006600084815260200190815260200160002060003373ffffffffffffffffffffffffffffffffffffffff1673ffffffffffffffffffffffffffffffffffffffff16815260200190815260200160002090506000816000015411156123e95760006121e08433611a1f565b905060006121ec61193e565b9050808211156121fa578091505b60008211156123cb57600260009054906101000a900473ffffffffffffffffffffffffffffffffffffffff1673ffffffffffffffffffffffffffffffffffffffff1663a9059cbb33846040518363ffffffff1660e01b8152600401808373ffffffffffffffffffffffffffffffffffffffff1673ffffffffffffffffffffffffffffffffffffffff16815260200182815260200192505050602060405180830381600087803b1580156122ac57600080fd5b505af11580156122c0573d6000803e3d6000fd5b505050506040513d60208110156122d657600080fd5b810190808051906020019092919050505050600260009054906101000a900473ffffffffffffffffffffffffffffffffffffffff1673ffffffffffffffffffffffffffffffffffffffff166370a08231306040518263ffffffff1660e01b8152600401808273ffffffffffffffffffffffffffffffffffffffff1673ffffffffffffffffffffffffffffffffffffffff16815260200191505060206040518083038186803b15801561238757600080fd5b505afa15801561239b573d6000803e3d6000fd5b505050506040513d60208110156123b157600080fd5b810190808051906020019092919050505084600201819055505b43836002018190555081836003016000828254019250508190555050505b505050565b6124a18363a9059cbb60e01b8484604051602401808373ffffffffffffffffffffffffffffffffffffffff1673ffffffffffffffffffffffffffffffffffffffff16815260200182815260200192505050604051602081830303815290604052907bffffffffffffffffffffffffffffffffffffffffffffffffffffffff19166020820180517bffffffffffffffffffffffffffffffffffffffffffffffffffffffff8381831617835250505050612a54565b505050565b60006124e883836040518060400160405280601e81526020017f536166654d6174683a207375627472616374696f6e206f766572666c6f770000815250612c9f565b905092915050565b6000808314156125035760009050612570565b600082840290508284828161251457fe5b041461256b576040517f08c379a0000000000000000000000000000000000000000000000000000000008152600401808060200182810382526021815260200180612f5a6021913960400191505060405180910390fd5b809150505b92915050565b60006125b883836040518060400160405280601a81526020017f536166654d6174683a206469766973696f6e206279207a65726f000000000000815250612d5f565b905092915050565b6000600484815481106125cf57fe5b90600052602060002090600a02019050806003015443111580156125f35750600182145b156125fe575061278e565b600081600401549050600081141561261f576000826005018190555061266b565b61266261264f82612641670de0b6b3a7640000886124f090919063ffffffff16565b61257690919063ffffffff16565b836005015461279b90919063ffffffff16565b82600501819055505b4382600301819055506001831415612694578382600201600082825401925050819055506126a7565b8382600201600082825403925050819055505b8160000160009054906101000a900473ffffffffffffffffffffffffffffffffffffffff1673ffffffffffffffffffffffffffffffffffffffff166370a08231306040518263ffffffff1660e01b8152600401808273ffffffffffffffffffffffffffffffffffffffff1673ffffffffffffffffffffffffffffffffffffffff16815260200191505060206040518083038186803b15801561274857600080fd5b505afa15801561275c573d6000803e3d6000fd5b505050506040513d602081101561277257600080fd5b8101908080519060200190929190505050826004018190555050505b505050565b600033905090565b600080828401905083811015612819576040517f08c379a000000000000000000000000000000000000000000000000000000000815260040180806020018281038252601b8152602001807f536166654d6174683a206164646974696f6e206f766572666c6f77000000000081525060200191505060405180910390fd5b8091505092915050565b61290a846323b872dd60e01b858585604051602401808473ffffffffffffffffffffffffffffffffffffffff1673ffffffffffffffffffffffffffffffffffffffff1681526020018373ffffffffffffffffffffffffffffffffffffffff1673ffffffffffffffffffffffffffffffffffffffff1681526020018281526020019350505050604051602081830303815290604052907bffffffffffffffffffffffffffffffffffffffffffffffffffffffff19166020820180517bffffffffffffffffffffffffffffffffffffffffffffffffffffffff8381831617835250505050612a54565b50505050565b600073ffffffffffffffffffffffffffffffffffffffff168173ffffffffffffffffffffffffffffffffffffffff161415612996576040517f08c379a0000000000000000000000000000000000000000000000000000000008152600401808060200182810382526026815260200180612f036026913960400191505060405180910390fd5b8073ffffffffffffffffffffffffffffffffffffffff166000809054906101000a900473ffffffffffffffffffffffffffffffffffffffff1673ffffffffffffffffffffffffffffffffffffffff167f8be0079c531659141344cd1fd0a4f28419497f9722a3daafe3b4186f6b6457e060405160405180910390a3806000806101000a81548173ffffffffffffffffffffffffffffffffffffffff021916908373ffffffffffffffffffffffffffffffffffffffff16021790555050565b612a738273ffffffffffffffffffffffffffffffffffffffff16612e25565b612ae5576040517f08c379a000000000000000000000000000000000000000000000000000000000815260040180806020018281038252601f8152602001807f5361666545524332303a2063616c6c20746f206e6f6e2d636f6e74726163740081525060200191505060405180910390fd5b600060608373ffffffffffffffffffffffffffffffffffffffff16836040518082805190602001908083835b60208310612b345780518252602082019150602081019050602083039250612b11565b6001836020036101000a0380198251168184511680821785525050505050509050019150506000604051808303816000865af19150503d8060008114612b96576040519150601f19603f3d011682016040523d82523d6000602084013e612b9b565b606091505b509150915081612c13576040517f08c379a00000000000000000000000000000000000000000000000000000000081526004018080602001828103825260208152602001807f5361666545524332303a206c6f772d6c6576656c2063616c6c206661696c656481525060200191505060405180910390fd5b600081511115612c9957808060200190516020811015612c3257600080fd5b8101908080519060200190929190505050612c98576040517f08c379a000000000000000000000000000000000000000000000000000000000815260040180806020018281038252602a815260200180612f7b602a913960400191505060405180910390fd5b5b50505050565b6000838311158290612d4c576040517f08c379a00000000000000000000000000000000000000000000000000000000081526004018080602001828103825283818151815260200191508051906020019080838360005b83811015612d11578082015181840152602081019050612cf6565b50505050905090810190601f168015612d3e5780820380516001836020036101000a031916815260200191505b509250505060405180910390fd5b5060008385039050809150509392505050565b60008083118290612e0b576040517f08c379a00000000000000000000000000000000000000000000000000000000081526004018080602001828103825283818151815260200191508051906020019080838360005b83811015612dd0578082015181840152602081019050612db5565b50505050905090810190601f168015612dfd5780820380516001836020036101000a031916815260200191505b509250505060405180910390fd5b506000838581612e1757fe5b049050809150509392505050565b60008060007fc5d2460186f7233c927e7db2dcc703c0e500b653ca82273b7bfad8045d85a47060001b9050833f9150808214158015612e6757506000801b8214155b92505050919050565b604051806080016040528060008152602001600081526020016000815260200160008152509056fe506f6c6b614272696467654d61737465724661726d65723a3a77697468647261773a206e6f7420676f6f64506f6c6b614272696467654d61737465724661726d65723a3a6465706f7369743a20616d6f756e74206d7573742062652067726561746572207468616e20304f776e61626c653a206e6577206f776e657220697320746865207a65726f2061646472657373506f6c6b614272696467654d61737465724661726d3a3a6164643a206c7020697320616c726561647920696e20706f6f6c536166654d6174683a206d756c7469706c69636174696f6e206f766572666c6f775361666545524332303a204552433230206f7065726174696f6e20646964206e6f742073756363656564a2646970667358221220a45829b40d4799cd6bd1b7b5c4d456921d45be79499da01077afc784d983a2aa64736f6c63430006020033506f6c6b614272696467653a204465666c6174696f6e617279204661726d696e67",
  "source": "pragma solidity >=0.6.0;\r\n\r\nimport \"@openzeppelin/contracts/token/ERC20/SafeERC20.sol\";\r\nimport \"@openzeppelin/contracts/math/SafeMath.sol\";\r\nimport \"@openzeppelin/contracts/ownership/Ownable.sol\";\r\nimport \"./PolkaBridge.sol\";\r\n\r\n// import \"@chainlink/contracts/src/v0.6/interfaces/AggregatorV3Interface.sol\";\r\n//import \"@openzeppelin/contracts/token/ERC20/ERC20.sol\";\r\n//import \"@uniswap/v2-periphery/contracts/interfaces/IUniswapV2Router02.sol\";\r\n\r\ncontract PolkaBridgeMasterFarm is Ownable {\r\n    string public name = \"PolkaBridge: Deflationary Farming\";\r\n    using SafeMath for uint256;\r\n    using SafeERC20 for IERC20;\r\n\r\n    struct UserInfo {\r\n        uint256 amountLP;\r\n        uint256 rewardDebt;\r\n        uint256 rewardDebtAtBlock;\r\n        uint256 rewardClaimed;\r\n    }\r\n\r\n    struct PoolInfo {\r\n        IERC20 lpToken;\r\n        uint256 multiplier;\r\n        uint256 lastPoolReward; //history pool reward\r\n        uint256 lastRewardBlock;\r\n        uint256 lastLPBalance;\r\n        uint256 accPBRPerShare;\r\n        uint256 startDate;\r\n        uint256 stopDate;\r\n        uint256 totalRewardClaimed;\r\n        bool isActived;\r\n    }\r\n\r\n    PolkaBridge public polkaBridge;\r\n    uint256 public START_BLOCK;\r\n\r\n    //pool Info\r\n    PoolInfo[] public poolInfo;\r\n    mapping(address => uint256) public poolId1;\r\n    // Info of each user that stakes LP tokens. pid => user address => info\r\n    mapping(uint256 => mapping(address => UserInfo)) public userInfo;\r\n\r\n    constructor(PolkaBridge _polkaBridge, uint256 _startBlock) public {\r\n        polkaBridge = _polkaBridge;\r\n        START_BLOCK = _startBlock;\r\n    }\r\n\r\n    function poolBalance() public view returns (uint256) {\r\n        return polkaBridge.balanceOf(address(this));\r\n    }\r\n\r\n    // Add a new lp to the pool. Can only be called by the owner.\r\n    function add(IERC20 _lpToken, uint256 _multiplier, uint256 _startDate) public onlyOwner {\r\n        require(\r\n            poolId1[address(_lpToken)] == 0,\r\n            \"PolkaBridgeMasterFarm::add: lp is already in pool\"\r\n        );\r\n\r\n        uint256 _lastRewardBlock =\r\n            block.number > START_BLOCK ? block.number : START_BLOCK;\r\n\r\n        poolId1[address(_lpToken)] = poolInfo.length + 1;\r\n        poolInfo.push(\r\n            PoolInfo({\r\n                lpToken: _lpToken,\r\n                multiplier: _multiplier,\r\n                lastRewardBlock: _lastRewardBlock,\r\n                lastPoolReward: 0,\r\n                lastLPBalance: 0,\r\n                accPBRPerShare: 0,\r\n                startDate: _startDate,\r\n                stopDate: 0,\r\n                totalRewardClaimed: 0,\r\n                isActived: true\r\n            })\r\n        );\r\n\r\n        massUpdatePools();\r\n    }\r\n\r\n    function getChangePoolReward(uint256 _pid, uint256 _totalMultiplier) public view returns (uint256) {\r\n        uint256 changePoolReward;\r\n        if (_totalMultiplier == 0) {\r\n            changePoolReward = 0;\r\n        }\r\n        else {\r\n            uint256 poolBalance = poolBalance();\r\n            uint256 totalLastPoolReward = getTotalLastPoolReward();\r\n            changePoolReward = ((poolBalance.sub(totalLastPoolReward)).mul(poolInfo[_pid].multiplier).mul(1e18)).div(_totalMultiplier);\r\n        }\r\n\r\n        if (changePoolReward <= 0) {\r\n            changePoolReward = 0;\r\n        }\r\n\r\n        return changePoolReward;\r\n    }\r\n\r\n    function massUpdatePools() public {\r\n        uint256 length = poolInfo.length;\r\n        uint256 totalMultiplier = countTotalMultiplier();\r\n        for (uint256 pid = 0; pid < length; pid++) {\r\n            if (poolInfo[pid].isActived) {\r\n                uint256 changePoolReward = getChangePoolReward(pid, totalMultiplier);\r\n                updatePool(pid, changePoolReward, 1);\r\n            }\r\n        }\r\n    }\r\n\r\n    function getTotalLastPoolReward() public view returns (uint256) {\r\n        uint256 total;\r\n        uint256 length = poolInfo.length;\r\n        for (uint256 pid = 0; pid < length; pid++) {\r\n            if (poolInfo[pid].isActived) {\r\n                total += poolInfo[pid].lastPoolReward;\r\n            }\r\n        }\r\n        return total;\r\n    }\r\n\r\n    // Update reward variables of the given pool to be up-to-date.\r\n    function updatePool(\r\n        uint256 _pid,\r\n        uint256 _changePoolReward,\r\n        uint256 flag\r\n    ) internal {\r\n        PoolInfo storage pool = poolInfo[_pid];\r\n        if (block.number <= pool.lastRewardBlock && flag==1) {\r\n            return;\r\n        }\r\n        uint256 lpSupply = pool.lastLPBalance;\r\n        if (lpSupply == 0) { // first deposit\r\n            pool.accPBRPerShare = 0;\r\n        } else {\r\n            pool.accPBRPerShare = pool.accPBRPerShare.add(\r\n                (_changePoolReward.mul(1e18).div(lpSupply))\r\n            );\r\n        }\r\n        pool.lastRewardBlock = block.number;\r\n\r\n        if (flag == 1) {\r\n            pool.lastPoolReward += _changePoolReward;\r\n        } else {\r\n            pool.lastPoolReward -= _changePoolReward;\r\n        }\r\n\r\n        pool.lastLPBalance = pool.lpToken.balanceOf(address(this));\r\n    }\r\n\r\n    function pendingReward(uint256 _pid, address _user)\r\n        public\r\n        view\r\n        returns (uint256)\r\n    {\r\n        PoolInfo storage pool = poolInfo[_pid];\r\n        UserInfo storage user = userInfo[_pid][_user];\r\n        uint256 accPBRPerShare = pool.accPBRPerShare;\r\n        uint256 lpSupply = pool.lpToken.balanceOf(address(this));\r\n        uint256 temptAccPBRPerShare = pool.accPBRPerShare;\r\n        uint256 totalMultiplier = countTotalMultiplier();\r\n\r\n        if (block.number > pool.lastRewardBlock && lpSupply > 0) {\r\n            temptAccPBRPerShare = pool.accPBRPerShare.add(\r\n                (getChangePoolReward(_pid, totalMultiplier).mul(1e18).div(lpSupply))\r\n            );\r\n        }\r\n\r\n        uint256 pending = (\r\n                user.amountLP.mul(temptAccPBRPerShare).sub(\r\n                    user.rewardDebt.mul(1e18)\r\n                )\r\n            ).div(1e18);\r\n\r\n        return pending;\r\n    }\r\n\r\n    function claimReward(uint256 _pid) public {\r\n        PoolInfo storage pool = poolInfo[_pid];\r\n        UserInfo storage user = userInfo[_pid][msg.sender];\r\n\r\n        massUpdatePools();\r\n        _harvest(_pid);\r\n\r\n        user.rewardDebt = user.amountLP.mul(pool.accPBRPerShare).div(1e18);\r\n    }\r\n\r\n    function _harvest(uint256 _pid) internal {\r\n        PoolInfo storage pool = poolInfo[_pid];\r\n        UserInfo storage user = userInfo[_pid][msg.sender];\r\n\r\n        if (user.amountLP > 0) {\r\n            uint256 pending = pendingReward(_pid, msg.sender);\r\n            uint256 masterBal = poolBalance();\r\n\r\n            if (pending > masterBal) {\r\n                pending = masterBal;\r\n            }\r\n\r\n            if (pending > 0) {\r\n                polkaBridge.transfer(msg.sender, pending);\r\n                pool.lastPoolReward = polkaBridge.balanceOf(address(this));\r\n            }\r\n\r\n            user.rewardDebtAtBlock = block.number;\r\n            user.rewardClaimed += pending;\r\n        }\r\n    }\r\n\r\n    function deposit(uint256 _pid, uint256 _amount) public {\r\n        require(\r\n            _amount > 0,\r\n            \"PolkaBridgeMasterFarmer::deposit: amount must be greater than 0\"\r\n        );\r\n\r\n        PoolInfo storage pool = poolInfo[_pid];\r\n        UserInfo storage user = userInfo[_pid][msg.sender];\r\n\r\n        pool.lpToken.safeTransferFrom(\r\n            address(msg.sender),\r\n            address(this),\r\n            _amount\r\n        );\r\n\r\n        massUpdatePools();\r\n        _harvest(_pid);\r\n\r\n        if (user.amountLP == 0) {\r\n            user.rewardDebtAtBlock = block.number;\r\n        }\r\n\r\n        user.amountLP = user.amountLP.add(_amount);\r\n        user.rewardDebt = user.amountLP.mul(pool.accPBRPerShare).div(1e18);\r\n    }\r\n\r\n    function withdraw(uint256 _pid, uint256 _amount) public {\r\n        PoolInfo storage pool = poolInfo[_pid];\r\n        UserInfo storage user = userInfo[_pid][msg.sender];\r\n        require(\r\n            user.amountLP >= _amount,\r\n            \"PolkaBridgeMasterFarmer::withdraw: not good\"\r\n        );\r\n\r\n        if (_amount > 0) {\r\n            massUpdatePools();\r\n            _harvest(_pid);\r\n            pool.lpToken.safeTransfer(address(msg.sender), _amount);\r\n            pool.lastLPBalance = pool.lpToken.balanceOf(address(this));\r\n\r\n            // update pool\r\n            // updatePool(_pid, 0, 1);\r\n            user.amountLP = user.amountLP.sub(_amount);\r\n            user.rewardDebt = user.amountLP.mul(pool.accPBRPerShare).div(1e18);\r\n        }\r\n    }\r\n\r\n    function emergencyWithdraw(uint256 _pid) public {\r\n        PoolInfo storage pool = poolInfo[_pid];\r\n        UserInfo storage user = userInfo[_pid][msg.sender];\r\n        pool.lpToken.safeTransfer(address(msg.sender), user.amountLP);\r\n\r\n        user.amountLP = 0;\r\n        user.rewardDebt = 0;\r\n    }\r\n\r\n    function getPoolInfo(uint256 _pid)\r\n        public\r\n        view\r\n        returns (\r\n            uint256,\r\n            uint256,\r\n            address,\r\n            uint256,\r\n            uint256,\r\n            uint256,\r\n            // bool,\r\n            uint256\r\n        )\r\n    //uint256\r\n    {\r\n        return (\r\n            poolInfo[_pid].lastRewardBlock,\r\n            poolInfo[_pid].multiplier,\r\n            address(poolInfo[_pid].lpToken),\r\n            poolInfo[_pid].lastPoolReward,\r\n            poolInfo[_pid].startDate,\r\n            poolInfo[_pid].accPBRPerShare,\r\n            // poolInfo[_pid].isActived,\r\n            poolInfo[_pid].lpToken.balanceOf(address(this))\r\n            //poolInfo[_pid].lastLPBalance\r\n        );\r\n    }\r\n\r\n    function getUserInfo(uint256 _pid)\r\n        public\r\n        view\r\n        returns (\r\n            uint256,\r\n            uint256,\r\n            uint256\r\n        )\r\n    {\r\n        UserInfo memory user = userInfo[_pid][msg.sender];\r\n        return (user.amountLP, user.rewardDebt, user.rewardClaimed);\r\n    }\r\n\r\n    function stopPool(uint256 pid) public onlyOwner {\r\n        PoolInfo storage pool = poolInfo[pid];\r\n        pool.isActived = false;\r\n        pool.stopDate = block.timestamp;\r\n    }\r\n\r\n    function activePool(uint256 pid) public onlyOwner {\r\n        PoolInfo storage pool = poolInfo[pid];\r\n        pool.isActived = true;\r\n        pool.stopDate = 0;\r\n    }\r\n\r\n    function changeMultiplier(uint256 pid, uint256 _multiplier) public onlyOwner {\r\n        PoolInfo storage pool = poolInfo[pid];\r\n        pool.multiplier = _multiplier;\r\n    }\r\n\r\n    function countActivePool() public view returns (uint256) {\r\n        uint256 length = 0;\r\n        for (uint256 i = 0; i < poolInfo.length; i++) {\r\n            if (poolInfo[i].isActived) length++;\r\n        }\r\n        return length;\r\n    }\r\n\r\n    function countTotalMultiplier() public view returns (uint256) {\r\n        uint256 totalMultiplier = 0;\r\n        for (uint256 i = 0; i < poolInfo.length; i++) {\r\n            if (poolInfo[i].isActived) totalMultiplier += poolInfo[i].multiplier;\r\n        }\r\n        return totalMultiplier.mul(1e18);\r\n    }\r\n\r\n    receive() external payable {}\r\n}\r\n",
  "sourcePath": "C:/Users/thanhphi/Desktop/PolkaBridgeSolution/farming-app/contracts/PolkaBridgeMasterFarm.sol",
  "compiler": {
    "name": "solc",
    "version": "0.6.2+commit.bacdbe57.Emscripten.clang"
  },
  "schemaVersion": "3.3.3",
  "updatedAt": "2021-03-07T06:40:20.073Z",
  "networkType": "ethereum",
  "devdoc": {
    "methods": {
      "isOwner()": {
        "details": "Returns true if the caller is the current owner."
      },
      "owner()": {
        "details": "Returns the address of the current owner."
      },
      "renounceOwnership()": {
        "details": "Leaves the contract without owner. It will not be possible to call `onlyOwner` functions anymore. Can only be called by the current owner.     * NOTE: Renouncing ownership will leave the contract without an owner, thereby removing any functionality that is only available to the owner."
      },
      "transferOwnership(address)": {
        "details": "Transfers ownership of the contract to a new account (`newOwner`). Can only be called by the current owner."
      }
    }
  },
  "userdoc": {
    "methods": {}
  }
}