{
  "contractName": "PolkaBridgeMasterFarm",
  "abi": [
    {
      "inputs": [
        {
          "internalType": "contract PolkaBridge",
          "name": "_polkaBridge",
          "type": "address"
        },
        {
          "internalType": "uint256",
          "name": "_startBlock",
          "type": "uint256"
        }
      ],
      "stateMutability": "nonpayable",
      "type": "constructor"
    },
    {
      "anonymous": false,
      "inputs": [
        {
          "indexed": false,
          "internalType": "uint256",
          "name": "pid",
          "type": "uint256"
        }
      ],
      "name": "ActivePool",
      "type": "event"
    },
    {
      "anonymous": false,
      "inputs": [
        {
          "indexed": false,
          "internalType": "uint256",
          "name": "pid",
          "type": "uint256"
        },
        {
          "indexed": false,
          "internalType": "uint256",
          "name": "multiplier",
          "type": "uint256"
        }
      ],
      "name": "ChangeMultiplier",
      "type": "event"
    },
    {
      "anonymous": false,
      "inputs": [
        {
          "indexed": true,
          "internalType": "address",
          "name": "user",
          "type": "address"
        },
        {
          "indexed": false,
          "internalType": "uint256",
          "name": "pid",
          "type": "uint256"
        },
        {
          "indexed": false,
          "internalType": "uint256",
          "name": "amount",
          "type": "uint256"
        }
      ],
      "name": "Deposit",
      "type": "event"
    },
    {
      "anonymous": false,
      "inputs": [
        {
          "indexed": true,
          "internalType": "address",
          "name": "user",
          "type": "address"
        },
        {
          "indexed": false,
          "internalType": "uint256",
          "name": "pid",
          "type": "uint256"
        }
      ],
      "name": "EmergencyWithdraw",
      "type": "event"
    },
    {
      "anonymous": false,
      "inputs": [
        {
          "indexed": true,
          "internalType": "address",
          "name": "previousOwner",
          "type": "address"
        },
        {
          "indexed": true,
          "internalType": "address",
          "name": "newOwner",
          "type": "address"
        }
      ],
      "name": "OwnershipTransferred",
      "type": "event"
    },
    {
      "anonymous": false,
      "inputs": [
        {
          "indexed": false,
          "internalType": "uint256",
          "name": "pid",
          "type": "uint256"
        }
      ],
      "name": "StopPool",
      "type": "event"
    },
    {
      "anonymous": false,
      "inputs": [
        {
          "indexed": true,
          "internalType": "address",
          "name": "user",
          "type": "address"
        },
        {
          "indexed": false,
          "internalType": "uint256",
          "name": "pid",
          "type": "uint256"
        },
        {
          "indexed": false,
          "internalType": "uint256",
          "name": "amount",
          "type": "uint256"
        }
      ],
      "name": "Withdraw",
      "type": "event"
    },
    {
      "inputs": [],
      "name": "START_BLOCK",
      "outputs": [
        {
          "internalType": "uint256",
          "name": "",
          "type": "uint256"
        }
      ],
      "stateMutability": "view",
      "type": "function"
    },
    {
      "inputs": [],
      "name": "isOwner",
      "outputs": [
        {
          "internalType": "bool",
          "name": "",
          "type": "bool"
        }
      ],
      "stateMutability": "view",
      "type": "function"
    },
    {
      "inputs": [
        {
          "internalType": "address",
          "name": "",
          "type": "address"
        }
      ],
      "name": "mappingPool",
      "outputs": [
        {
          "internalType": "bool",
          "name": "",
          "type": "bool"
        }
      ],
      "stateMutability": "view",
      "type": "function"
    },
    {
      "inputs": [],
      "name": "name",
      "outputs": [
        {
          "internalType": "string",
          "name": "",
          "type": "string"
        }
      ],
      "stateMutability": "view",
      "type": "function"
    },
    {
      "inputs": [],
      "name": "owner",
      "outputs": [
        {
          "internalType": "address",
          "name": "",
          "type": "address"
        }
      ],
      "stateMutability": "view",
      "type": "function"
    },
    {
      "inputs": [],
      "name": "polkaBridge",
      "outputs": [
        {
          "internalType": "contract PolkaBridge",
          "name": "",
          "type": "address"
        }
      ],
      "stateMutability": "view",
      "type": "function"
    },
    {
      "inputs": [
        {
          "internalType": "uint256",
          "name": "",
          "type": "uint256"
        }
      ],
      "name": "poolInfo",
      "outputs": [
        {
          "internalType": "contract IERC20",
          "name": "lpToken",
          "type": "address"
        },
        {
          "internalType": "contract IERC20",
          "name": "tokenA",
          "type": "address"
        },
        {
          "internalType": "contract IERC20",
          "name": "tokenB",
          "type": "address"
        },
        {
          "internalType": "uint256",
          "name": "multiplier",
          "type": "uint256"
        },
        {
          "internalType": "uint256",
          "name": "lastPoolReward",
          "type": "uint256"
        },
        {
          "internalType": "uint256",
          "name": "lastRewardBlock",
          "type": "uint256"
        },
        {
          "internalType": "uint256",
          "name": "lastLPBalance",
          "type": "uint256"
        },
        {
          "internalType": "uint256",
          "name": "accPBRPerShare",
          "type": "uint256"
        },
        {
          "internalType": "uint256",
          "name": "startBlock",
          "type": "uint256"
        },
        {
          "internalType": "uint256",
          "name": "stopBlock",
          "type": "uint256"
        },
        {
          "internalType": "uint256",
          "name": "totalRewardClaimed",
          "type": "uint256"
        },
        {
          "internalType": "bool",
          "name": "isActived",
          "type": "bool"
        }
      ],
      "stateMutability": "view",
      "type": "function"
    },
    {
      "inputs": [],
      "name": "renounceOwnership",
      "outputs": [],
      "stateMutability": "nonpayable",
      "type": "function"
    },
    {
      "inputs": [
        {
          "internalType": "address",
          "name": "newOwner",
          "type": "address"
        }
      ],
      "name": "transferOwnership",
      "outputs": [],
      "stateMutability": "nonpayable",
      "type": "function"
    },
    {
      "inputs": [
        {
          "internalType": "uint256",
          "name": "",
          "type": "uint256"
        },
        {
          "internalType": "address",
          "name": "",
          "type": "address"
        }
      ],
      "name": "userInfo",
      "outputs": [
        {
          "internalType": "uint256",
          "name": "amountLP",
          "type": "uint256"
        },
        {
          "internalType": "uint256",
          "name": "rewardDebt",
          "type": "uint256"
        },
        {
          "internalType": "uint256",
          "name": "rewardDebtAtBlock",
          "type": "uint256"
        },
        {
          "internalType": "uint256",
          "name": "rewardClaimed",
          "type": "uint256"
        }
      ],
      "stateMutability": "view",
      "type": "function"
    },
    {
      "stateMutability": "payable",
      "type": "receive"
    },
    {
      "inputs": [],
      "name": "poolBalance",
      "outputs": [
        {
          "internalType": "uint256",
          "name": "",
          "type": "uint256"
        }
      ],
      "stateMutability": "view",
      "type": "function"
    },
    {
      "inputs": [
        {
          "internalType": "contract IERC20",
          "name": "_lpToken",
          "type": "address"
        },
        {
          "internalType": "contract IERC20",
          "name": "_tokenA",
          "type": "address"
        },
        {
          "internalType": "contract IERC20",
          "name": "_tokenB",
          "type": "address"
        },
        {
          "internalType": "uint256",
          "name": "_multiplier",
          "type": "uint256"
        },
        {
          "internalType": "uint256",
          "name": "_startBlock",
          "type": "uint256"
        }
      ],
      "name": "add",
      "outputs": [],
      "stateMutability": "nonpayable",
      "type": "function"
    },
    {
      "inputs": [
        {
          "internalType": "uint256",
          "name": "_pid",
          "type": "uint256"
        },
        {
          "internalType": "uint256",
          "name": "_totalMultiplier",
          "type": "uint256"
        }
      ],
      "name": "getChangePoolReward",
      "outputs": [
        {
          "internalType": "uint256",
          "name": "",
          "type": "uint256"
        }
      ],
      "stateMutability": "view",
      "type": "function"
    },
    {
      "inputs": [],
      "name": "massUpdatePools",
      "outputs": [],
      "stateMutability": "nonpayable",
      "type": "function"
    },
    {
      "inputs": [],
      "name": "getTotalLastPoolReward",
      "outputs": [
        {
          "internalType": "uint256",
          "name": "",
          "type": "uint256"
        }
      ],
      "stateMutability": "view",
      "type": "function"
    },
    {
      "inputs": [
        {
          "internalType": "uint256",
          "name": "_pid",
          "type": "uint256"
        },
        {
          "internalType": "address",
          "name": "_user",
          "type": "address"
        }
      ],
      "name": "pendingReward",
      "outputs": [
        {
          "internalType": "uint256",
          "name": "",
          "type": "uint256"
        }
      ],
      "stateMutability": "view",
      "type": "function"
    },
    {
      "inputs": [
        {
          "internalType": "uint256",
          "name": "_pid",
          "type": "uint256"
        }
      ],
      "name": "claimReward",
      "outputs": [],
      "stateMutability": "nonpayable",
      "type": "function"
    },
    {
      "inputs": [
        {
          "internalType": "uint256",
          "name": "_pid",
          "type": "uint256"
        },
        {
          "internalType": "uint256",
          "name": "_amount",
          "type": "uint256"
        }
      ],
      "name": "deposit",
      "outputs": [],
      "stateMutability": "nonpayable",
      "type": "function"
    },
    {
      "inputs": [
        {
          "internalType": "uint256",
          "name": "_pid",
          "type": "uint256"
        },
        {
          "internalType": "uint256",
          "name": "_amount",
          "type": "uint256"
        }
      ],
      "name": "withdraw",
      "outputs": [],
      "stateMutability": "nonpayable",
      "type": "function"
    },
    {
      "inputs": [
        {
          "internalType": "uint256",
          "name": "_pid",
          "type": "uint256"
        }
      ],
      "name": "emergencyWithdraw",
      "outputs": [],
      "stateMutability": "nonpayable",
      "type": "function"
    },
    {
      "inputs": [
        {
          "internalType": "uint256",
          "name": "_pid",
          "type": "uint256"
        }
      ],
      "name": "getPoolInfo",
      "outputs": [
        {
          "internalType": "uint256",
          "name": "",
          "type": "uint256"
        },
        {
          "internalType": "uint256",
          "name": "",
          "type": "uint256"
        },
        {
          "internalType": "address",
          "name": "",
          "type": "address"
        },
        {
          "internalType": "uint256",
          "name": "",
          "type": "uint256"
        },
        {
          "internalType": "uint256",
          "name": "",
          "type": "uint256"
        },
        {
          "internalType": "uint256",
          "name": "",
          "type": "uint256"
        },
        {
          "internalType": "uint256",
          "name": "",
          "type": "uint256"
        }
      ],
      "stateMutability": "view",
      "type": "function"
    },
    {
      "inputs": [
        {
          "internalType": "uint256",
          "name": "_pid",
          "type": "uint256"
        }
      ],
      "name": "getUserInfo",
      "outputs": [
        {
          "internalType": "uint256",
          "name": "",
          "type": "uint256"
        },
        {
          "internalType": "uint256",
          "name": "",
          "type": "uint256"
        },
        {
          "internalType": "uint256",
          "name": "",
          "type": "uint256"
        }
      ],
      "stateMutability": "view",
      "type": "function"
    },
    {
      "inputs": [
        {
          "internalType": "uint256",
          "name": "pid",
          "type": "uint256"
        }
      ],
      "name": "stopPool",
      "outputs": [],
      "stateMutability": "nonpayable",
      "type": "function"
    },
    {
      "inputs": [
        {
          "internalType": "uint256",
          "name": "pid",
          "type": "uint256"
        }
      ],
      "name": "activePool",
      "outputs": [],
      "stateMutability": "nonpayable",
      "type": "function"
    },
    {
      "inputs": [
        {
          "internalType": "uint256",
          "name": "pid",
          "type": "uint256"
        },
        {
          "internalType": "uint256",
          "name": "_multiplier",
          "type": "uint256"
        }
      ],
      "name": "changeMultiplier",
      "outputs": [],
      "stateMutability": "nonpayable",
      "type": "function"
    },
    {
      "inputs": [],
      "name": "countActivePool",
      "outputs": [
        {
          "internalType": "uint256",
          "name": "",
          "type": "uint256"
        }
      ],
      "stateMutability": "view",
      "type": "function"
    },
    {
      "inputs": [],
      "name": "countTotalMultiplier",
      "outputs": [
        {
          "internalType": "uint256",
          "name": "",
          "type": "uint256"
        }
      ],
      "stateMutability": "view",
      "type": "function"
    },
    {
      "inputs": [
        {
          "internalType": "uint256",
          "name": "_pid",
          "type": "uint256"
        }
      ],
      "name": "totalRewardClaimed",
      "outputs": [
        {
          "internalType": "uint256",
          "name": "",
          "type": "uint256"
        }
      ],
      "stateMutability": "view",
      "type": "function"
    },
    {
      "inputs": [
        {
          "internalType": "uint256",
          "name": "_pid",
          "type": "uint256"
        }
      ],
      "name": "avgRewardPerBlock",
      "outputs": [
        {
          "internalType": "uint256",
          "name": "",
          "type": "uint256"
        }
      ],
      "stateMutability": "view",
      "type": "function"
    }
  ],
  "bytecode": "0x6080604052604051806060016040528060218152602001620038ef60219139600290805190602001906200003592919062000193565b503480156200004357600080fd5b506040516200391038038062003910833981810160405260408110156200006957600080fd5b8101908080519060200190929190805190602001909291905050506000620000966200018b60201b60201c565b9050806000806101000a81548173ffffffffffffffffffffffffffffffffffffffff021916908373ffffffffffffffffffffffffffffffffffffffff1602179055508073ffffffffffffffffffffffffffffffffffffffff16600073ffffffffffffffffffffffffffffffffffffffff167f8be0079c531659141344cd1fd0a4f28419497f9722a3daafe3b4186f6b6457e060405160405180910390a3506001808190555081600360006101000a81548173ffffffffffffffffffffffffffffffffffffffff021916908373ffffffffffffffffffffffffffffffffffffffff16021790555080600481905550505062000242565b600033905090565b828054600181600116156101000203166002900490600052602060002090601f016020900481019282601f10620001d657805160ff191683800117855562000207565b8280016001018555821562000207579182015b8281111562000206578251825591602001919060010190620001e9565b5b5090506200021691906200021a565b5090565b6200023f91905b808211156200023b57600081600090555060010162000221565b5090565b90565b61369d80620002526000396000f3fe6080604052600436106101c65760003560e01c806388f4480b116100f757806398969e8211610095578063c9b8eee111610064578063c9b8eee114610a2c578063d379dadf14610a7b578063e2bbb15814610ad8578063f2fde38b14610b1d576101cd565b806398969e82146109125780639bb87b9214610981578063ae169a50146109c6578063c647e31f14610a01576101cd565b806390356ae8116100d157806390356ae8146107a1578063938cdba51461080a57806393f1a40b1461086357806396365d44146108e7576101cd565b806388f4480b146106f05780638da5cb5b1461071b5780638f32d59b14610772576101cd565b806346a2123a11610164578063630b5ba11161013e578063630b5ba1146105c65780636f55b350146105dd578063715018a6146106345780638202510f1461064b576101cd565b806346a2123a146105255780635312ea8e146105505780635729bd4c1461058b576101cd565b80632f380b35116101a05780632f380b35146103c15780633414ea371461046657806339b3e826146104b5578063441a3e70146104e0576101cd565b806306fdde03146101d25780630f4d0357146102625780631526fe271461029d576101cd565b366101cd57005b600080fd5b3480156101de57600080fd5b506101e7610b6e565b6040518080602001828103825283818151815260200191508051906020019080838360005b8381101561022757808201518184015260208101905061020c565b50505050905090810190601f1680156102545780820380516001836020036101000a031916815260200191505b509250505060405180910390f35b34801561026e57600080fd5b5061029b6004803603602081101561028557600080fd5b8101908080359060200190929190505050610c0c565b005b3480156102a957600080fd5b506102d6600480360360208110156102c057600080fd5b8101908080359060200190929190505050610d06565b604051808d73ffffffffffffffffffffffffffffffffffffffff1673ffffffffffffffffffffffffffffffffffffffff1681526020018c73ffffffffffffffffffffffffffffffffffffffff1673ffffffffffffffffffffffffffffffffffffffff1681526020018b73ffffffffffffffffffffffffffffffffffffffff1673ffffffffffffffffffffffffffffffffffffffff1681526020018a8152602001898152602001888152602001878152602001868152602001858152602001848152602001838152602001821515151581526020019c5050505050505050505050505060405180910390f35b3480156103cd57600080fd5b506103fa600480360360208110156103e457600080fd5b8101908080359060200190929190505050610de0565b604051808881526020018781526020018673ffffffffffffffffffffffffffffffffffffffff1673ffffffffffffffffffffffffffffffffffffffff16815260200185815260200184815260200183815260200182815260200197505050505050505060405180910390f35b34801561047257600080fd5b5061049f6004803603602081101561048957600080fd5b8101908080359060200190929190505050610fd4565b6040518082815260200191505060405180910390f35b3480156104c157600080fd5b506104ca611123565b6040518082815260200191505060405180910390f35b3480156104ec57600080fd5b506105236004803603604081101561050357600080fd5b810190808035906020019092919080359060200190929190505050611129565b005b34801561053157600080fd5b5061053a611487565b6040518082815260200191505060405180910390f35b34801561055c57600080fd5b506105896004803603602081101561057357600080fd5b8101908080359060200190929190505050611535565b005b34801561059757600080fd5b506105c4600480360360208110156105ae57600080fd5b8101908080359060200190929190505050611662565b005b3480156105d257600080fd5b506105db61175d565b005b3480156105e957600080fd5b506105f26117de565b604051808273ffffffffffffffffffffffffffffffffffffffff1673ffffffffffffffffffffffffffffffffffffffff16815260200191505060405180910390f35b34801561064057600080fd5b50610649611804565b005b34801561065757600080fd5b506106ee600480360360a081101561066e57600080fd5b81019080803573ffffffffffffffffffffffffffffffffffffffff169060200190929190803573ffffffffffffffffffffffffffffffffffffffff169060200190929190803573ffffffffffffffffffffffffffffffffffffffff169060200190929190803590602001909291908035906020019092919050505061193d565b005b3480156106fc57600080fd5b50610705611cfa565b6040518082815260200191505060405180910390f35b34801561072757600080fd5b50610730611d63565b604051808273ffffffffffffffffffffffffffffffffffffffff1673ffffffffffffffffffffffffffffffffffffffff16815260200191505060405180910390f35b34801561077e57600080fd5b50610787611d8c565b604051808215151515815260200191505060405180910390f35b3480156107ad57600080fd5b506107f0600480360360208110156107c457600080fd5b81019080803573ffffffffffffffffffffffffffffffffffffffff169060200190929190505050611dea565b604051808215151515815260200191505060405180910390f35b34801561081657600080fd5b5061084d6004803603604081101561082d57600080fd5b810190808035906020019092919080359060200190929190505050611e0a565b6040518082815260200191505060405180910390f35b34801561086f57600080fd5b506108bc6004803603604081101561088657600080fd5b8101908080359060200190929190803573ffffffffffffffffffffffffffffffffffffffff169060200190929190505050611ec3565b6040518085815260200184815260200183815260200182815260200194505050505060405180910390f35b3480156108f357600080fd5b506108fc611f00565b6040518082815260200191505060405180910390f35b34801561091e57600080fd5b5061096b6004803603604081101561093557600080fd5b8101908080359060200190929190803573ffffffffffffffffffffffffffffffffffffffff169060200190929190505050611fe1565b6040518082815260200191505060405180910390f35b34801561098d57600080fd5b506109c4600480360360408110156109a457600080fd5b810190808035906020019092919080359060200190929190505050612225565b005b3480156109d257600080fd5b506109ff600480360360208110156109e957600080fd5b810190808035906020019092919050505061230b565b005b348015610a0d57600080fd5b50610a16612459565b6040518082815260200191505060405180910390f35b348015610a3857600080fd5b50610a6560048036036020811015610a4f57600080fd5b81019080803590602001909291905050506124ef565b6040518082815260200191505060405180910390f35b348015610a8757600080fd5b50610ab460048036036020811015610a9e57600080fd5b8101908080359060200190929190505050612517565b60405180848152602001838152602001828152602001935050505060405180910390f35b348015610ae457600080fd5b50610b1b60048036036040811015610afb57600080fd5b8101908080359060200190929190803590602001909291905050506125c6565b005b348015610b2957600080fd5b50610b6c60048036036020811015610b4057600080fd5b81019080803573ffffffffffffffffffffffffffffffffffffffff16906020019092919050505061284b565b005b60028054600181600116156101000203166002900480601f016020809104026020016040519081016040528092919081815260200182805460018160011615610100020316600290048015610c045780601f10610bd957610100808354040283529160200191610c04565b820191906000526020600020905b815481529060010190602001808311610be757829003601f168201915b505050505081565b610c14611d8c565b610c86576040517f08c379a00000000000000000000000000000000000000000000000000000000081526004018080602001828103825260208152602001807f4f776e61626c653a2063616c6c6572206973206e6f7420746865206f776e657281525060200191505060405180910390fd5b600060058281548110610c9557fe5b90600052602060002090600c02019050600081600b0160006101000a81548160ff0219169083151502179055504381600901819055507fd3f8fcca148dd42904f0c3f9c617908ff2f87ff9d5da2be0276d7dc0e5c6260f826040518082815260200191505060405180910390a15050565b60058181548110610d1357fe5b90600052602060002090600c02016000915090508060000160009054906101000a900473ffffffffffffffffffffffffffffffffffffffff16908060010160009054906101000a900473ffffffffffffffffffffffffffffffffffffffff16908060020160009054906101000a900473ffffffffffffffffffffffffffffffffffffffff169080600301549080600401549080600501549080600601549080600701549080600801549080600901549080600a01549080600b0160009054906101000a900460ff1690508c565b600080600080600080600060058881548110610df857fe5b90600052602060002090600c02016005015460058981548110610e1757fe5b90600052602060002090600c02016003015460058a81548110610e3657fe5b90600052602060002090600c020160000160009054906101000a900473ffffffffffffffffffffffffffffffffffffffff1660058b81548110610e7557fe5b90600052602060002090600c02016004015460058c81548110610e9457fe5b90600052602060002090600c02016008015460058d81548110610eb357fe5b90600052602060002090600c02016007015460058e81548110610ed257fe5b90600052602060002090600c020160000160009054906101000a900473ffffffffffffffffffffffffffffffffffffffff1673ffffffffffffffffffffffffffffffffffffffff166370a08231306040518263ffffffff1660e01b8152600401808273ffffffffffffffffffffffffffffffffffffffff1673ffffffffffffffffffffffffffffffffffffffff16815260200191505060206040518083038186803b158015610f8057600080fd5b505afa158015610f94573d6000803e3d6000fd5b505050506040513d6020811015610faa57600080fd5b81019080805190602001909291905050509650965096509650965096509650919395979092949650565b600080610fdf611487565b90506000610fed8483611e0a565b90506000611052826110446005888154811061100557fe5b90600052602060002090600c0201600401546005898154811061102457fe5b90600052602060002090600c0201600a01546128d190919063ffffffff16565b6128d190919063ffffffff16565b905060006005868154811061106357fe5b90600052602060002090600c02016005015443116110d1576110ca6005878154811061108b57fe5b90600052602060002090600c020160080154600588815481106110aa57fe5b90600052602060002090600c02016005015461295990919063ffffffff16565b9050611105565b611102600587815481106110e157fe5b90600052602060002090600c0201600801544361295990919063ffffffff16565b90505b61111881836129a390919063ffffffff16565b945050505050919050565b60045481565b600260015414156111a2576040517f08c379a000000000000000000000000000000000000000000000000000000000815260040180806020018281038252601f8152602001807f5265656e7472616e637947756172643a207265656e7472616e742063616c6c0081525060200191505060405180910390fd5b60026001819055506000600583815481106111b957fe5b90600052602060002090600c0201905060006007600085815260200190815260200160002060003373ffffffffffffffffffffffffffffffffffffffff1673ffffffffffffffffffffffffffffffffffffffff1681526020019081526020016000209050828160000154101561127a576040517f08c379a000000000000000000000000000000000000000000000000000000000815260040180806020018281038252602b81526020018061355c602b913960400191505060405180910390fd5b60008311156114245761128b61175d565b611294846129ed565b6112e333848460000160009054906101000a900473ffffffffffffffffffffffffffffffffffffffff1673ffffffffffffffffffffffffffffffffffffffff16612bf09092919063ffffffff16565b8160000160009054906101000a900473ffffffffffffffffffffffffffffffffffffffff1673ffffffffffffffffffffffffffffffffffffffff166370a08231306040518263ffffffff1660e01b8152600401808273ffffffffffffffffffffffffffffffffffffffff1673ffffffffffffffffffffffffffffffffffffffff16815260200191505060206040518083038186803b15801561138457600080fd5b505afa158015611398573d6000803e3d6000fd5b505050506040513d60208110156113ae57600080fd5b810190808051906020019092919050505082600601819055506113de83826000015461295990919063ffffffff16565b816000018190555061141b670de0b6b3a764000061140d84600701548460000154612ca890919063ffffffff16565b6129a390919063ffffffff16565b81600101819055505b3373ffffffffffffffffffffffffffffffffffffffff167ff279e6a1f5e320cca91135676d9cb6e44ca8a08c0b88342bcdb1144f6511b5688585604051808381526020018281526020019250505060405180910390a25050600180819055505050565b6000806000905060008090505b60058054905081101561151357600581815481106114ae57fe5b90600052602060002090600c0201600b0160009054906101000a900460ff161561150657611503600582815481106114e257fe5b90600052602060002090600c020160030154836128d190919063ffffffff16565b91505b8080600101915050611494565b5061152f670de0b6b3a764000082612ca890919063ffffffff16565b91505090565b60006005828154811061154457fe5b90600052602060002090600c0201905060006007600084815260200190815260200160002060003373ffffffffffffffffffffffffffffffffffffffff1673ffffffffffffffffffffffffffffffffffffffff16815260200190815260200160002090506115fb3382600001548460000160009054906101000a900473ffffffffffffffffffffffffffffffffffffffff1673ffffffffffffffffffffffffffffffffffffffff16612bf09092919063ffffffff16565b60008160000181905550600081600101819055503373ffffffffffffffffffffffffffffffffffffffff167f5fafa99d0643513820be26656b45130b01e1c03062e1266bf36f88cbd3bd9695846040518082815260200191505060405180910390a2505050565b61166a611d8c565b6116dc576040517f08c379a00000000000000000000000000000000000000000000000000000000081526004018080602001828103825260208152602001807f4f776e61626c653a2063616c6c6572206973206e6f7420746865206f776e657281525060200191505060405180910390fd5b6000600582815481106116eb57fe5b90600052602060002090600c02019050600181600b0160006101000a81548160ff021916908315150217905550600081600901819055507f67a38ff5d6930f78d4fe3bf827953283be04cb9865b8a84139a0035576b6d8cb826040518082815260200191505060405180910390a15050565b600060058054905090506000611771611487565b905060008090505b828110156117d9576005818154811061178e57fe5b90600052602060002090600c0201600b0160009054906101000a900460ff16156117cc5760006117be8284611e0a565b90506117ca8282612d2e565b505b8080600101915050611779565b505050565b600360009054906101000a900473ffffffffffffffffffffffffffffffffffffffff1681565b61180c611d8c565b61187e576040517f08c379a00000000000000000000000000000000000000000000000000000000081526004018080602001828103825260208152602001807f4f776e61626c653a2063616c6c6572206973206e6f7420746865206f776e657281525060200191505060405180910390fd5b600073ffffffffffffffffffffffffffffffffffffffff166000809054906101000a900473ffffffffffffffffffffffffffffffffffffffff1673ffffffffffffffffffffffffffffffffffffffff167f8be0079c531659141344cd1fd0a4f28419497f9722a3daafe3b4186f6b6457e060405160405180910390a360008060006101000a81548173ffffffffffffffffffffffffffffffffffffffff021916908373ffffffffffffffffffffffffffffffffffffffff160217905550565b611945611d8c565b6119b7576040517f08c379a00000000000000000000000000000000000000000000000000000000081526004018080602001828103825260208152602001807f4f776e61626c653a2063616c6c6572206973206e6f7420746865206f776e657281525060200191505060405180910390fd5b600660008673ffffffffffffffffffffffffffffffffffffffff1673ffffffffffffffffffffffffffffffffffffffff16815260200190815260200160002060009054906101000a900460ff1615611a5a576040517f08c379a00000000000000000000000000000000000000000000000000000000081526004018080602001828103825260318152602001806135ec6031913960400191505060405180910390fd5b60006004544311611a6d57600454611a6f565b435b90506001600660008873ffffffffffffffffffffffffffffffffffffffff1673ffffffffffffffffffffffffffffffffffffffff16815260200190815260200160002060006101000a81548160ff02191690831515021790555060056040518061018001604052808873ffffffffffffffffffffffffffffffffffffffff1681526020018773ffffffffffffffffffffffffffffffffffffffff1681526020018673ffffffffffffffffffffffffffffffffffffffff16815260200185815260200160008152602001838152602001600081526020016000815260200160008511611b5a5743611b5c565b845b815260200160008152602001600081526020016001151581525090806001815401808255809150506001900390600052602060002090600c020160009091909190915060008201518160000160006101000a81548173ffffffffffffffffffffffffffffffffffffffff021916908373ffffffffffffffffffffffffffffffffffffffff16021790555060208201518160010160006101000a81548173ffffffffffffffffffffffffffffffffffffffff021916908373ffffffffffffffffffffffffffffffffffffffff16021790555060408201518160020160006101000a81548173ffffffffffffffffffffffffffffffffffffffff021916908373ffffffffffffffffffffffffffffffffffffffff160217905550606082015181600301556080820151816004015560a0820151816005015560c0820151816006015560e082015181600701556101008201518160080155610120820151816009015561014082015181600a015561016082015181600b0160006101000a81548160ff0219169083151502179055505050611cf261175d565b505050505050565b6000806000905060008090505b600580549050811015611d5b5760058181548110611d2157fe5b90600052602060002090600c0201600b0160009054906101000a900460ff1615611d4e5781806001019250505b8080600101915050611d07565b508091505090565b60008060009054906101000a900473ffffffffffffffffffffffffffffffffffffffff16905090565b60008060009054906101000a900473ffffffffffffffffffffffffffffffffffffffff1673ffffffffffffffffffffffffffffffffffffffff16611dce612ede565b73ffffffffffffffffffffffffffffffffffffffff1614905090565b60066020528060005260406000206000915054906101000a900460ff1681565b6000806000831415611e20576000915050611ebd565b6000611e2a611f00565b90506000611e36612459565b9050611ea785611e99670de0b6b3a7640000611e8b60058b81548110611e5857fe5b90600052602060002090600c020160030154611e7d878961295990919063ffffffff16565b612ca890919063ffffffff16565b612ca890919063ffffffff16565b6129a390919063ffffffff16565b925060008311611eb657600092505b8293505050505b92915050565b6007602052816000526040600020602052806000526040600020600091509150508060000154908060010154908060020154908060030154905084565b6000600360009054906101000a900473ffffffffffffffffffffffffffffffffffffffff1673ffffffffffffffffffffffffffffffffffffffff166370a08231306040518263ffffffff1660e01b8152600401808273ffffffffffffffffffffffffffffffffffffffff1673ffffffffffffffffffffffffffffffffffffffff16815260200191505060206040518083038186803b158015611fa157600080fd5b505afa158015611fb5573d6000803e3d6000fd5b505050506040513d6020811015611fcb57600080fd5b8101908080519060200190929190505050905090565b60008060058481548110611ff157fe5b90600052602060002090600c0201905060006007600086815260200190815260200160002060008573ffffffffffffffffffffffffffffffffffffffff1673ffffffffffffffffffffffffffffffffffffffff168152602001908152602001600020905060008260000160009054906101000a900473ffffffffffffffffffffffffffffffffffffffff1673ffffffffffffffffffffffffffffffffffffffff166370a08231306040518263ffffffff1660e01b8152600401808273ffffffffffffffffffffffffffffffffffffffff1673ffffffffffffffffffffffffffffffffffffffff16815260200191505060206040518083038186803b1580156120f857600080fd5b505afa15801561210c573d6000803e3d6000fd5b505050506040513d602081101561212257600080fd5b810190808051906020019092919050505090506000836007015490506000612148611487565b905084600501544311801561215d5750600083115b156121b1576121ae61219b8461218d670de0b6b3a764000061217f8d87611e0a565b612ca890919063ffffffff16565b6129a390919063ffffffff16565b86600701546128d190919063ffffffff16565b91505b6000612214670de0b6b3a76400006122066121e1670de0b6b3a76400008960010154612ca890919063ffffffff16565b6121f8878a60000154612ca890919063ffffffff16565b61295990919063ffffffff16565b6129a390919063ffffffff16565b905080965050505050505092915050565b61222d611d8c565b61229f576040517f08c379a00000000000000000000000000000000000000000000000000000000081526004018080602001828103825260208152602001807f4f776e61626c653a2063616c6c6572206973206e6f7420746865206f776e657281525060200191505060405180910390fd5b6000600583815481106122ae57fe5b90600052602060002090600c020190508181600301819055507fb813c16515d49916a3414955ddb3d6c165626c4cfbe82778c5331f3da3dc2ee58383604051808381526020018281526020019250505060405180910390a1505050565b60026001541415612384576040517f08c379a000000000000000000000000000000000000000000000000000000000815260040180806020018281038252601f8152602001807f5265656e7472616e637947756172643a207265656e7472616e742063616c6c0081525060200191505060405180910390fd5b600260018190555060006005828154811061239b57fe5b90600052602060002090600c0201905060006007600084815260200190815260200160002060003373ffffffffffffffffffffffffffffffffffffffff1673ffffffffffffffffffffffffffffffffffffffff168152602001908152602001600020905061240761175d565b612410836129ed565b612445670de0b6b3a764000061243784600701548460000154612ca890919063ffffffff16565b6129a390919063ffffffff16565b816001018190555050506001808190555050565b6000806000600580549050905060008090505b818110156124e6576005818154811061248157fe5b90600052602060002090600c0201600b0160009054906101000a900460ff16156124d9576124d6600582815481106124b557fe5b90600052602060002090600c020160040154846128d190919063ffffffff16565b92505b808060010191505061246c565b50819250505090565b6000600582815481106124fe57fe5b90600052602060002090600c0201600a01549050919050565b6000806000612524613533565b6007600086815260200190815260200160002060003373ffffffffffffffffffffffffffffffffffffffff1673ffffffffffffffffffffffffffffffffffffffff1681526020019081526020016000206040518060800160405290816000820154815260200160018201548152602001600282015481526020016003820154815250509050806000015181602001518260600151935093509350509193909250565b6002600154141561263f576040517f08c379a000000000000000000000000000000000000000000000000000000000815260040180806020018281038252601f8152602001807f5265656e7472616e637947756172643a207265656e7472616e742063616c6c0081525060200191505060405180910390fd5b6002600181905550600081116126a0576040517f08c379a000000000000000000000000000000000000000000000000000000000815260040180806020018281038252603f815260200180613587603f913960400191505060405180910390fd5b6000600583815481106126af57fe5b90600052602060002090600c0201905060006007600085815260200190815260200160002060003373ffffffffffffffffffffffffffffffffffffffff1673ffffffffffffffffffffffffffffffffffffffff16815260200190815260200160002090506127643330858560000160009054906101000a900473ffffffffffffffffffffffffffffffffffffffff1673ffffffffffffffffffffffffffffffffffffffff16612ee6909392919063ffffffff16565b61276c61175d565b612775846129ed565b60008160000154141561278c574381600201819055505b6127a38382600001546128d190919063ffffffff16565b81600001819055506127e0670de0b6b3a76400006127d284600701548460000154612ca890919063ffffffff16565b6129a390919063ffffffff16565b81600101819055503373ffffffffffffffffffffffffffffffffffffffff167f90890809c654f11d6e72a28fa60149770a0d11ec6c92319d6ceb2bb0a4ea1a158585604051808381526020018281526020019250505060405180910390a25050600180819055505050565b612853611d8c565b6128c5576040517f08c379a00000000000000000000000000000000000000000000000000000000081526004018080602001828103825260208152602001807f4f776e61626c653a2063616c6c6572206973206e6f7420746865206f776e657281525060200191505060405180910390fd5b6128ce81612fd3565b50565b60008082840190508381101561294f576040517f08c379a000000000000000000000000000000000000000000000000000000000815260040180806020018281038252601b8152602001807f536166654d6174683a206164646974696f6e206f766572666c6f77000000000081525060200191505060405180910390fd5b8091505092915050565b600061299b83836040518060400160405280601e81526020017f536166654d6174683a207375627472616374696f6e206f766572666c6f770000815250613117565b905092915050565b60006129e583836040518060400160405280601a81526020017f536166654d6174683a206469766973696f6e206279207a65726f0000000000008152506131d7565b905092915050565b6000600582815481106129fc57fe5b90600052602060002090600c0201905060006007600084815260200190815260200160002060003373ffffffffffffffffffffffffffffffffffffffff1673ffffffffffffffffffffffffffffffffffffffff1681526020019081526020016000209050600081600001541115612beb576000612a798433611fe1565b90506000612a85611f00565b905080821115612a93578091505b6000821115612bc057600360009054906101000a900473ffffffffffffffffffffffffffffffffffffffff1673ffffffffffffffffffffffffffffffffffffffff1663a9059cbb33846040518363ffffffff1660e01b8152600401808373ffffffffffffffffffffffffffffffffffffffff1673ffffffffffffffffffffffffffffffffffffffff16815260200182815260200192505050602060405180830381600087803b158015612b4557600080fd5b505af1158015612b59573d6000803e3d6000fd5b505050506040513d6020811015612b6f57600080fd5b810190808051906020019092919050505050612b9882856004015461295990919063ffffffff16565b8460040181905550612bb78285600a01546128d190919063ffffffff16565b84600a01819055505b438360020181905550612be08284600301546128d190919063ffffffff16565b836003018190555050505b505050565b612ca38363a9059cbb60e01b8484604051602401808373ffffffffffffffffffffffffffffffffffffffff1673ffffffffffffffffffffffffffffffffffffffff16815260200182815260200192505050604051602081830303815290604052907bffffffffffffffffffffffffffffffffffffffffffffffffffffffff19166020820180517bffffffffffffffffffffffffffffffffffffffffffffffffffffffff838183161783525050505061329d565b505050565b600080831415612cbb5760009050612d28565b6000828402905082848281612ccc57fe5b0414612d23576040517f08c379a000000000000000000000000000000000000000000000000000000000815260040180806020018281038252602181526020018061361d6021913960400191505060405180910390fd5b809150505b92915050565b600060058381548110612d3d57fe5b90600052602060002090600c0201905080600501544311612d5e5750612eda565b6000816006015490506000811415612d7f5760008260070181905550612dcb565b612dc2612daf82612da1670de0b6b3a764000087612ca890919063ffffffff16565b6129a390919063ffffffff16565b83600701546128d190919063ffffffff16565b82600701819055505b438260050181905550612deb8383600401546128d190919063ffffffff16565b82600401819055508160000160009054906101000a900473ffffffffffffffffffffffffffffffffffffffff1673ffffffffffffffffffffffffffffffffffffffff166370a08231306040518263ffffffff1660e01b8152600401808273ffffffffffffffffffffffffffffffffffffffff1673ffffffffffffffffffffffffffffffffffffffff16815260200191505060206040518083038186803b158015612e9457600080fd5b505afa158015612ea8573d6000803e3d6000fd5b505050506040513d6020811015612ebe57600080fd5b8101908080519060200190929190505050826006018190555050505b5050565b600033905090565b612fcd846323b872dd60e01b858585604051602401808473ffffffffffffffffffffffffffffffffffffffff1673ffffffffffffffffffffffffffffffffffffffff1681526020018373ffffffffffffffffffffffffffffffffffffffff1673ffffffffffffffffffffffffffffffffffffffff1681526020018281526020019350505050604051602081830303815290604052907bffffffffffffffffffffffffffffffffffffffffffffffffffffffff19166020820180517bffffffffffffffffffffffffffffffffffffffffffffffffffffffff838183161783525050505061329d565b50505050565b600073ffffffffffffffffffffffffffffffffffffffff168173ffffffffffffffffffffffffffffffffffffffff161415613059576040517f08c379a00000000000000000000000000000000000000000000000000000000081526004018080602001828103825260268152602001806135c66026913960400191505060405180910390fd5b8073ffffffffffffffffffffffffffffffffffffffff166000809054906101000a900473ffffffffffffffffffffffffffffffffffffffff1673ffffffffffffffffffffffffffffffffffffffff167f8be0079c531659141344cd1fd0a4f28419497f9722a3daafe3b4186f6b6457e060405160405180910390a3806000806101000a81548173ffffffffffffffffffffffffffffffffffffffff021916908373ffffffffffffffffffffffffffffffffffffffff16021790555050565b60008383111582906131c4576040517f08c379a00000000000000000000000000000000000000000000000000000000081526004018080602001828103825283818151815260200191508051906020019080838360005b8381101561318957808201518184015260208101905061316e565b50505050905090810190601f1680156131b65780820380516001836020036101000a031916815260200191505b509250505060405180910390fd5b5060008385039050809150509392505050565b60008083118290613283576040517f08c379a00000000000000000000000000000000000000000000000000000000081526004018080602001828103825283818151815260200191508051906020019080838360005b8381101561324857808201518184015260208101905061322d565b50505050905090810190601f1680156132755780820380516001836020036101000a031916815260200191505b509250505060405180910390fd5b50600083858161328f57fe5b049050809150509392505050565b6132bc8273ffffffffffffffffffffffffffffffffffffffff166134e8565b61332e576040517f08c379a000000000000000000000000000000000000000000000000000000000815260040180806020018281038252601f8152602001807f5361666545524332303a2063616c6c20746f206e6f6e2d636f6e74726163740081525060200191505060405180910390fd5b600060608373ffffffffffffffffffffffffffffffffffffffff16836040518082805190602001908083835b6020831061337d578051825260208201915060208101905060208303925061335a565b6001836020036101000a0380198251168184511680821785525050505050509050019150506000604051808303816000865af19150503d80600081146133df576040519150601f19603f3d011682016040523d82523d6000602084013e6133e4565b606091505b50915091508161345c576040517f08c379a00000000000000000000000000000000000000000000000000000000081526004018080602001828103825260208152602001807f5361666545524332303a206c6f772d6c6576656c2063616c6c206661696c656481525060200191505060405180910390fd5b6000815111156134e25780806020019051602081101561347b57600080fd5b81019080805190602001909291905050506134e1576040517f08c379a000000000000000000000000000000000000000000000000000000000815260040180806020018281038252602a81526020018061363e602a913960400191505060405180910390fd5b5b50505050565b60008060007fc5d2460186f7233c927e7db2dcc703c0e500b653ca82273b7bfad8045d85a47060001b9050833f915080821415801561352a57506000801b8214155b92505050919050565b604051806080016040528060008152602001600081526020016000815260200160008152509056fe506f6c6b614272696467654d61737465724661726d65723a3a77697468647261773a206e6f7420676f6f64506f6c6b614272696467654d61737465724661726d65723a3a6465706f7369743a20616d6f756e74206d7573742062652067726561746572207468616e20304f776e61626c653a206e6577206f776e657220697320746865207a65726f2061646472657373506f6c6b614272696467654d61737465724661726d3a3a6164643a206c7020697320616c726561647920696e20706f6f6c536166654d6174683a206d756c7469706c69636174696f6e206f766572666c6f775361666545524332303a204552433230206f7065726174696f6e20646964206e6f742073756363656564a264697066735822122043c1c81f981ce6a4ef819f53c460dc3fc8929030d9185eaed5bc9862ea98915a64736f6c63430006020033506f6c6b614272696467653a204465666c6174696f6e617279204661726d696e67",
  "source": "pragma solidity >=0.6.0;\r\n\r\nimport \"@openzeppelin/contracts/token/ERC20/SafeERC20.sol\";\r\nimport \"@openzeppelin/contracts/math/SafeMath.sol\";\r\nimport \"@openzeppelin/contracts/ownership/Ownable.sol\";\r\nimport \"./PolkaBridge.sol\";\r\nimport \"./ReentrancyGuard.sol\";\r\n\r\n// import \"@chainlink/contracts/src/v0.6/interfaces/AggregatorV3Interface.sol\";\r\n//import \"@openzeppelin/contracts/token/ERC20/ERC20.sol\";\r\n//import \"@uniswap/v2-periphery/contracts/interfaces/IUniswapV2Router02.sol\";\r\n\r\ncontract PolkaBridgeMasterFarm is Ownable, ReentrancyGuard {\r\n    string public name = \"PolkaBridge: Deflationary Farming\";\r\n    using SafeMath for uint256;\r\n    using SafeERC20 for IERC20;\r\n\r\n    struct UserInfo {\r\n        uint256 amountLP;\r\n        uint256 rewardDebt;\r\n        uint256 rewardDebtAtBlock;\r\n        uint256 rewardClaimed;\r\n    }\r\n\r\n    struct PoolInfo {\r\n        IERC20 lpToken;\r\n        IERC20 tokenA;\r\n        IERC20 tokenB;\r\n        uint256 multiplier;\r\n        uint256 lastPoolReward; //history pool reward\r\n        uint256 lastRewardBlock;\r\n        uint256 lastLPBalance;\r\n        uint256 accPBRPerShare;\r\n        uint256 startBlock;\r\n        uint256 stopBlock;\r\n        uint256 totalRewardClaimed;\r\n        bool isActived;\r\n    }\r\n\r\n    PolkaBridge public polkaBridge;\r\n    uint256 public START_BLOCK;\r\n    //event\r\n    event Deposit(address indexed user, uint256 pid, uint256 amount);\r\n    event Withdraw(address indexed user, uint256 pid, uint256 amount);\r\n    event EmergencyWithdraw(address indexed user, uint256 pid);\r\n    event StopPool(uint256 pid);\r\n    event ActivePool(uint256 pid);\r\n    event ChangeMultiplier(uint256 pid, uint256 multiplier);\r\n\r\n    //\r\n    //pool Info\r\n    PoolInfo[] public poolInfo;\r\n    mapping(address => bool) public mappingPool;\r\n    // Info of each user that stakes LP tokens. pid => user address => info\r\n    mapping(uint256 => mapping(address => UserInfo)) public userInfo;\r\n\r\n    constructor(PolkaBridge _polkaBridge, uint256 _startBlock) public {\r\n        polkaBridge = _polkaBridge;\r\n        START_BLOCK = _startBlock;\r\n    }\r\n\r\n    function poolBalance() public view returns (uint256) {\r\n        return polkaBridge.balanceOf(address(this));\r\n    }\r\n\r\n    // Add a new lp to the pool. Can only be called by the owner.\r\n    function add(\r\n        IERC20 _lpToken,\r\n        IERC20 _tokenA,\r\n        IERC20 _tokenB,\r\n        uint256 _multiplier,\r\n        uint256 _startBlock\r\n    ) public onlyOwner {\r\n        require(\r\n            !mappingPool[address(_lpToken)],\r\n            \"PolkaBridgeMasterFarm::add: lp is already in pool\"\r\n        );\r\n\r\n        uint256 _lastRewardBlock =\r\n            block.number > START_BLOCK ? block.number : START_BLOCK;\r\n\r\n        mappingPool[address(_lpToken)] = true;\r\n        poolInfo.push(\r\n            PoolInfo({\r\n                lpToken: _lpToken,\r\n                tokenA: _tokenA,\r\n                tokenB: _tokenB,\r\n                multiplier: _multiplier,\r\n                lastRewardBlock: _lastRewardBlock,\r\n                lastPoolReward: 0,\r\n                lastLPBalance: 0,\r\n                accPBRPerShare: 0,\r\n                startBlock: _startBlock > 0 ? _startBlock : block.number,\r\n                stopBlock: 0,\r\n                totalRewardClaimed: 0,\r\n                isActived: true\r\n            })\r\n        );\r\n\r\n        massUpdatePools();\r\n    }\r\n\r\n    function getChangePoolReward(uint256 _pid, uint256 _totalMultiplier)\r\n        public\r\n        view\r\n        returns (uint256)\r\n    {\r\n        uint256 changePoolReward;\r\n        if (_totalMultiplier == 0) {\r\n            return 0;\r\n        }\r\n        uint256 currentPoolBalance = poolBalance();\r\n        uint256 totalLastPoolReward = getTotalLastPoolReward();\r\n        changePoolReward = (\r\n            (currentPoolBalance.sub(totalLastPoolReward))\r\n                .mul(poolInfo[_pid].multiplier)\r\n                .mul(1e18)\r\n        )\r\n            .div(_totalMultiplier);\r\n\r\n        if (changePoolReward <= 0) {\r\n            changePoolReward = 0;\r\n        }\r\n\r\n        return changePoolReward;\r\n    }\r\n\r\n    function massUpdatePools() public {\r\n        uint256 length = poolInfo.length;\r\n        uint256 totalMultiplier = countTotalMultiplier();\r\n        for (uint256 pid = 0; pid < length; pid++) {\r\n            if (poolInfo[pid].isActived) {\r\n                uint256 changePoolReward =\r\n                    getChangePoolReward(pid, totalMultiplier);\r\n                updatePool(pid, changePoolReward);\r\n            }\r\n        }\r\n    }\r\n\r\n    function getTotalLastPoolReward() public view returns (uint256) {\r\n        uint256 total;\r\n        uint256 length = poolInfo.length;\r\n        for (uint256 pid = 0; pid < length; pid++) {\r\n            if (poolInfo[pid].isActived) {\r\n                total = total.add(poolInfo[pid].lastPoolReward);\r\n            }\r\n        }\r\n        return total;\r\n    }\r\n\r\n    // Update reward variables of the given pool to be up-to-date.\r\n    function updatePool(uint256 _pid, uint256 _changePoolReward) internal {\r\n        PoolInfo storage pool = poolInfo[_pid];\r\n        if (block.number <= pool.lastRewardBlock) {\r\n            return;\r\n        }\r\n        uint256 lpSupply = pool.lastLPBalance;\r\n        if (lpSupply == 0) {\r\n            // first deposit\r\n            pool.accPBRPerShare = 0;\r\n        } else {\r\n            pool.accPBRPerShare = pool.accPBRPerShare.add(\r\n                (_changePoolReward.mul(1e18).div(lpSupply))\r\n            );\r\n        }\r\n        pool.lastRewardBlock = block.number;\r\n\r\n        pool.lastPoolReward = pool.lastPoolReward.add(_changePoolReward);\r\n\r\n        pool.lastLPBalance = pool.lpToken.balanceOf(address(this));\r\n    }\r\n\r\n    function pendingReward(uint256 _pid, address _user)\r\n        public\r\n        view\r\n        returns (uint256)\r\n    {\r\n        PoolInfo storage pool = poolInfo[_pid];\r\n        UserInfo storage user = userInfo[_pid][_user];\r\n        uint256 lpSupply = pool.lpToken.balanceOf(address(this));\r\n        uint256 temptAccPBRPerShare = pool.accPBRPerShare;\r\n        uint256 totalMultiplier = countTotalMultiplier();\r\n\r\n        if (block.number > pool.lastRewardBlock && lpSupply > 0) {\r\n            temptAccPBRPerShare = pool.accPBRPerShare.add(\r\n                (\r\n                    getChangePoolReward(_pid, totalMultiplier).mul(1e18).div(\r\n                        lpSupply\r\n                    )\r\n                )\r\n            );\r\n        }\r\n\r\n        uint256 pending =\r\n            (\r\n                user.amountLP.mul(temptAccPBRPerShare).sub(\r\n                    user.rewardDebt.mul(1e18)\r\n                )\r\n            )\r\n                .div(1e18);\r\n\r\n        return pending;\r\n    }\r\n\r\n    function claimReward(uint256 _pid) public nonReentrant {\r\n        PoolInfo storage pool = poolInfo[_pid];\r\n        UserInfo storage user = userInfo[_pid][msg.sender];\r\n\r\n        massUpdatePools();\r\n        _harvest(_pid);\r\n\r\n        user.rewardDebt = user.amountLP.mul(pool.accPBRPerShare).div(1e18);\r\n    }\r\n\r\n    function _harvest(uint256 _pid) internal {\r\n        PoolInfo storage pool = poolInfo[_pid];\r\n        UserInfo storage user = userInfo[_pid][msg.sender];\r\n\r\n        if (user.amountLP > 0) {\r\n            uint256 pending = pendingReward(_pid, msg.sender);\r\n            uint256 masterBal = poolBalance();\r\n\r\n            if (pending > masterBal) {\r\n                pending = masterBal;\r\n            }\r\n\r\n            if (pending > 0) {\r\n                polkaBridge.transfer(msg.sender, pending);\r\n                pool.lastPoolReward = pool.lastPoolReward.sub(pending);\r\n                pool.totalRewardClaimed = pool.totalRewardClaimed.add(pending);\r\n            }\r\n\r\n            user.rewardDebtAtBlock = block.number;\r\n            user.rewardClaimed = user.rewardClaimed.add(pending);\r\n        }\r\n    }\r\n\r\n    function deposit(uint256 _pid, uint256 _amount) public nonReentrant {\r\n        require(\r\n            _amount > 0,\r\n            \"PolkaBridgeMasterFarmer::deposit: amount must be greater than 0\"\r\n        );\r\n\r\n        PoolInfo storage pool = poolInfo[_pid];\r\n        UserInfo storage user = userInfo[_pid][msg.sender];\r\n\r\n        pool.lpToken.safeTransferFrom(\r\n            address(msg.sender),\r\n            address(this),\r\n            _amount\r\n        );\r\n\r\n        massUpdatePools();\r\n        _harvest(_pid);\r\n\r\n        if (user.amountLP == 0) {\r\n            user.rewardDebtAtBlock = block.number;\r\n        }\r\n\r\n        user.amountLP = user.amountLP.add(_amount);\r\n        user.rewardDebt = user.amountLP.mul(pool.accPBRPerShare).div(1e18);\r\n\r\n        emit Deposit(msg.sender, _pid, _amount);\r\n    }\r\n\r\n    function withdraw(uint256 _pid, uint256 _amount) public nonReentrant {\r\n        PoolInfo storage pool = poolInfo[_pid];\r\n        UserInfo storage user = userInfo[_pid][msg.sender];\r\n        require(\r\n            user.amountLP >= _amount,\r\n            \"PolkaBridgeMasterFarmer::withdraw: not good\"\r\n        );\r\n\r\n        if (_amount > 0) {\r\n            massUpdatePools();\r\n            _harvest(_pid);\r\n            pool.lpToken.safeTransfer(address(msg.sender), _amount);\r\n            pool.lastLPBalance = pool.lpToken.balanceOf(address(this));\r\n\r\n            // update pool\r\n            // updatePool(_pid, 0, 1);\r\n            user.amountLP = user.amountLP.sub(_amount);\r\n            user.rewardDebt = user.amountLP.mul(pool.accPBRPerShare).div(1e18);\r\n        }\r\n        emit Withdraw(msg.sender, _pid, _amount);\r\n    }\r\n\r\n    function emergencyWithdraw(uint256 _pid) public {\r\n        PoolInfo storage pool = poolInfo[_pid];\r\n        UserInfo storage user = userInfo[_pid][msg.sender];\r\n        pool.lpToken.safeTransfer(address(msg.sender), user.amountLP);\r\n\r\n        user.amountLP = 0;\r\n        user.rewardDebt = 0;\r\n        emit EmergencyWithdraw(msg.sender, _pid);\r\n    }\r\n\r\n    function getPoolInfo(uint256 _pid)\r\n        public\r\n        view\r\n        returns (\r\n            uint256,\r\n            uint256,\r\n            address,\r\n            uint256,\r\n            uint256,\r\n            uint256,\r\n            // bool,\r\n            uint256\r\n        )\r\n    //uint256\r\n    {\r\n        return (\r\n            poolInfo[_pid].lastRewardBlock,\r\n            poolInfo[_pid].multiplier,\r\n            address(poolInfo[_pid].lpToken),\r\n            poolInfo[_pid].lastPoolReward,\r\n            poolInfo[_pid].startBlock,\r\n            poolInfo[_pid].accPBRPerShare,\r\n            // poolInfo[_pid].isActived,\r\n            poolInfo[_pid].lpToken.balanceOf(address(this))\r\n            //poolInfo[_pid].lastLPBalance\r\n        );\r\n    }\r\n\r\n    function getUserInfo(uint256 _pid)\r\n        public\r\n        view\r\n        returns (\r\n            uint256,\r\n            uint256,\r\n            uint256\r\n        )\r\n    {\r\n        UserInfo memory user = userInfo[_pid][msg.sender];\r\n        return (user.amountLP, user.rewardDebt, user.rewardClaimed);\r\n    }\r\n\r\n    function stopPool(uint256 pid) public onlyOwner {\r\n        PoolInfo storage pool = poolInfo[pid];\r\n        pool.isActived = false;\r\n        pool.stopBlock = block.number;\r\n        emit StopPool(pid);\r\n    }\r\n\r\n    function activePool(uint256 pid) public onlyOwner {\r\n        PoolInfo storage pool = poolInfo[pid];\r\n        pool.isActived = true;\r\n        pool.stopBlock = 0;\r\n        emit ActivePool(pid);\r\n    }\r\n\r\n    function changeMultiplier(uint256 pid, uint256 _multiplier)\r\n        public\r\n        onlyOwner\r\n    {\r\n        PoolInfo storage pool = poolInfo[pid];\r\n        pool.multiplier = _multiplier;\r\n\r\n        emit ChangeMultiplier(pid, _multiplier);\r\n    }\r\n\r\n    function countActivePool() public view returns (uint256) {\r\n        uint256 length = 0;\r\n        for (uint256 i = 0; i < poolInfo.length; i++) {\r\n            if (poolInfo[i].isActived) length++;\r\n        }\r\n        return length;\r\n    }\r\n\r\n    function countTotalMultiplier() public view returns (uint256) {\r\n        uint256 totalMultiplier = 0;\r\n        for (uint256 i = 0; i < poolInfo.length; i++) {\r\n            if (poolInfo[i].isActived)\r\n                totalMultiplier = totalMultiplier.add(poolInfo[i].multiplier);\r\n        }\r\n        return totalMultiplier.mul(1e18);\r\n    }\r\n\r\n    function totalRewardClaimed(uint256 _pid) public view returns (uint256) {\r\n        return poolInfo[_pid].totalRewardClaimed;\r\n    }\r\n\r\n    function avgRewardPerBlock(uint256 _pid) public view returns (uint256) {\r\n        uint256 totalMultiplier = countTotalMultiplier();\r\n        uint256 changePoolReward = getChangePoolReward(_pid, totalMultiplier);\r\n        uint256 totalReward =\r\n            poolInfo[_pid]\r\n                .totalRewardClaimed\r\n                .add(poolInfo[_pid].lastPoolReward)\r\n                .add(changePoolReward);\r\n        uint256 changeBlock;\r\n        if (block.number <= poolInfo[_pid].lastRewardBlock) {\r\n            changeBlock = poolInfo[_pid].lastRewardBlock.sub(\r\n                poolInfo[_pid].startBlock\r\n            );\r\n        } else {\r\n            changeBlock = block.number.sub(poolInfo[_pid].startBlock);\r\n        }\r\n\r\n        return totalReward.div(changeBlock);\r\n    }\r\n\r\n    receive() external payable {}\r\n}\r\n",
  "sourcePath": "C:/Users/thanhphi/Desktop/PolkaBridgeSolution/farming-app/contracts/PolkaBridgeMasterFarm.sol",
  "compiler": {
    "name": "solc",
    "version": "0.6.2+commit.bacdbe57.Emscripten.clang"
  },
  "schemaVersion": "3.3.3",
  "updatedAt": "2021-03-23T10:45:22.957Z",
  "devdoc": {
    "methods": {
      "isOwner()": {
        "details": "Returns true if the caller is the current owner."
      },
      "owner()": {
        "details": "Returns the address of the current owner."
      },
      "renounceOwnership()": {
        "details": "Leaves the contract without owner. It will not be possible to call `onlyOwner` functions anymore. Can only be called by the current owner.     * NOTE: Renouncing ownership will leave the contract without an owner, thereby removing any functionality that is only available to the owner."
      },
      "transferOwnership(address)": {
        "details": "Transfers ownership of the contract to a new account (`newOwner`). Can only be called by the current owner."
      }
    }
  },
  "userdoc": {
    "methods": {}
  }
}