{
  "contractName": "PolkaBridgeMasterFarm",
  "abi": [
    {
      "inputs": [
        {
          "internalType": "contract PolkaBridge",
          "name": "_polkaBridge",
          "type": "address"
        },
        {
          "internalType": "uint256",
          "name": "_startBlock",
          "type": "uint256"
        }
      ],
      "stateMutability": "nonpayable",
      "type": "constructor"
    },
    {
      "anonymous": false,
      "inputs": [
        {
          "indexed": true,
          "internalType": "address",
          "name": "user",
          "type": "address"
        },
        {
          "indexed": true,
          "internalType": "uint256",
          "name": "pid",
          "type": "uint256"
        },
        {
          "indexed": false,
          "internalType": "uint256",
          "name": "amount",
          "type": "uint256"
        }
      ],
      "name": "Deposit",
      "type": "event"
    },
    {
      "anonymous": false,
      "inputs": [
        {
          "indexed": true,
          "internalType": "address",
          "name": "user",
          "type": "address"
        },
        {
          "indexed": true,
          "internalType": "uint256",
          "name": "pid",
          "type": "uint256"
        },
        {
          "indexed": false,
          "internalType": "uint256",
          "name": "amount",
          "type": "uint256"
        }
      ],
      "name": "EmergencyWithdraw",
      "type": "event"
    },
    {
      "anonymous": false,
      "inputs": [
        {
          "indexed": true,
          "internalType": "address",
          "name": "previousOwner",
          "type": "address"
        },
        {
          "indexed": true,
          "internalType": "address",
          "name": "newOwner",
          "type": "address"
        }
      ],
      "name": "OwnershipTransferred",
      "type": "event"
    },
    {
      "anonymous": false,
      "inputs": [
        {
          "indexed": true,
          "internalType": "address",
          "name": "user",
          "type": "address"
        },
        {
          "indexed": true,
          "internalType": "uint256",
          "name": "pid",
          "type": "uint256"
        },
        {
          "indexed": false,
          "internalType": "uint256",
          "name": "amount",
          "type": "uint256"
        }
      ],
      "name": "SendPOBRReward",
      "type": "event"
    },
    {
      "anonymous": false,
      "inputs": [
        {
          "indexed": true,
          "internalType": "address",
          "name": "user",
          "type": "address"
        },
        {
          "indexed": true,
          "internalType": "uint256",
          "name": "pid",
          "type": "uint256"
        },
        {
          "indexed": false,
          "internalType": "uint256",
          "name": "amount",
          "type": "uint256"
        }
      ],
      "name": "Withdraw",
      "type": "event"
    },
    {
      "inputs": [],
      "name": "START_BLOCK",
      "outputs": [
        {
          "internalType": "uint256",
          "name": "",
          "type": "uint256"
        }
      ],
      "stateMutability": "view",
      "type": "function"
    },
    {
      "inputs": [],
      "name": "isOwner",
      "outputs": [
        {
          "internalType": "bool",
          "name": "",
          "type": "bool"
        }
      ],
      "stateMutability": "view",
      "type": "function"
    },
    {
      "inputs": [],
      "name": "name",
      "outputs": [
        {
          "internalType": "string",
          "name": "",
          "type": "string"
        }
      ],
      "stateMutability": "view",
      "type": "function"
    },
    {
      "inputs": [],
      "name": "owner",
      "outputs": [
        {
          "internalType": "address",
          "name": "",
          "type": "address"
        }
      ],
      "stateMutability": "view",
      "type": "function"
    },
    {
      "inputs": [],
      "name": "polkaBridge",
      "outputs": [
        {
          "internalType": "contract PolkaBridge",
          "name": "",
          "type": "address"
        }
      ],
      "stateMutability": "view",
      "type": "function"
    },
    {
      "inputs": [
        {
          "internalType": "address",
          "name": "",
          "type": "address"
        }
      ],
      "name": "poolId1",
      "outputs": [
        {
          "internalType": "uint256",
          "name": "",
          "type": "uint256"
        }
      ],
      "stateMutability": "view",
      "type": "function"
    },
    {
      "inputs": [
        {
          "internalType": "uint256",
          "name": "",
          "type": "uint256"
        }
      ],
      "name": "poolInfo",
      "outputs": [
        {
          "internalType": "contract IERC20",
          "name": "lpToken",
          "type": "address"
        },
        {
          "internalType": "uint256",
          "name": "lastPoolReward",
          "type": "uint256"
        },
        {
          "internalType": "uint256",
          "name": "lastRewardBlock",
          "type": "uint256"
        },
        {
          "internalType": "uint256",
          "name": "accPBRPerShare",
          "type": "uint256"
        },
        {
          "internalType": "uint256",
          "name": "startDate",
          "type": "uint256"
        },
        {
          "internalType": "uint256",
          "name": "stopDate",
          "type": "uint256"
        },
        {
          "internalType": "uint256",
          "name": "totalRewardClaimed",
          "type": "uint256"
        },
        {
          "internalType": "bool",
          "name": "isActived",
          "type": "bool"
        },
        {
          "internalType": "bool",
          "name": "isExist",
          "type": "bool"
        }
      ],
      "stateMutability": "view",
      "type": "function"
    },
    {
      "inputs": [],
      "name": "renounceOwnership",
      "outputs": [],
      "stateMutability": "nonpayable",
      "type": "function"
    },
    {
      "inputs": [],
      "name": "totalAllocPoint",
      "outputs": [
        {
          "internalType": "uint256",
          "name": "",
          "type": "uint256"
        }
      ],
      "stateMutability": "view",
      "type": "function"
    },
    {
      "inputs": [
        {
          "internalType": "address",
          "name": "newOwner",
          "type": "address"
        }
      ],
      "name": "transferOwnership",
      "outputs": [],
      "stateMutability": "nonpayable",
      "type": "function"
    },
    {
      "inputs": [
        {
          "internalType": "uint256",
          "name": "",
          "type": "uint256"
        },
        {
          "internalType": "address",
          "name": "",
          "type": "address"
        }
      ],
      "name": "userInfo",
      "outputs": [
        {
          "internalType": "uint256",
          "name": "amountLP",
          "type": "uint256"
        },
        {
          "internalType": "uint256",
          "name": "rewardDebt",
          "type": "uint256"
        },
        {
          "internalType": "uint256",
          "name": "rewardDebtAtBlock",
          "type": "uint256"
        },
        {
          "internalType": "uint256",
          "name": "rewardClaimed",
          "type": "uint256"
        }
      ],
      "stateMutability": "view",
      "type": "function"
    },
    {
      "stateMutability": "payable",
      "type": "receive"
    },
    {
      "inputs": [],
      "name": "poolBalance",
      "outputs": [
        {
          "internalType": "uint256",
          "name": "",
          "type": "uint256"
        }
      ],
      "stateMutability": "view",
      "type": "function"
    },
    {
      "inputs": [
        {
          "internalType": "contract IERC20",
          "name": "_lpToken",
          "type": "address"
        },
        {
          "internalType": "uint256",
          "name": "_startDate",
          "type": "uint256"
        }
      ],
      "name": "add",
      "outputs": [],
      "stateMutability": "nonpayable",
      "type": "function"
    },
    {
      "inputs": [],
      "name": "getChangePoolReward",
      "outputs": [
        {
          "internalType": "uint256",
          "name": "",
          "type": "uint256"
        }
      ],
      "stateMutability": "view",
      "type": "function"
    },
    {
      "inputs": [],
      "name": "massUpdatePools",
      "outputs": [],
      "stateMutability": "nonpayable",
      "type": "function"
    },
    {
      "inputs": [],
      "name": "getTotalLastPoolReward",
      "outputs": [
        {
          "internalType": "uint256",
          "name": "",
          "type": "uint256"
        }
      ],
      "stateMutability": "view",
      "type": "function"
    },
    {
      "inputs": [
        {
          "internalType": "uint256",
          "name": "_pid",
          "type": "uint256"
        },
        {
          "internalType": "uint256",
          "name": "_changePoolReward",
          "type": "uint256"
        }
      ],
      "name": "updatePool",
      "outputs": [],
      "stateMutability": "nonpayable",
      "type": "function"
    },
    {
      "inputs": [
        {
          "internalType": "uint256",
          "name": "_pid",
          "type": "uint256"
        },
        {
          "internalType": "address",
          "name": "_user",
          "type": "address"
        }
      ],
      "name": "pendingReward",
      "outputs": [
        {
          "internalType": "uint256",
          "name": "",
          "type": "uint256"
        }
      ],
      "stateMutability": "view",
      "type": "function"
    },
    {
      "inputs": [
        {
          "internalType": "uint256",
          "name": "_pid",
          "type": "uint256"
        }
      ],
      "name": "claimReward",
      "outputs": [],
      "stateMutability": "nonpayable",
      "type": "function"
    },
    {
      "inputs": [
        {
          "internalType": "uint256",
          "name": "_pid",
          "type": "uint256"
        },
        {
          "internalType": "uint256",
          "name": "_amount",
          "type": "uint256"
        }
      ],
      "name": "deposit",
      "outputs": [],
      "stateMutability": "nonpayable",
      "type": "function"
    },
    {
      "inputs": [
        {
          "internalType": "uint256",
          "name": "_pid",
          "type": "uint256"
        },
        {
          "internalType": "uint256",
          "name": "_amount",
          "type": "uint256"
        }
      ],
      "name": "withdraw",
      "outputs": [],
      "stateMutability": "nonpayable",
      "type": "function"
    },
    {
      "inputs": [
        {
          "internalType": "uint256",
          "name": "_pid",
          "type": "uint256"
        }
      ],
      "name": "emergencyWithdraw",
      "outputs": [],
      "stateMutability": "nonpayable",
      "type": "function"
    }
  ],
  "bytecode": "0x6080604052604051806060016040528060218152602001620025dc60219139600190805190602001906200003592919062000191565b5060006007553480156200004857600080fd5b50604051620025fd380380620025fd833981810160405260408110156200006e57600080fd5b81019080805190602001909291908051906020019092919050505060006200009b6200018960201b60201c565b9050806000806101000a81548173ffffffffffffffffffffffffffffffffffffffff021916908373ffffffffffffffffffffffffffffffffffffffff1602179055508073ffffffffffffffffffffffffffffffffffffffff16600073ffffffffffffffffffffffffffffffffffffffff167f8be0079c531659141344cd1fd0a4f28419497f9722a3daafe3b4186f6b6457e060405160405180910390a35081600260006101000a81548173ffffffffffffffffffffffffffffffffffffffff021916908373ffffffffffffffffffffffffffffffffffffffff16021790555080600381905550505062000240565b600033905090565b828054600181600116156101000203166002900490600052602060002090601f016020900481019282601f10620001d457805160ff191683800117855562000205565b8280016001018555821562000205579182015b8281111562000204578251825591602001919060010190620001e7565b5b50905062000214919062000218565b5090565b6200023d91905b80821115620002395760008160009055506001016200021f565b5090565b90565b61238c80620002506000396000f3fe6080604052600436106101395760003560e01c806393f1a40b116100ab578063ae169a501161006f578063ae169a50146105ff578063c647e31f1461063a578063ce2529c914610665578063e2bbb158146106ca578063f2fde38b1461070f578063f5d82b6b1461076057610140565b806393f1a40b1461047157806396365d44146104f557806396ed7f891461052057806398969e8214610565578063a132c2dd146105d457610140565b80635312ea8e116100fd5780635312ea8e1461032b578063630b5ba1146103665780636f55b3501461037d578063715018a6146103d45780638da5cb5b146103eb5780638f32d59b1461044257610140565b806306fdde03146101455780631526fe27146101d557806317caf6f11461029057806339b3e826146102bb578063441a3e70146102e657610140565b3661014057005b600080fd5b34801561015157600080fd5b5061015a6107bb565b6040518080602001828103825283818151815260200191508051906020019080838360005b8381101561019a57808201518184015260208101905061017f565b50505050905090810190601f1680156101c75780820380516001836020036101000a031916815260200191505b509250505060405180910390f35b3480156101e157600080fd5b5061020e600480360360208110156101f857600080fd5b8101908080359060200190929190505050610859565b604051808a73ffffffffffffffffffffffffffffffffffffffff1673ffffffffffffffffffffffffffffffffffffffff1681526020018981526020018881526020018781526020018681526020018581526020018481526020018315151515815260200182151515158152602001995050505050505050505060405180910390f35b34801561029c57600080fd5b506102a56108ee565b6040518082815260200191505060405180910390f35b3480156102c757600080fd5b506102d06108f4565b6040518082815260200191505060405180910390f35b3480156102f257600080fd5b506103296004803603604081101561030957600080fd5b8101908080359060200190929190803590602001909291905050506108fa565b005b34801561033757600080fd5b506103646004803603602081101561034e57600080fd5b8101908080359060200190929190505050610a7c565b005b34801561037257600080fd5b5061037b610b5b565b005b34801561038957600080fd5b50610392610b99565b604051808273ffffffffffffffffffffffffffffffffffffffff1673ffffffffffffffffffffffffffffffffffffffff16815260200191505060405180910390f35b3480156103e057600080fd5b506103e9610bbf565b005b3480156103f757600080fd5b50610400610cf8565b604051808273ffffffffffffffffffffffffffffffffffffffff1673ffffffffffffffffffffffffffffffffffffffff16815260200191505060405180910390f35b34801561044e57600080fd5b50610457610d21565b604051808215151515815260200191505060405180910390f35b34801561047d57600080fd5b506104ca6004803603604081101561049457600080fd5b8101908080359060200190929190803573ffffffffffffffffffffffffffffffffffffffff169060200190929190505050610d7f565b6040518085815260200184815260200183815260200182815260200194505050505060405180910390f35b34801561050157600080fd5b5061050a610dbc565b6040518082815260200191505060405180910390f35b34801561052c57600080fd5b506105636004803603604081101561054357600080fd5b810190808035906020019092919080359060200190929190505050610e9d565b005b34801561057157600080fd5b506105be6004803603604081101561058857600080fd5b8101908080359060200190929190803573ffffffffffffffffffffffffffffffffffffffff169060200190929190505050611019565b6040518082815260200191505060405180910390f35b3480156105e057600080fd5b506105e96111fd565b6040518082815260200191505060405180910390f35b34801561060b57600080fd5b506106386004803603602081101561062257600080fd5b8101908080359060200190929190505050611235565b005b34801561064657600080fd5b5061064f611249565b6040518082815260200191505060405180910390f35b34801561067157600080fd5b506106b46004803603602081101561068857600080fd5b81019080803573ffffffffffffffffffffffffffffffffffffffff16906020019092919050505061129b565b6040518082815260200191505060405180910390f35b3480156106d657600080fd5b5061070d600480360360408110156106ed57600080fd5b8101908080359060200190929190803590602001909291905050506112b3565b005b34801561071b57600080fd5b5061075e6004803603602081101561073257600080fd5b81019080803573ffffffffffffffffffffffffffffffffffffffff169060200190929190505050611440565b005b34801561076c57600080fd5b506107b96004803603604081101561078357600080fd5b81019080803573ffffffffffffffffffffffffffffffffffffffff169060200190929190803590602001909291905050506114c6565b005b60018054600181600116156101000203166002900480601f0160208091040260200160405190810160405280929190818152602001828054600181600116156101000203166002900480156108515780601f1061082657610100808354040283529160200191610851565b820191906000526020600020905b81548152906001019060200180831161083457829003601f168201915b505050505081565b6004818154811061086657fe5b90600052602060002090600802016000915090508060000160009054906101000a900473ffffffffffffffffffffffffffffffffffffffff16908060010154908060020154908060030154908060040154908060050154908060060154908060070160009054906101000a900460ff16908060070160019054906101000a900460ff16905089565b60075481565b60035481565b60006004838154811061090957fe5b9060005260206000209060080201905060006006600085815260200190815260200160002060003373ffffffffffffffffffffffffffffffffffffffff1673ffffffffffffffffffffffffffffffffffffffff168152602001908152602001600020905082816000015410156109ca576040517f08c379a000000000000000000000000000000000000000000000000000000000815260040180806020018281038252602b81526020018061224b602b913960400191505060405180910390fd5b6109d2610b5b565b6109db84611799565b6000831115610a53576109fb83826000015461199b90919063ffffffff16565b8160000181905550610a5233848460000160009054906101000a900473ffffffffffffffffffffffffffffffffffffffff1673ffffffffffffffffffffffffffffffffffffffff166119e59092919063ffffffff16565b5b610a6e82600301548260000154611a9d90919063ffffffff16565b816001018190555050505050565b600060048281548110610a8b57fe5b9060005260206000209060080201905060006006600084815260200190815260200160002060003373ffffffffffffffffffffffffffffffffffffffff1673ffffffffffffffffffffffffffffffffffffffff1681526020019081526020016000209050610b423382600001548460000160009054906101000a900473ffffffffffffffffffffffffffffffffffffffff1673ffffffffffffffffffffffffffffffffffffffff166119e59092919063ffffffff16565b6000816000018190555060008160010181905550505050565b600060048054905090506000610b6f6111fd565b905060008090505b82811015610b9457610b898183610e9d565b806001019050610b77565b505050565b600260009054906101000a900473ffffffffffffffffffffffffffffffffffffffff1681565b610bc7610d21565b610c39576040517f08c379a00000000000000000000000000000000000000000000000000000000081526004018080602001828103825260208152602001807f4f776e61626c653a2063616c6c6572206973206e6f7420746865206f776e657281525060200191505060405180910390fd5b600073ffffffffffffffffffffffffffffffffffffffff166000809054906101000a900473ffffffffffffffffffffffffffffffffffffffff1673ffffffffffffffffffffffffffffffffffffffff167f8be0079c531659141344cd1fd0a4f28419497f9722a3daafe3b4186f6b6457e060405160405180910390a360008060006101000a81548173ffffffffffffffffffffffffffffffffffffffff021916908373ffffffffffffffffffffffffffffffffffffffff160217905550565b60008060009054906101000a900473ffffffffffffffffffffffffffffffffffffffff16905090565b60008060009054906101000a900473ffffffffffffffffffffffffffffffffffffffff1673ffffffffffffffffffffffffffffffffffffffff16610d63611b23565b73ffffffffffffffffffffffffffffffffffffffff1614905090565b6006602052816000526040600020602052806000526040600020600091509150508060000154908060010154908060020154908060030154905084565b6000600260009054906101000a900473ffffffffffffffffffffffffffffffffffffffff1673ffffffffffffffffffffffffffffffffffffffff166370a08231306040518263ffffffff1660e01b8152600401808273ffffffffffffffffffffffffffffffffffffffff1673ffffffffffffffffffffffffffffffffffffffff16815260200191505060206040518083038186803b158015610e5d57600080fd5b505afa158015610e71573d6000803e3d6000fd5b505050506040513d6020811015610e8757600080fd5b8101908080519060200190929190505050905090565b600060048381548110610eac57fe5b9060005260206000209060080201905080600201544311610ecd5750611015565b60008160000160009054906101000a900473ffffffffffffffffffffffffffffffffffffffff1673ffffffffffffffffffffffffffffffffffffffff166370a08231306040518263ffffffff1660e01b8152600401808273ffffffffffffffffffffffffffffffffffffffff1673ffffffffffffffffffffffffffffffffffffffff16815260200191505060206040518083038186803b158015610f7057600080fd5b505afa158015610f84573d6000803e3d6000fd5b505050506040513d6020811015610f9a57600080fd5b810190808051906020019092919050505090506000811415610fc6574382600201819055505050611015565b610fef610fdc8285611b2b90919063ffffffff16565b8360030154611b7590919063ffffffff16565b826003018190555043826002018190555082826001016000828254019250508190555050505b5050565b6000806004848154811061102957fe5b9060005260206000209060080201905060006006600086815260200190815260200160002060008573ffffffffffffffffffffffffffffffffffffffff1673ffffffffffffffffffffffffffffffffffffffff168152602001908152602001600020905060008260030154905060008360000160009054906101000a900473ffffffffffffffffffffffffffffffffffffffff1673ffffffffffffffffffffffffffffffffffffffff166370a08231306040518263ffffffff1660e01b8152600401808273ffffffffffffffffffffffffffffffffffffffff1673ffffffffffffffffffffffffffffffffffffffff16815260200191505060206040518083038186803b15801561113957600080fd5b505afa15801561114d573d6000803e3d6000fd5b505050506040513d602081101561116357600080fd5b81019080805190602001909291905050509050600084600201544311801561118b5750600082115b156111c3576111c06111ad8361119f6111fd565b611b2b90919063ffffffff16565b8660030154611b7590919063ffffffff16565b90505b6111f084600101546111e2838760000154611a9d90919063ffffffff16565b61199b90919063ffffffff16565b9550505050505092915050565b60008060048054905061120e611249565b611216610dbc565b038161121e57fe5b0490506000811161122e57600090505b8091505090565b61123d610b5b565b61124681611799565b50565b6000806000600480549050905060008090505b81811015611292576004818154811061127157fe5b9060005260206000209060080201600101548301925080600101905061125c565b50819250505090565b60056020528060005260406000206000915090505481565b6000811161130c576040517f08c379a000000000000000000000000000000000000000000000000000000000815260040180806020018281038252603f815260200180612276603f913960400191505060405180910390fd5b60006004838154811061131b57fe5b9060005260206000209060080201905060006006600085815260200190815260200160002060003373ffffffffffffffffffffffffffffffffffffffff1673ffffffffffffffffffffffffffffffffffffffff1681526020019081526020016000209050611387610b5b565b61139084611799565b6113e13330858560000160009054906101000a900473ffffffffffffffffffffffffffffffffffffffff1673ffffffffffffffffffffffffffffffffffffffff16611bfd909392919063ffffffff16565b6000816000015414156113f8574381600201819055505b61140f838260000154611b7590919063ffffffff16565b816000018190555061143282600301548260000154611a9d90919063ffffffff16565b816001018190555050505050565b611448610d21565b6114ba576040517f08c379a00000000000000000000000000000000000000000000000000000000081526004018080602001828103825260208152602001807f4f776e61626c653a2063616c6c6572206973206e6f7420746865206f776e657281525060200191505060405180910390fd5b6114c381611cea565b50565b6114ce610d21565b611540576040517f08c379a00000000000000000000000000000000000000000000000000000000081526004018080602001828103825260208152602001807f4f776e61626c653a2063616c6c6572206973206e6f7420746865206f776e657281525060200191505060405180910390fd5b6000600560008473ffffffffffffffffffffffffffffffffffffffff1673ffffffffffffffffffffffffffffffffffffffff16815260200190815260200160002054146115d8576040517f08c379a00000000000000000000000000000000000000000000000000000000081526004018080602001828103825260318152602001806122db6031913960400191505060405180910390fd5b600060035443116115eb576003546115ed565b435b9050600160048054905001600560008573ffffffffffffffffffffffffffffffffffffffff1673ffffffffffffffffffffffffffffffffffffffff1681526020019081526020016000208190555060046040518061012001604052808573ffffffffffffffffffffffffffffffffffffffff1681526020016000815260200183815260200160008152602001848152602001600081526020016000815260200160011515815260200160011515815250908060018154018082558091505060019003906000526020600020906008020160009091909190915060008201518160000160006101000a81548173ffffffffffffffffffffffffffffffffffffffff021916908373ffffffffffffffffffffffffffffffffffffffff1602179055506020820151816001015560408201518160020155606082015181600301556080820151816004015560a0820151816005015560c0820151816006015560e08201518160070160006101000a81548160ff0219169083151502179055506101008201518160070160016101000a81548160ff0219169083151502179055505050611794610b5b565b505050565b6000600482815481106117a857fe5b9060005260206000209060080201905060006006600084815260200190815260200160002060003373ffffffffffffffffffffffffffffffffffffffff1673ffffffffffffffffffffffffffffffffffffffff168152602001908152602001600020905060008160000154111561199657600061184c826001015461183e85600301548560000154611a9d90919063ffffffff16565b61199b90919063ffffffff16565b90506000611858610dbc565b905080821115611866578091505b600082111561195e57600260009054906101000a900473ffffffffffffffffffffffffffffffffffffffff1673ffffffffffffffffffffffffffffffffffffffff1663a9059cbb33846040518363ffffffff1660e01b8152600401808373ffffffffffffffffffffffffffffffffffffffff1673ffffffffffffffffffffffffffffffffffffffff16815260200182815260200192505050602060405180830381600087803b15801561191857600080fd5b505af115801561192c573d6000803e3d6000fd5b505050506040513d602081101561194257600080fd5b8101908080519060200190929190505050504383600201819055505b61197984600301548460000154611a9d90919063ffffffff16565b836001018190555081836003016000828254019250508190555050505b505050565b60006119dd83836040518060400160405280601e81526020017f536166654d6174683a207375627472616374696f6e206f766572666c6f770000815250611e2e565b905092915050565b611a988363a9059cbb60e01b8484604051602401808373ffffffffffffffffffffffffffffffffffffffff1673ffffffffffffffffffffffffffffffffffffffff16815260200182815260200192505050604051602081830303815290604052907bffffffffffffffffffffffffffffffffffffffffffffffffffffffff19166020820180517bffffffffffffffffffffffffffffffffffffffffffffffffffffffff8381831617835250505050611eee565b505050565b600080831415611ab05760009050611b1d565b6000828402905082848281611ac157fe5b0414611b18576040517f08c379a000000000000000000000000000000000000000000000000000000000815260040180806020018281038252602181526020018061230c6021913960400191505060405180910390fd5b809150505b92915050565b600033905090565b6000611b6d83836040518060400160405280601a81526020017f536166654d6174683a206469766973696f6e206279207a65726f000000000000815250612139565b905092915050565b600080828401905083811015611bf3576040517f08c379a000000000000000000000000000000000000000000000000000000000815260040180806020018281038252601b8152602001807f536166654d6174683a206164646974696f6e206f766572666c6f77000000000081525060200191505060405180910390fd5b8091505092915050565b611ce4846323b872dd60e01b858585604051602401808473ffffffffffffffffffffffffffffffffffffffff1673ffffffffffffffffffffffffffffffffffffffff1681526020018373ffffffffffffffffffffffffffffffffffffffff1673ffffffffffffffffffffffffffffffffffffffff1681526020018281526020019350505050604051602081830303815290604052907bffffffffffffffffffffffffffffffffffffffffffffffffffffffff19166020820180517bffffffffffffffffffffffffffffffffffffffffffffffffffffffff8381831617835250505050611eee565b50505050565b600073ffffffffffffffffffffffffffffffffffffffff168173ffffffffffffffffffffffffffffffffffffffff161415611d70576040517f08c379a00000000000000000000000000000000000000000000000000000000081526004018080602001828103825260268152602001806122b56026913960400191505060405180910390fd5b8073ffffffffffffffffffffffffffffffffffffffff166000809054906101000a900473ffffffffffffffffffffffffffffffffffffffff1673ffffffffffffffffffffffffffffffffffffffff167f8be0079c531659141344cd1fd0a4f28419497f9722a3daafe3b4186f6b6457e060405160405180910390a3806000806101000a81548173ffffffffffffffffffffffffffffffffffffffff021916908373ffffffffffffffffffffffffffffffffffffffff16021790555050565b6000838311158290611edb576040517f08c379a00000000000000000000000000000000000000000000000000000000081526004018080602001828103825283818151815260200191508051906020019080838360005b83811015611ea0578082015181840152602081019050611e85565b50505050905090810190601f168015611ecd5780820380516001836020036101000a031916815260200191505b509250505060405180910390fd5b5060008385039050809150509392505050565b611f0d8273ffffffffffffffffffffffffffffffffffffffff166121ff565b611f7f576040517f08c379a000000000000000000000000000000000000000000000000000000000815260040180806020018281038252601f8152602001807f5361666545524332303a2063616c6c20746f206e6f6e2d636f6e74726163740081525060200191505060405180910390fd5b600060608373ffffffffffffffffffffffffffffffffffffffff16836040518082805190602001908083835b60208310611fce5780518252602082019150602081019050602083039250611fab565b6001836020036101000a0380198251168184511680821785525050505050509050019150506000604051808303816000865af19150503d8060008114612030576040519150601f19603f3d011682016040523d82523d6000602084013e612035565b606091505b5091509150816120ad576040517f08c379a00000000000000000000000000000000000000000000000000000000081526004018080602001828103825260208152602001807f5361666545524332303a206c6f772d6c6576656c2063616c6c206661696c656481525060200191505060405180910390fd5b600081511115612133578080602001905160208110156120cc57600080fd5b8101908080519060200190929190505050612132576040517f08c379a000000000000000000000000000000000000000000000000000000000815260040180806020018281038252602a81526020018061232d602a913960400191505060405180910390fd5b5b50505050565b600080831182906121e5576040517f08c379a00000000000000000000000000000000000000000000000000000000081526004018080602001828103825283818151815260200191508051906020019080838360005b838110156121aa57808201518184015260208101905061218f565b50505050905090810190601f1680156121d75780820380516001836020036101000a031916815260200191505b509250505060405180910390fd5b5060008385816121f157fe5b049050809150509392505050565b60008060007fc5d2460186f7233c927e7db2dcc703c0e500b653ca82273b7bfad8045d85a47060001b9050833f915080821415801561224157506000801b8214155b9250505091905056fe506f6c6b614272696467654d61737465724661726d65723a3a77697468647261773a206e6f7420676f6f64506f6c6b614272696467654d61737465724661726d65723a3a6465706f7369743a20616d6f756e74206d7573742062652067726561746572207468616e20304f776e61626c653a206e6577206f776e657220697320746865207a65726f2061646472657373506f6c6b614272696467654d61737465724661726d3a3a6164643a206c7020697320616c726561647920696e20706f6f6c536166654d6174683a206d756c7469706c69636174696f6e206f766572666c6f775361666545524332303a204552433230206f7065726174696f6e20646964206e6f742073756363656564a264697066735822122036205f66b5d30ba070796e22ad9693f58ff48d76eca1a8c66ec7025d356b293e64736f6c63430006020033506f6c6b614272696467653a204465666c6174696f6e617279204661726d696e67",
  "source": "pragma solidity >=0.6.0;\r\n\r\nimport \"@openzeppelin/contracts/token/ERC20/SafeERC20.sol\";\r\nimport \"@openzeppelin/contracts/math/SafeMath.sol\";\r\nimport \"@openzeppelin/contracts/ownership/Ownable.sol\";\r\nimport \"./PolkaBridge.sol\";\r\n\r\n// import \"@chainlink/contracts/src/v0.6/interfaces/AggregatorV3Interface.sol\";\r\n//import \"@openzeppelin/contracts/token/ERC20/ERC20.sol\";\r\n//import \"@uniswap/v2-periphery/contracts/interfaces/IUniswapV2Router02.sol\";\r\n\r\ncontract PolkaBridgeMasterFarm is Ownable {\r\n    string public name = \"PolkaBridge: Deflationary Farming\";\r\n    using SafeMath for uint256;\r\n    using SafeERC20 for IERC20;\r\n    \r\n    struct UserInfo {\r\n        uint256 amountLP;\r\n        uint256 rewardDebt;\r\n        uint256 rewardDebtAtBlock;\r\n        uint256 rewardClaimed;\r\n    }\r\n\r\n    struct PoolInfo {\r\n        IERC20 lpToken;\r\n        uint256 lastPoolReward; //history pool reward\r\n        uint256 lastRewardBlock;\r\n        uint256 accPBRPerShare;\r\n        uint256 startDate;\r\n        uint256 stopDate;\r\n        uint256 totalRewardClaimed;\r\n        bool isActived;\r\n        bool isExist;\r\n    }\r\n\r\n    PolkaBridge public polkaBridge;\r\n    uint256 public START_BLOCK;\r\n\r\n    //pool Info \r\n    PoolInfo[] public poolInfo;\r\n    mapping(address => uint256) public poolId1;\r\n    // Info of each user that stakes LP tokens. pid => user address => info\r\n    mapping(uint256 => mapping(address => UserInfo)) public userInfo;\r\n    // Total allocation poitns. Must be the sum of all allocation points in all pools.\r\n    uint256 public totalAllocPoint = 0;\r\n\r\n    event Deposit(address indexed user, uint256 indexed pid, uint256 amount);\r\n    event Withdraw(address indexed user, uint256 indexed pid, uint256 amount);\r\n    event EmergencyWithdraw(\r\n        address indexed user,\r\n        uint256 indexed pid,\r\n        uint256 amount\r\n    );\r\n    event SendPOBRReward(\r\n        address indexed user,\r\n        uint256 indexed pid,\r\n        uint256 amount\r\n    );\r\n\r\n    constructor(PolkaBridge _polkaBridge, uint256 _startBlock) public {\r\n        polkaBridge = _polkaBridge;\r\n        START_BLOCK = _startBlock;\r\n    }\r\n\r\n    function poolBalance() public view returns (uint256) {\r\n        return polkaBridge.balanceOf(address(this));\r\n    }\r\n\r\n    \r\n\r\n    // Add a new lp to the pool. Can only be called by the owner.\r\n    function add(IERC20 _lpToken, uint256 _startDate) public onlyOwner {\r\n        require(\r\n            poolId1[address(_lpToken)] == 0,\r\n            \"PolkaBridgeMasterFarm::add: lp is already in pool\"\r\n        );\r\n\r\n        uint256 _lastRewardBlock =\r\n            block.number > START_BLOCK ? block.number : START_BLOCK;\r\n\r\n        \r\n        poolId1[address(_lpToken)] = poolInfo.length + 1;\r\n        poolInfo.push(\r\n            PoolInfo({\r\n                lpToken: _lpToken,\r\n                lastRewardBlock: _lastRewardBlock,\r\n                lastPoolReward: 0,\r\n                accPBRPerShare: 0,\r\n                startDate: _startDate,\r\n                stopDate: 0,\r\n                totalRewardClaimed: 0,\r\n                isActived: true,\r\n                isExist: true\r\n            })\r\n        );\r\n\r\n        massUpdatePools();\r\n    }\r\n\r\n    function getChangePoolReward() public view returns (uint256) {\r\n        uint256 changePoolReward =\r\n            (poolBalance() - getTotalLastPoolReward()) / poolInfo.length;\r\n        if (changePoolReward <= 0) changePoolReward = 0;\r\n        return changePoolReward;\r\n    }\r\n\r\n    // Update reward variables for all pools. Be careful of gas spending!\r\n    function massUpdatePools() public {\r\n        uint256 length = poolInfo.length;\r\n        uint256 changePoolReward = getChangePoolReward();\r\n        for (uint256 pid = 0; pid < length; ++pid) {\r\n            updatePool(pid, changePoolReward);\r\n        }\r\n    }\r\n\r\n    function getTotalLastPoolReward() public view returns (uint256) {\r\n        uint256 total;\r\n         uint256 length = poolInfo.length;\r\n        for (uint256 pid = 0; pid < length; ++pid) {\r\n            total += poolInfo[pid].lastPoolReward;\r\n        }\r\n        return total;\r\n    }\r\n\r\n    // Update reward variables of the given pool to be up-to-date.\r\n    function updatePool(uint256 _pid, uint256 _changePoolReward) public {\r\n        PoolInfo storage pool = poolInfo[_pid];\r\n        if (block.number <= pool.lastRewardBlock) {\r\n            return;\r\n        }\r\n        uint256 lpSupply = pool.lpToken.balanceOf(address(this)); //total lp\r\n        if (lpSupply == 0) {\r\n            pool.lastRewardBlock = block.number;\r\n            return;\r\n        }\r\n\r\n        pool.accPBRPerShare = pool.accPBRPerShare.add(\r\n            _changePoolReward.div(lpSupply)\r\n        );\r\n        pool.lastRewardBlock = block.number;\r\n\r\n        pool.lastPoolReward += _changePoolReward;\r\n    }\r\n\r\n    function pendingReward(uint256 _pid, address _user)\r\n        external\r\n        view\r\n        returns (uint256)\r\n    {\r\n        PoolInfo storage pool = poolInfo[_pid];\r\n        UserInfo storage user = userInfo[_pid][_user];\r\n        uint256 accPBRPerShare = pool.accPBRPerShare;\r\n        uint256 lpSupply = pool.lpToken.balanceOf(address(this));\r\n        uint temptAccPBRPerShare;\r\n\r\n        if (block.number > pool.lastRewardBlock && lpSupply > 0) {\r\n            temptAccPBRPerShare = pool.accPBRPerShare.add(\r\n                getChangePoolReward().div(lpSupply)\r\n            );\r\n        }\r\n\r\n        return user.amountLP.mul(temptAccPBRPerShare).sub(user.rewardDebt);\r\n    }\r\n\r\n    function claimReward(uint256 _pid) public {\r\n        massUpdatePools();\r\n        _harvest(_pid);\r\n    }\r\n\r\n    function _harvest(uint256 _pid) internal {\r\n        PoolInfo storage pool = poolInfo[_pid];\r\n        UserInfo storage user = userInfo[_pid][msg.sender];\r\n\r\n        if (user.amountLP > 0) {\r\n            uint256 pending =\r\n                user.amountLP.mul(pool.accPBRPerShare).sub(user.rewardDebt);\r\n            uint256 masterBal = poolBalance();\r\n\r\n            if (pending > masterBal) {\r\n                pending = masterBal;\r\n            }\r\n\r\n            if (pending > 0) {\r\n                polkaBridge.transfer(msg.sender, pending);\r\n\r\n                user.rewardDebtAtBlock = block.number;\r\n            }\r\n\r\n            user.rewardDebt = user.amountLP.mul(pool.accPBRPerShare);\r\n            user.rewardClaimed += pending;\r\n        }\r\n    }\r\n\r\n    function deposit(uint256 _pid, uint256 _amount) public {\r\n        require(\r\n            _amount > 0,\r\n            \"PolkaBridgeMasterFarmer::deposit: amount must be greater than 0\"\r\n        );\r\n\r\n        PoolInfo storage pool = poolInfo[_pid];\r\n        UserInfo storage user = userInfo[_pid][msg.sender];\r\n        massUpdatePools();\r\n        _harvest(_pid);\r\n\r\n        pool.lpToken.safeTransferFrom(\r\n            address(msg.sender),\r\n            address(this),\r\n            _amount\r\n        );\r\n        if (user.amountLP == 0) {\r\n            user.rewardDebtAtBlock = block.number;\r\n        }\r\n\r\n        user.amountLP = user.amountLP.add(_amount);\r\n        user.rewardDebt = user.amountLP.mul(pool.accPBRPerShare);\r\n    }\r\n\r\n    function withdraw(uint256 _pid, uint256 _amount) public {\r\n        PoolInfo storage pool = poolInfo[_pid];\r\n        UserInfo storage user = userInfo[_pid][msg.sender];\r\n        require(\r\n            user.amountLP >= _amount,\r\n            \"PolkaBridgeMasterFarmer::withdraw: not good\"\r\n        );\r\n\r\n        massUpdatePools();\r\n        _harvest(_pid);\r\n\r\n        if (_amount > 0) {\r\n            user.amountLP = user.amountLP.sub(_amount);\r\n            pool.lpToken.safeTransfer(address(msg.sender), _amount);\r\n        }\r\n        user.rewardDebt = user.amountLP.mul(pool.accPBRPerShare);\r\n    }\r\n\r\n    function emergencyWithdraw(uint256 _pid) public {\r\n        PoolInfo storage pool = poolInfo[_pid];\r\n        UserInfo storage user = userInfo[_pid][msg.sender];\r\n        pool.lpToken.safeTransfer(address(msg.sender), user.amountLP);\r\n\r\n        user.amountLP = 0;\r\n        user.rewardDebt = 0;\r\n    }\r\n\r\n    receive() external payable {}\r\n}\r\n",
  "sourcePath": "C:/Users/thanhphi/Desktop/PolkaBridgeSolution/farming-app/contracts/PolkaBridgeMasterFarm.sol",
  "compiler": {
    "name": "solc",
    "version": "0.6.2+commit.bacdbe57.Emscripten.clang"
  },
  "schemaVersion": "3.3.3",
  "updatedAt": "2021-03-04T11:20:50.745Z",
  "devdoc": {
    "methods": {
      "isOwner()": {
        "details": "Returns true if the caller is the current owner."
      },
      "owner()": {
        "details": "Returns the address of the current owner."
      },
      "renounceOwnership()": {
        "details": "Leaves the contract without owner. It will not be possible to call `onlyOwner` functions anymore. Can only be called by the current owner.     * NOTE: Renouncing ownership will leave the contract without an owner, thereby removing any functionality that is only available to the owner."
      },
      "transferOwnership(address)": {
        "details": "Transfers ownership of the contract to a new account (`newOwner`). Can only be called by the current owner."
      }
    }
  },
  "userdoc": {
    "methods": {}
  }
}